{
	"yulERC20.sol": {
		"YulERC20": {
			"abi": [
				{
					"anonymous": false,
					"inputs": [
						{
							"indexed": true,
							"internalType": "address",
							"name": "sender",
							"type": "address"
						},
						{
							"indexed": true,
							"internalType": "address",
							"name": "receiver",
							"type": "address"
						},
						{
							"indexed": false,
							"internalType": "uint256",
							"name": "amount",
							"type": "uint256"
						}
					],
					"name": "Transfer",
					"type": "event"
				},
				{
					"inputs": [
						{
							"internalType": "address",
							"name": "",
							"type": "address"
						}
					],
					"name": "balanceOf",
					"outputs": [
						{
							"internalType": "uint256",
							"name": "",
							"type": "uint256"
						}
					],
					"stateMutability": "view",
					"type": "function"
				},
				{
					"inputs": [],
					"name": "decimals",
					"outputs": [
						{
							"internalType": "uint8",
							"name": "",
							"type": "uint8"
						}
					],
					"stateMutability": "pure",
					"type": "function"
				},
				{
					"inputs": [],
					"name": "initbal",
					"outputs": [],
					"stateMutability": "nonpayable",
					"type": "function"
				},
				{
					"inputs": [],
					"name": "name",
					"outputs": [
						{
							"internalType": "string",
							"name": "",
							"type": "string"
						}
					],
					"stateMutability": "pure",
					"type": "function"
				},
				{
					"inputs": [],
					"name": "symbol",
					"outputs": [
						{
							"internalType": "string",
							"name": "",
							"type": "string"
						}
					],
					"stateMutability": "pure",
					"type": "function"
				},
				{
					"inputs": [
						{
							"internalType": "address",
							"name": "receiver",
							"type": "address"
						},
						{
							"internalType": "uint256",
							"name": "value",
							"type": "uint256"
						}
					],
					"name": "transfer",
					"outputs": [
						{
							"internalType": "bool",
							"name": "",
							"type": "bool"
						}
					],
					"stateMutability": "nonpayable",
					"type": "function"
				}
			],
			"devdoc": {
				"author": "<your name here>",
				"kind": "dev",
				"methods": {},
				"title": "Yul ERC20",
				"version": 1
			},
			"evm": {
				"assembly": "    /* \"yulERC20.sol\":1144:4130  contract YulERC20 {... */\n  mstore(0x40, 0x80)\n  callvalue\n  dup1\n  iszero\n  tag_1\n  jumpi\n  0x00\n  dup1\n  revert\ntag_1:\n  pop\n  dataSize(sub_0)\n  dup1\n  dataOffset(sub_0)\n  0x00\n  codecopy\n  0x00\n  return\nstop\n\nsub_0: assembly {\n        /* \"yulERC20.sol\":1144:4130  contract YulERC20 {... */\n      mstore(0x40, 0x80)\n      callvalue\n      dup1\n      iszero\n      tag_1\n      jumpi\n      0x00\n      dup1\n      revert\n    tag_1:\n      pop\n      jumpi(tag_2, lt(calldatasize, 0x04))\n      shr(0xe0, calldataload(0x00))\n      dup1\n      0x06fdde03\n      eq\n      tag_3\n      jumpi\n      dup1\n      0x313ce567\n      eq\n      tag_4\n      jumpi\n      dup1\n      0x70a08231\n      eq\n      tag_5\n      jumpi\n      dup1\n      0x95d89b41\n      eq\n      tag_6\n      jumpi\n      dup1\n      0xa9059cbb\n      eq\n      tag_7\n      jumpi\n      dup1\n      0xb8542db7\n      eq\n      tag_8\n      jumpi\n    tag_2:\n      0x00\n      dup1\n      revert\n        /* \"yulERC20.sol\":1411:1701  function name() public pure returns (string memory) {... */\n    tag_3:\n      tag_9\n      tag_10\n      jump\t// in\n    tag_9:\n      mload(0x40)\n      tag_11\n      swap2\n      swap1\n      tag_12\n      jump\t// in\n    tag_11:\n      mload(0x40)\n      dup1\n      swap2\n      sub\n      swap1\n      return\n        /* \"yulERC20.sol\":2009:2150  function decimals() public pure returns (uint8) {... */\n    tag_4:\n      tag_13\n      tag_14\n      jump\t// in\n    tag_13:\n      mload(0x40)\n      tag_15\n      swap2\n      swap1\n      tag_16\n      jump\t// in\n    tag_15:\n      mload(0x40)\n      dup1\n      swap2\n      sub\n      swap1\n      return\n        /* \"yulERC20.sol\":2156:2852  function balanceOf(address) public view returns (uint256) {... */\n    tag_5:\n      tag_17\n      0x04\n      dup1\n      calldatasize\n      sub\n      dup2\n      add\n      swap1\n      tag_18\n      swap2\n      swap1\n      tag_19\n      jump\t// in\n    tag_18:\n      tag_20\n      jump\t// in\n    tag_17:\n      mload(0x40)\n      tag_21\n      swap2\n      swap1\n      tag_22\n      jump\t// in\n    tag_21:\n      mload(0x40)\n      dup1\n      swap2\n      sub\n      swap1\n      return\n        /* \"yulERC20.sol\":1707:2003  function symbol() public pure returns (string memory) {... */\n    tag_6:\n      tag_23\n      tag_24\n      jump\t// in\n    tag_23:\n      mload(0x40)\n      tag_25\n      swap2\n      swap1\n      tag_12\n      jump\t// in\n    tag_25:\n      mload(0x40)\n      dup1\n      swap2\n      sub\n      swap1\n      return\n        /* \"yulERC20.sol\":3019:4128  function transfer(address receiver, uint256 value) public returns (bool) {... */\n    tag_7:\n      tag_26\n      0x04\n      dup1\n      calldatasize\n      sub\n      dup2\n      add\n      swap1\n      tag_27\n      swap2\n      swap1\n      tag_28\n      jump\t// in\n    tag_27:\n      tag_29\n      jump\t// in\n    tag_26:\n      mload(0x40)\n      tag_30\n      swap2\n      swap1\n      tag_31\n      jump\t// in\n    tag_30:\n      mload(0x40)\n      dup1\n      swap2\n      sub\n      swap1\n      return\n        /* \"yulERC20.sol\":2858:3013  function initbal() external {... */\n    tag_8:\n      tag_32\n      tag_33\n      jump\t// in\n    tag_32:\n      stop\n        /* \"yulERC20.sol\":1411:1701  function name() public pure returns (string memory) {... */\n    tag_10:\n        /* \"yulERC20.sol\":1448:1461  string memory */\n      0x60\n        /* \"yulERC20.sol\":1516:1520  0x40 */\n      0x40\n        /* \"yulERC20.sol\":1510:1521  mload(0x40) */\n      mload\n        /* \"yulERC20.sol\":1549:1553  0x20 */\n      0x20\n        /* \"yulERC20.sol\":1541:1547  memptr */\n      dup2\n        /* \"yulERC20.sol\":1534:1554  mstore(memptr, 0x20) */\n      mstore\n        /* \"yulERC20.sol\":1593:1603  nameLength */\n      0x09\n        /* \"yulERC20.sol\":1586:1590  0x20 */\n      0x20\n        /* \"yulERC20.sol\":1578:1584  memptr */\n      dup3\n        /* \"yulERC20.sol\":1574:1591  add(memptr, 0x20) */\n      add\n        /* \"yulERC20.sol\":1567:1604  mstore(add(memptr, 0x20), nameLength) */\n      mstore\n        /* \"yulERC20.sol\":1643:1651  nameData */\n      0x59756c20546f6b656e0000000000000000000000000000000000000000000000\n        /* \"yulERC20.sol\":1636:1640  0x40 */\n      0x40\n        /* \"yulERC20.sol\":1628:1634  memptr */\n      dup3\n        /* \"yulERC20.sol\":1624:1641  add(memptr, 0x40) */\n      add\n        /* \"yulERC20.sol\":1617:1652  mstore(add(memptr, 0x40), nameData) */\n      mstore\n        /* \"yulERC20.sol\":1680:1684  0x60 */\n      0x60\n        /* \"yulERC20.sol\":1672:1678  memptr */\n      dup2\n        /* \"yulERC20.sol\":1665:1685  return(memptr, 0x60) */\n      return\n        /* \"yulERC20.sol\":2009:2150  function decimals() public pure returns (uint8) {... */\n    tag_14:\n        /* \"yulERC20.sol\":2050:2055  uint8 */\n      0x00\n        /* \"yulERC20.sol\":2100:2102  18 */\n      0x12\n        /* \"yulERC20.sol\":2097:2098  0 */\n      0x00\n        /* \"yulERC20.sol\":2090:2103  mstore(0, 18) */\n      mstore\n        /* \"yulERC20.sol\":2129:2133  0x20 */\n      0x20\n        /* \"yulERC20.sol\":2123:2127  0x00 */\n      0x00\n        /* \"yulERC20.sol\":2116:2134  return(0x00, 0x20) */\n      return\n        /* \"yulERC20.sol\":2156:2852  function balanceOf(address) public view returns (uint256) {... */\n    tag_20:\n        /* \"yulERC20.sol\":2205:2212  uint256 */\n      0x00\n        /* \"yulERC20.sol\":2275:2276  4 */\n      0x04\n        /* \"yulERC20.sol\":2262:2277  calldataload(4) */\n      calldataload\n        /* \"yulERC20.sol\":2303:2310  account */\n      dup1\n        /* \"yulERC20.sol\":2297:2301  0x00 */\n      0x00\n        /* \"yulERC20.sol\":2290:2311  mstore(0x00, account) */\n      mstore\n        /* \"yulERC20.sol\":2382:2386  0x00 */\n      0x00\n        /* \"yulERC20.sol\":2376:2380  0x20 */\n      0x20\n        /* \"yulERC20.sol\":2369:2387  mstore(0x20, 0x00) */\n      mstore\n        /* \"yulERC20.sol\":2485:2489  0x40 */\n      0x40\n        /* \"yulERC20.sol\":2479:2483  0x00 */\n      0x00\n        /* \"yulERC20.sol\":2469:2490  keccak256(0x00, 0x40) */\n      keccak256\n        /* \"yulERC20.sol\":2595:2599  hash */\n      dup1\n        /* \"yulERC20.sol\":2589:2600  sload(hash) */\n      sload\n        /* \"yulERC20.sol\":2727:2741  accountBalance */\n      dup1\n        /* \"yulERC20.sol\":2721:2725  0x00 */\n      0x00\n        /* \"yulERC20.sol\":2714:2742  mstore(0x00, accountBalance) */\n      mstore\n        /* \"yulERC20.sol\":2810:2814  0x20 */\n      0x20\n        /* \"yulERC20.sol\":2804:2808  0x00 */\n      0x00\n        /* \"yulERC20.sol\":2797:2815  return(0x00, 0x20) */\n      return\n        /* \"yulERC20.sol\":1707:2003  function symbol() public pure returns (string memory) {... */\n    tag_24:\n        /* \"yulERC20.sol\":1746:1759  string memory */\n      0x60\n        /* \"yulERC20.sol\":1814:1818  0x40 */\n      0x40\n        /* \"yulERC20.sol\":1808:1819  mload(0x40) */\n      mload\n        /* \"yulERC20.sol\":1847:1851  0x20 */\n      0x20\n        /* \"yulERC20.sol\":1839:1845  memptr */\n      dup2\n        /* \"yulERC20.sol\":1832:1852  mstore(memptr, 0x20) */\n      mstore\n        /* \"yulERC20.sol\":1891:1903  symbolLength */\n      0x03\n        /* \"yulERC20.sol\":1884:1888  0x20 */\n      0x20\n        /* \"yulERC20.sol\":1876:1882  memptr */\n      dup3\n        /* \"yulERC20.sol\":1872:1889  add(memptr, 0x20) */\n      add\n        /* \"yulERC20.sol\":1865:1904  mstore(add(memptr, 0x20), symbolLength) */\n      mstore\n        /* \"yulERC20.sol\":1943:1953  symbolData */\n      0x59554c0000000000000000000000000000000000000000000000000000000000\n        /* \"yulERC20.sol\":1936:1940  0x40 */\n      0x40\n        /* \"yulERC20.sol\":1928:1934  memptr */\n      dup3\n        /* \"yulERC20.sol\":1924:1941  add(memptr, 0x40) */\n      add\n        /* \"yulERC20.sol\":1917:1954  mstore(add(memptr, 0x40), symbolData) */\n      mstore\n        /* \"yulERC20.sol\":1982:1986  0x60 */\n      0x60\n        /* \"yulERC20.sol\":1974:1980  memptr */\n      dup2\n        /* \"yulERC20.sol\":1967:1987  return(memptr, 0x60) */\n      return\n        /* \"yulERC20.sol\":3019:4128  function transfer(address receiver, uint256 value) public returns (bool) {... */\n    tag_29:\n        /* \"yulERC20.sol\":3086:3090  bool */\n      0x00\n        /* \"yulERC20.sol\":3145:3149  0x40 */\n      0x40\n        /* \"yulERC20.sol\":3139:3150  mload(0x40) */\n      mload\n        /* \"yulERC20.sol\":3178:3186  caller() */\n      caller\n        /* \"yulERC20.sol\":3170:3176  memptr */\n      dup2\n        /* \"yulERC20.sol\":3163:3187  mstore(memptr, caller()) */\n      mstore\n        /* \"yulERC20.sol\":3226:3230  0x00 */\n      0x00\n        /* \"yulERC20.sol\":3219:3223  0x20 */\n      0x20\n        /* \"yulERC20.sol\":3211:3217  memptr */\n      dup3\n        /* \"yulERC20.sol\":3207:3224  add(memptr, 0x20) */\n      add\n        /* \"yulERC20.sol\":3200:3231  mstore(add(memptr, 0x20), 0x00) */\n      mstore\n        /* \"yulERC20.sol\":3287:3291  0x40 */\n      0x40\n        /* \"yulERC20.sol\":3279:3285  memptr */\n      dup2\n        /* \"yulERC20.sol\":3269:3292  keccak256(memptr, 0x40) */\n      keccak256\n        /* \"yulERC20.sol\":3332:3349  callerBalanceSlot */\n      dup1\n        /* \"yulERC20.sol\":3326:3350  sload(callerBalanceSlot) */\n      sload\n        /* \"yulERC20.sol\":3385:3390  value */\n      dup5\n        /* \"yulERC20.sol\":3370:3383  callerBalance */\n      dup2\n        /* \"yulERC20.sol\":3367:3391  lt(callerBalance, value) */\n      lt\n        /* \"yulERC20.sol\":3364:3500  if lt(callerBalance, value) {... */\n      iszero\n      tag_39\n      jumpi\n        /* \"yulERC20.sol\":3423:3450  insufficientBalanceSelector */\n      0xf4d678b800000000000000000000000000000000000000000000000000000000\n        /* \"yulERC20.sol\":3417:3421  0x00 */\n      0x00\n        /* \"yulERC20.sol\":3410:3451  mstore(0x00, insufficientBalanceSelector) */\n      mstore\n        /* \"yulERC20.sol\":3481:3485  0x04 */\n      0x04\n        /* \"yulERC20.sol\":3475:3479  0x00 */\n      0x00\n        /* \"yulERC20.sol\":3468:3486  revert(0x00, 0x04) */\n      revert\n        /* \"yulERC20.sol\":3364:3500  if lt(callerBalance, value) {... */\n    tag_39:\n        /* \"yulERC20.sol\":3557:3562  value */\n      dup5\n        /* \"yulERC20.sol\":3542:3555  callerBalance */\n      dup2\n        /* \"yulERC20.sol\":3538:3563  sub(callerBalance, value) */\n      sub\n        /* \"yulERC20.sol\":3591:3599  receiver */\n      dup7\n        /* \"yulERC20.sol\":3583:3589  memptr */\n      dup5\n        /* \"yulERC20.sol\":3576:3600  mstore(memptr, receiver) */\n      mstore\n        /* \"yulERC20.sol\":3639:3643  0x00 */\n      0x00\n        /* \"yulERC20.sol\":3632:3636  0x20 */\n      0x20\n        /* \"yulERC20.sol\":3624:3630  memptr */\n      dup6\n        /* \"yulERC20.sol\":3620:3637  add(memptr, 0x20) */\n      add\n        /* \"yulERC20.sol\":3613:3644  mstore(add(memptr, 0x20), 0x00) */\n      mstore\n        /* \"yulERC20.sol\":3702:3706  0x40 */\n      0x40\n        /* \"yulERC20.sol\":3694:3700  memptr */\n      dup5\n        /* \"yulERC20.sol\":3684:3707  keccak256(memptr, 0x40) */\n      keccak256\n        /* \"yulERC20.sol\":3749:3768  receiverBalanceSlot */\n      dup1\n        /* \"yulERC20.sol\":3743:3769  sload(receiverBalanceSlot) */\n      sload\n        /* \"yulERC20.sol\":3830:3835  value */\n      dup8\n        /* \"yulERC20.sol\":3813:3828  receiverBalance */\n      dup2\n        /* \"yulERC20.sol\":3809:3836  add(receiverBalance, value) */\n      add\n        /* \"yulERC20.sol\":3876:3892  newCallerBalance */\n      dup4\n        /* \"yulERC20.sol\":3857:3874  callerBalanceSlot */\n      dup7\n        /* \"yulERC20.sol\":3850:3893  sstore(callerBalanceSlot, newCallerBalance) */\n      sstore\n        /* \"yulERC20.sol\":3935:3953  newReceiverBalance */\n      dup1\n        /* \"yulERC20.sol\":3914:3933  receiverBalanceSlot */\n      dup4\n        /* \"yulERC20.sol\":3907:3954  sstore(receiverBalanceSlot, newReceiverBalance) */\n      sstore\n        /* \"yulERC20.sol\":3980:3985  value */\n      dup9\n        /* \"yulERC20.sol\":3974:3978  0x00 */\n      0x00\n        /* \"yulERC20.sol\":3967:3986  mstore(0x00, value) */\n      mstore\n        /* \"yulERC20.sol\":4040:4048  receiver */\n      dup10\n        /* \"yulERC20.sol\":4030:4038  caller() */\n      caller\n        /* \"yulERC20.sol\":4016:4028  transferHash */\n      0xddf252ad1be2c89b69c2b068fc378daa952ba7f163c4a11628f55a4df523b3ef\n        /* \"yulERC20.sol\":4010:4014  0x20 */\n      0x20\n        /* \"yulERC20.sol\":4004:4008  0x00 */\n      0x00\n        /* \"yulERC20.sol\":3999:4049  log3(0x00, 0x20, transferHash, caller(), receiver) */\n      log3\n        /* \"yulERC20.sol\":4076:4080  0x01 */\n      0x01\n        /* \"yulERC20.sol\":4070:4074  0x00 */\n      0x00\n        /* \"yulERC20.sol\":4063:4081  mstore(0x00, 0x01) */\n      mstore\n        /* \"yulERC20.sol\":4107:4111  0x20 */\n      0x20\n        /* \"yulERC20.sol\":4101:4105  0x00 */\n      0x00\n        /* \"yulERC20.sol\":4094:4112  return(0x00, 0x20) */\n      return\n        /* \"yulERC20.sol\":2858:3013  function initbal() external {... */\n    tag_33:\n        /* \"yulERC20.sol\":2974:3006  10000000000000000000000000000000 */\n      0x7e37be2022c0914b2680000000\n        /* \"yulERC20.sol\":2896:2905  _balances */\n      0x00\n        /* \"yulERC20.sol\":2896:2971  _balances[... */\n      dup1\n        /* \"yulERC20.sol\":2919:2961  0x5B38Da6a701c568545dCfcB03FcB875f56beddC4 */\n      0x5b38da6a701c568545dcfcb03fcb875f56beddc4\n        /* \"yulERC20.sol\":2896:2971  _balances[... */\n      0xffffffffffffffffffffffffffffffffffffffff\n      and\n      0xffffffffffffffffffffffffffffffffffffffff\n      and\n      dup2\n      mstore\n      0x20\n      add\n      swap1\n      dup2\n      mstore\n      0x20\n      add\n      0x00\n      keccak256\n        /* \"yulERC20.sol\":2896:3006  _balances[... */\n      dup2\n      swap1\n      sstore\n      pop\n        /* \"yulERC20.sol\":2858:3013  function initbal() external {... */\n      jump\t// out\n        /* \"#utility.yul\":7:106   */\n    tag_41:\n        /* \"#utility.yul\":59:65   */\n      0x00\n        /* \"#utility.yul\":93:98   */\n      dup2\n        /* \"#utility.yul\":87:99   */\n      mload\n        /* \"#utility.yul\":77:99   */\n      swap1\n      pop\n        /* \"#utility.yul\":7:106   */\n      swap2\n      swap1\n      pop\n      jump\t// out\n        /* \"#utility.yul\":112:281   */\n    tag_42:\n        /* \"#utility.yul\":196:207   */\n      0x00\n        /* \"#utility.yul\":230:236   */\n      dup3\n        /* \"#utility.yul\":225:228   */\n      dup3\n        /* \"#utility.yul\":218:237   */\n      mstore\n        /* \"#utility.yul\":270:274   */\n      0x20\n        /* \"#utility.yul\":265:268   */\n      dup3\n        /* \"#utility.yul\":261:275   */\n      add\n        /* \"#utility.yul\":246:275   */\n      swap1\n      pop\n        /* \"#utility.yul\":112:281   */\n      swap3\n      swap2\n      pop\n      pop\n      jump\t// out\n        /* \"#utility.yul\":287:533   */\n    tag_43:\n        /* \"#utility.yul\":368:369   */\n      0x00\n        /* \"#utility.yul\":378:491   */\n    tag_65:\n        /* \"#utility.yul\":392:398   */\n      dup4\n        /* \"#utility.yul\":389:390   */\n      dup2\n        /* \"#utility.yul\":386:399   */\n      lt\n        /* \"#utility.yul\":378:491   */\n      iszero\n      tag_67\n      jumpi\n        /* \"#utility.yul\":477:478   */\n      dup1\n        /* \"#utility.yul\":472:475   */\n      dup3\n        /* \"#utility.yul\":468:479   */\n      add\n        /* \"#utility.yul\":462:480   */\n      mload\n        /* \"#utility.yul\":458:459   */\n      dup2\n        /* \"#utility.yul\":453:456   */\n      dup5\n        /* \"#utility.yul\":449:460   */\n      add\n        /* \"#utility.yul\":442:481   */\n      mstore\n        /* \"#utility.yul\":414:416   */\n      0x20\n        /* \"#utility.yul\":411:412   */\n      dup2\n        /* \"#utility.yul\":407:417   */\n      add\n        /* \"#utility.yul\":402:417   */\n      swap1\n      pop\n        /* \"#utility.yul\":378:491   */\n      jump(tag_65)\n    tag_67:\n        /* \"#utility.yul\":525:526   */\n      0x00\n        /* \"#utility.yul\":516:522   */\n      dup5\n        /* \"#utility.yul\":511:514   */\n      dup5\n        /* \"#utility.yul\":507:523   */\n      add\n        /* \"#utility.yul\":500:527   */\n      mstore\n        /* \"#utility.yul\":349:533   */\n      pop\n        /* \"#utility.yul\":287:533   */\n      pop\n      pop\n      pop\n      jump\t// out\n        /* \"#utility.yul\":539:641   */\n    tag_44:\n        /* \"#utility.yul\":580:586   */\n      0x00\n        /* \"#utility.yul\":631:633   */\n      0x1f\n        /* \"#utility.yul\":627:634   */\n      not\n        /* \"#utility.yul\":622:624   */\n      0x1f\n        /* \"#utility.yul\":615:620   */\n      dup4\n        /* \"#utility.yul\":611:625   */\n      add\n        /* \"#utility.yul\":607:635   */\n      and\n        /* \"#utility.yul\":597:635   */\n      swap1\n      pop\n        /* \"#utility.yul\":539:641   */\n      swap2\n      swap1\n      pop\n      jump\t// out\n        /* \"#utility.yul\":647:1024   */\n    tag_45:\n        /* \"#utility.yul\":735:738   */\n      0x00\n        /* \"#utility.yul\":763:802   */\n      tag_70\n        /* \"#utility.yul\":796:801   */\n      dup3\n        /* \"#utility.yul\":763:802   */\n      tag_41\n      jump\t// in\n    tag_70:\n        /* \"#utility.yul\":818:889   */\n      tag_71\n        /* \"#utility.yul\":882:888   */\n      dup2\n        /* \"#utility.yul\":877:880   */\n      dup6\n        /* \"#utility.yul\":818:889   */\n      tag_42\n      jump\t// in\n    tag_71:\n        /* \"#utility.yul\":811:889   */\n      swap4\n      pop\n        /* \"#utility.yul\":898:963   */\n      tag_72\n        /* \"#utility.yul\":956:962   */\n      dup2\n        /* \"#utility.yul\":951:954   */\n      dup6\n        /* \"#utility.yul\":944:948   */\n      0x20\n        /* \"#utility.yul\":937:942   */\n      dup7\n        /* \"#utility.yul\":933:949   */\n      add\n        /* \"#utility.yul\":898:963   */\n      tag_43\n      jump\t// in\n    tag_72:\n        /* \"#utility.yul\":988:1017   */\n      tag_73\n        /* \"#utility.yul\":1010:1016   */\n      dup2\n        /* \"#utility.yul\":988:1017   */\n      tag_44\n      jump\t// in\n    tag_73:\n        /* \"#utility.yul\":983:986   */\n      dup5\n        /* \"#utility.yul\":979:1018   */\n      add\n        /* \"#utility.yul\":972:1018   */\n      swap2\n      pop\n        /* \"#utility.yul\":739:1024   */\n      pop\n        /* \"#utility.yul\":647:1024   */\n      swap3\n      swap2\n      pop\n      pop\n      jump\t// out\n        /* \"#utility.yul\":1030:1343   */\n    tag_12:\n        /* \"#utility.yul\":1143:1147   */\n      0x00\n        /* \"#utility.yul\":1181:1183   */\n      0x20\n        /* \"#utility.yul\":1170:1179   */\n      dup3\n        /* \"#utility.yul\":1166:1184   */\n      add\n        /* \"#utility.yul\":1158:1184   */\n      swap1\n      pop\n        /* \"#utility.yul\":1230:1239   */\n      dup2\n        /* \"#utility.yul\":1224:1228   */\n      dup2\n        /* \"#utility.yul\":1220:1240   */\n      sub\n        /* \"#utility.yul\":1216:1217   */\n      0x00\n        /* \"#utility.yul\":1205:1214   */\n      dup4\n        /* \"#utility.yul\":1201:1218   */\n      add\n        /* \"#utility.yul\":1194:1241   */\n      mstore\n        /* \"#utility.yul\":1258:1336   */\n      tag_75\n        /* \"#utility.yul\":1331:1335   */\n      dup2\n        /* \"#utility.yul\":1322:1328   */\n      dup5\n        /* \"#utility.yul\":1258:1336   */\n      tag_45\n      jump\t// in\n    tag_75:\n        /* \"#utility.yul\":1250:1336   */\n      swap1\n      pop\n        /* \"#utility.yul\":1030:1343   */\n      swap3\n      swap2\n      pop\n      pop\n      jump\t// out\n        /* \"#utility.yul\":1349:1435   */\n    tag_46:\n        /* \"#utility.yul\":1384:1391   */\n      0x00\n        /* \"#utility.yul\":1424:1428   */\n      0xff\n        /* \"#utility.yul\":1417:1422   */\n      dup3\n        /* \"#utility.yul\":1413:1429   */\n      and\n        /* \"#utility.yul\":1402:1429   */\n      swap1\n      pop\n        /* \"#utility.yul\":1349:1435   */\n      swap2\n      swap1\n      pop\n      jump\t// out\n        /* \"#utility.yul\":1441:1553   */\n    tag_47:\n        /* \"#utility.yul\":1524:1546   */\n      tag_78\n        /* \"#utility.yul\":1540:1545   */\n      dup2\n        /* \"#utility.yul\":1524:1546   */\n      tag_46\n      jump\t// in\n    tag_78:\n        /* \"#utility.yul\":1519:1522   */\n      dup3\n        /* \"#utility.yul\":1512:1547   */\n      mstore\n        /* \"#utility.yul\":1441:1553   */\n      pop\n      pop\n      jump\t// out\n        /* \"#utility.yul\":1559:1773   */\n    tag_16:\n        /* \"#utility.yul\":1648:1652   */\n      0x00\n        /* \"#utility.yul\":1686:1688   */\n      0x20\n        /* \"#utility.yul\":1675:1684   */\n      dup3\n        /* \"#utility.yul\":1671:1689   */\n      add\n        /* \"#utility.yul\":1663:1689   */\n      swap1\n      pop\n        /* \"#utility.yul\":1699:1766   */\n      tag_80\n        /* \"#utility.yul\":1763:1764   */\n      0x00\n        /* \"#utility.yul\":1752:1761   */\n      dup4\n        /* \"#utility.yul\":1748:1765   */\n      add\n        /* \"#utility.yul\":1739:1745   */\n      dup5\n        /* \"#utility.yul\":1699:1766   */\n      tag_47\n      jump\t// in\n    tag_80:\n        /* \"#utility.yul\":1559:1773   */\n      swap3\n      swap2\n      pop\n      pop\n      jump\t// out\n        /* \"#utility.yul\":1860:1977   */\n    tag_49:\n        /* \"#utility.yul\":1969:1970   */\n      0x00\n        /* \"#utility.yul\":1966:1967   */\n      dup1\n        /* \"#utility.yul\":1959:1971   */\n      revert\n        /* \"#utility.yul\":2106:2232   */\n    tag_51:\n        /* \"#utility.yul\":2143:2150   */\n      0x00\n        /* \"#utility.yul\":2183:2225   */\n      0xffffffffffffffffffffffffffffffffffffffff\n        /* \"#utility.yul\":2176:2181   */\n      dup3\n        /* \"#utility.yul\":2172:2226   */\n      and\n        /* \"#utility.yul\":2161:2226   */\n      swap1\n      pop\n        /* \"#utility.yul\":2106:2232   */\n      swap2\n      swap1\n      pop\n      jump\t// out\n        /* \"#utility.yul\":2238:2334   */\n    tag_52:\n        /* \"#utility.yul\":2275:2282   */\n      0x00\n        /* \"#utility.yul\":2304:2328   */\n      tag_86\n        /* \"#utility.yul\":2322:2327   */\n      dup3\n        /* \"#utility.yul\":2304:2328   */\n      tag_51\n      jump\t// in\n    tag_86:\n        /* \"#utility.yul\":2293:2328   */\n      swap1\n      pop\n        /* \"#utility.yul\":2238:2334   */\n      swap2\n      swap1\n      pop\n      jump\t// out\n        /* \"#utility.yul\":2340:2462   */\n    tag_53:\n        /* \"#utility.yul\":2413:2437   */\n      tag_88\n        /* \"#utility.yul\":2431:2436   */\n      dup2\n        /* \"#utility.yul\":2413:2437   */\n      tag_52\n      jump\t// in\n    tag_88:\n        /* \"#utility.yul\":2406:2411   */\n      dup2\n        /* \"#utility.yul\":2403:2438   */\n      eq\n        /* \"#utility.yul\":2393:2456   */\n      tag_89\n      jumpi\n        /* \"#utility.yul\":2452:2453   */\n      0x00\n        /* \"#utility.yul\":2449:2450   */\n      dup1\n        /* \"#utility.yul\":2442:2454   */\n      revert\n        /* \"#utility.yul\":2393:2456   */\n    tag_89:\n        /* \"#utility.yul\":2340:2462   */\n      pop\n      jump\t// out\n        /* \"#utility.yul\":2468:2607   */\n    tag_54:\n        /* \"#utility.yul\":2514:2519   */\n      0x00\n        /* \"#utility.yul\":2552:2558   */\n      dup2\n        /* \"#utility.yul\":2539:2559   */\n      calldataload\n        /* \"#utility.yul\":2530:2559   */\n      swap1\n      pop\n        /* \"#utility.yul\":2568:2601   */\n      tag_91\n        /* \"#utility.yul\":2595:2600   */\n      dup2\n        /* \"#utility.yul\":2568:2601   */\n      tag_53\n      jump\t// in\n    tag_91:\n        /* \"#utility.yul\":2468:2607   */\n      swap3\n      swap2\n      pop\n      pop\n      jump\t// out\n        /* \"#utility.yul\":2613:2942   */\n    tag_19:\n        /* \"#utility.yul\":2672:2678   */\n      0x00\n        /* \"#utility.yul\":2721:2723   */\n      0x20\n        /* \"#utility.yul\":2709:2718   */\n      dup3\n        /* \"#utility.yul\":2700:2707   */\n      dup5\n        /* \"#utility.yul\":2696:2719   */\n      sub\n        /* \"#utility.yul\":2692:2724   */\n      slt\n        /* \"#utility.yul\":2689:2808   */\n      iszero\n      tag_93\n      jumpi\n        /* \"#utility.yul\":2727:2806   */\n      tag_94\n      tag_49\n      jump\t// in\n    tag_94:\n        /* \"#utility.yul\":2689:2808   */\n    tag_93:\n        /* \"#utility.yul\":2847:2848   */\n      0x00\n        /* \"#utility.yul\":2872:2925   */\n      tag_95\n        /* \"#utility.yul\":2917:2924   */\n      dup5\n        /* \"#utility.yul\":2908:2914   */\n      dup3\n        /* \"#utility.yul\":2897:2906   */\n      dup6\n        /* \"#utility.yul\":2893:2915   */\n      add\n        /* \"#utility.yul\":2872:2925   */\n      tag_54\n      jump\t// in\n    tag_95:\n        /* \"#utility.yul\":2862:2925   */\n      swap2\n      pop\n        /* \"#utility.yul\":2818:2935   */\n      pop\n        /* \"#utility.yul\":2613:2942   */\n      swap3\n      swap2\n      pop\n      pop\n      jump\t// out\n        /* \"#utility.yul\":2948:3025   */\n    tag_55:\n        /* \"#utility.yul\":2985:2992   */\n      0x00\n        /* \"#utility.yul\":3014:3019   */\n      dup2\n        /* \"#utility.yul\":3003:3019   */\n      swap1\n      pop\n        /* \"#utility.yul\":2948:3025   */\n      swap2\n      swap1\n      pop\n      jump\t// out\n        /* \"#utility.yul\":3031:3149   */\n    tag_56:\n        /* \"#utility.yul\":3118:3142   */\n      tag_98\n        /* \"#utility.yul\":3136:3141   */\n      dup2\n        /* \"#utility.yul\":3118:3142   */\n      tag_55\n      jump\t// in\n    tag_98:\n        /* \"#utility.yul\":3113:3116   */\n      dup3\n        /* \"#utility.yul\":3106:3143   */\n      mstore\n        /* \"#utility.yul\":3031:3149   */\n      pop\n      pop\n      jump\t// out\n        /* \"#utility.yul\":3155:3377   */\n    tag_22:\n        /* \"#utility.yul\":3248:3252   */\n      0x00\n        /* \"#utility.yul\":3286:3288   */\n      0x20\n        /* \"#utility.yul\":3275:3284   */\n      dup3\n        /* \"#utility.yul\":3271:3289   */\n      add\n        /* \"#utility.yul\":3263:3289   */\n      swap1\n      pop\n        /* \"#utility.yul\":3299:3370   */\n      tag_100\n        /* \"#utility.yul\":3367:3368   */\n      0x00\n        /* \"#utility.yul\":3356:3365   */\n      dup4\n        /* \"#utility.yul\":3352:3369   */\n      add\n        /* \"#utility.yul\":3343:3349   */\n      dup5\n        /* \"#utility.yul\":3299:3370   */\n      tag_56\n      jump\t// in\n    tag_100:\n        /* \"#utility.yul\":3155:3377   */\n      swap3\n      swap2\n      pop\n      pop\n      jump\t// out\n        /* \"#utility.yul\":3383:3505   */\n    tag_57:\n        /* \"#utility.yul\":3456:3480   */\n      tag_102\n        /* \"#utility.yul\":3474:3479   */\n      dup2\n        /* \"#utility.yul\":3456:3480   */\n      tag_55\n      jump\t// in\n    tag_102:\n        /* \"#utility.yul\":3449:3454   */\n      dup2\n        /* \"#utility.yul\":3446:3481   */\n      eq\n        /* \"#utility.yul\":3436:3499   */\n      tag_103\n      jumpi\n        /* \"#utility.yul\":3495:3496   */\n      0x00\n        /* \"#utility.yul\":3492:3493   */\n      dup1\n        /* \"#utility.yul\":3485:3497   */\n      revert\n        /* \"#utility.yul\":3436:3499   */\n    tag_103:\n        /* \"#utility.yul\":3383:3505   */\n      pop\n      jump\t// out\n        /* \"#utility.yul\":3511:3650   */\n    tag_58:\n        /* \"#utility.yul\":3557:3562   */\n      0x00\n        /* \"#utility.yul\":3595:3601   */\n      dup2\n        /* \"#utility.yul\":3582:3602   */\n      calldataload\n        /* \"#utility.yul\":3573:3602   */\n      swap1\n      pop\n        /* \"#utility.yul\":3611:3644   */\n      tag_105\n        /* \"#utility.yul\":3638:3643   */\n      dup2\n        /* \"#utility.yul\":3611:3644   */\n      tag_57\n      jump\t// in\n    tag_105:\n        /* \"#utility.yul\":3511:3650   */\n      swap3\n      swap2\n      pop\n      pop\n      jump\t// out\n        /* \"#utility.yul\":3656:4130   */\n    tag_28:\n        /* \"#utility.yul\":3724:3730   */\n      0x00\n        /* \"#utility.yul\":3732:3738   */\n      dup1\n        /* \"#utility.yul\":3781:3783   */\n      0x40\n        /* \"#utility.yul\":3769:3778   */\n      dup4\n        /* \"#utility.yul\":3760:3767   */\n      dup6\n        /* \"#utility.yul\":3756:3779   */\n      sub\n        /* \"#utility.yul\":3752:3784   */\n      slt\n        /* \"#utility.yul\":3749:3868   */\n      iszero\n      tag_107\n      jumpi\n        /* \"#utility.yul\":3787:3866   */\n      tag_108\n      tag_49\n      jump\t// in\n    tag_108:\n        /* \"#utility.yul\":3749:3868   */\n    tag_107:\n        /* \"#utility.yul\":3907:3908   */\n      0x00\n        /* \"#utility.yul\":3932:3985   */\n      tag_109\n        /* \"#utility.yul\":3977:3984   */\n      dup6\n        /* \"#utility.yul\":3968:3974   */\n      dup3\n        /* \"#utility.yul\":3957:3966   */\n      dup7\n        /* \"#utility.yul\":3953:3975   */\n      add\n        /* \"#utility.yul\":3932:3985   */\n      tag_54\n      jump\t// in\n    tag_109:\n        /* \"#utility.yul\":3922:3985   */\n      swap3\n      pop\n        /* \"#utility.yul\":3878:3995   */\n      pop\n        /* \"#utility.yul\":4034:4036   */\n      0x20\n        /* \"#utility.yul\":4060:4113   */\n      tag_110\n        /* \"#utility.yul\":4105:4112   */\n      dup6\n        /* \"#utility.yul\":4096:4102   */\n      dup3\n        /* \"#utility.yul\":4085:4094   */\n      dup7\n        /* \"#utility.yul\":4081:4103   */\n      add\n        /* \"#utility.yul\":4060:4113   */\n      tag_58\n      jump\t// in\n    tag_110:\n        /* \"#utility.yul\":4050:4113   */\n      swap2\n      pop\n        /* \"#utility.yul\":4005:4123   */\n      pop\n        /* \"#utility.yul\":3656:4130   */\n      swap3\n      pop\n      swap3\n      swap1\n      pop\n      jump\t// out\n        /* \"#utility.yul\":4136:4226   */\n    tag_59:\n        /* \"#utility.yul\":4170:4177   */\n      0x00\n        /* \"#utility.yul\":4213:4218   */\n      dup2\n        /* \"#utility.yul\":4206:4219   */\n      iszero\n        /* \"#utility.yul\":4199:4220   */\n      iszero\n        /* \"#utility.yul\":4188:4220   */\n      swap1\n      pop\n        /* \"#utility.yul\":4136:4226   */\n      swap2\n      swap1\n      pop\n      jump\t// out\n        /* \"#utility.yul\":4232:4341   */\n    tag_60:\n        /* \"#utility.yul\":4313:4334   */\n      tag_113\n        /* \"#utility.yul\":4328:4333   */\n      dup2\n        /* \"#utility.yul\":4313:4334   */\n      tag_59\n      jump\t// in\n    tag_113:\n        /* \"#utility.yul\":4308:4311   */\n      dup3\n        /* \"#utility.yul\":4301:4335   */\n      mstore\n        /* \"#utility.yul\":4232:4341   */\n      pop\n      pop\n      jump\t// out\n        /* \"#utility.yul\":4347:4557   */\n    tag_31:\n        /* \"#utility.yul\":4434:4438   */\n      0x00\n        /* \"#utility.yul\":4472:4474   */\n      0x20\n        /* \"#utility.yul\":4461:4470   */\n      dup3\n        /* \"#utility.yul\":4457:4475   */\n      add\n        /* \"#utility.yul\":4449:4475   */\n      swap1\n      pop\n        /* \"#utility.yul\":4485:4550   */\n      tag_115\n        /* \"#utility.yul\":4547:4548   */\n      0x00\n        /* \"#utility.yul\":4536:4545   */\n      dup4\n        /* \"#utility.yul\":4532:4549   */\n      add\n        /* \"#utility.yul\":4523:4529   */\n      dup5\n        /* \"#utility.yul\":4485:4550   */\n      tag_60\n      jump\t// in\n    tag_115:\n        /* \"#utility.yul\":4347:4557   */\n      swap3\n      swap2\n      pop\n      pop\n      jump\t// out\n\n    auxdata: 0xa2646970667358221220b7d0d2290f565fd54f4324dee973a90635ccde6c316e251bc148d56c5ffea75d64736f6c63430008110033\n}\n",
				"bytecode": {
					"linkReferences": {},
					"object": "608060405234801561001057600080fd5b50610552806100206000396000f3fe608060405234801561001057600080fd5b50600436106100625760003560e01c806306fdde0314610067578063313ce5671461008557806370a08231146100a357806395d89b41146100d3578063a9059cbb146100f1578063b8542db714610121575b600080fd5b61006f61012b565b60405161007c919061035d565b60405180910390f35b61008d610166565b60405161009a919061039b565b60405180910390f35b6100bd60048036038101906100b89190610419565b610173565b6040516100ca919061045f565b60405180910390f35b6100db610192565b6040516100e8919061035d565b60405180910390f35b61010b600480360381019061010691906104a6565b6101cd565b6040516101189190610501565b60405180910390f35b610129610267565b005b606060405160208152600960208201527f59756c20546f6b656e00000000000000000000000000000000000000000000006040820152606081f35b6000601260005260206000f35b6000600435806000526000602052604060002080548060005260206000f35b606060405160208152600360208201527f59554c00000000000000000000000000000000000000000000000000000000006040820152606081f35b60006040513381526000602082015260408120805484811015610214577ff4d678b80000000000000000000000000000000000000000000000000000000060005260046000fd5b848103868452600060208501526040842080548781018386558083558860005289337fddf252ad1be2c89b69c2b068fc378daa952ba7f163c4a11628f55a4df523b3ef60206000a3600160005260206000f35b6c7e37be2022c0914b2680000000600080735b38da6a701c568545dcfcb03fcb875f56beddc473ffffffffffffffffffffffffffffffffffffffff1673ffffffffffffffffffffffffffffffffffffffff16815260200190815260200160002081905550565b600081519050919050565b600082825260208201905092915050565b60005b838110156103075780820151818401526020810190506102ec565b60008484015250505050565b6000601f19601f8301169050919050565b600061032f826102cd565b61033981856102d8565b93506103498185602086016102e9565b61035281610313565b840191505092915050565b600060208201905081810360008301526103778184610324565b905092915050565b600060ff82169050919050565b6103958161037f565b82525050565b60006020820190506103b0600083018461038c565b92915050565b600080fd5b600073ffffffffffffffffffffffffffffffffffffffff82169050919050565b60006103e6826103bb565b9050919050565b6103f6816103db565b811461040157600080fd5b50565b600081359050610413816103ed565b92915050565b60006020828403121561042f5761042e6103b6565b5b600061043d84828501610404565b91505092915050565b6000819050919050565b61045981610446565b82525050565b60006020820190506104746000830184610450565b92915050565b61048381610446565b811461048e57600080fd5b50565b6000813590506104a08161047a565b92915050565b600080604083850312156104bd576104bc6103b6565b5b60006104cb85828601610404565b92505060206104dc85828601610491565b9150509250929050565b60008115159050919050565b6104fb816104e6565b82525050565b600060208201905061051660008301846104f2565b9291505056fea2646970667358221220b7d0d2290f565fd54f4324dee973a90635ccde6c316e251bc148d56c5ffea75d64736f6c63430008110033",
					"opcodes": "PUSH1 0x80 PUSH1 0x40 MSTORE CALLVALUE DUP1 ISZERO PUSH2 0x10 JUMPI PUSH1 0x0 DUP1 REVERT JUMPDEST POP PUSH2 0x552 DUP1 PUSH2 0x20 PUSH1 0x0 CODECOPY PUSH1 0x0 RETURN INVALID PUSH1 0x80 PUSH1 0x40 MSTORE CALLVALUE DUP1 ISZERO PUSH2 0x10 JUMPI PUSH1 0x0 DUP1 REVERT JUMPDEST POP PUSH1 0x4 CALLDATASIZE LT PUSH2 0x62 JUMPI PUSH1 0x0 CALLDATALOAD PUSH1 0xE0 SHR DUP1 PUSH4 0x6FDDE03 EQ PUSH2 0x67 JUMPI DUP1 PUSH4 0x313CE567 EQ PUSH2 0x85 JUMPI DUP1 PUSH4 0x70A08231 EQ PUSH2 0xA3 JUMPI DUP1 PUSH4 0x95D89B41 EQ PUSH2 0xD3 JUMPI DUP1 PUSH4 0xA9059CBB EQ PUSH2 0xF1 JUMPI DUP1 PUSH4 0xB8542DB7 EQ PUSH2 0x121 JUMPI JUMPDEST PUSH1 0x0 DUP1 REVERT JUMPDEST PUSH2 0x6F PUSH2 0x12B JUMP JUMPDEST PUSH1 0x40 MLOAD PUSH2 0x7C SWAP2 SWAP1 PUSH2 0x35D JUMP JUMPDEST PUSH1 0x40 MLOAD DUP1 SWAP2 SUB SWAP1 RETURN JUMPDEST PUSH2 0x8D PUSH2 0x166 JUMP JUMPDEST PUSH1 0x40 MLOAD PUSH2 0x9A SWAP2 SWAP1 PUSH2 0x39B JUMP JUMPDEST PUSH1 0x40 MLOAD DUP1 SWAP2 SUB SWAP1 RETURN JUMPDEST PUSH2 0xBD PUSH1 0x4 DUP1 CALLDATASIZE SUB DUP2 ADD SWAP1 PUSH2 0xB8 SWAP2 SWAP1 PUSH2 0x419 JUMP JUMPDEST PUSH2 0x173 JUMP JUMPDEST PUSH1 0x40 MLOAD PUSH2 0xCA SWAP2 SWAP1 PUSH2 0x45F JUMP JUMPDEST PUSH1 0x40 MLOAD DUP1 SWAP2 SUB SWAP1 RETURN JUMPDEST PUSH2 0xDB PUSH2 0x192 JUMP JUMPDEST PUSH1 0x40 MLOAD PUSH2 0xE8 SWAP2 SWAP1 PUSH2 0x35D JUMP JUMPDEST PUSH1 0x40 MLOAD DUP1 SWAP2 SUB SWAP1 RETURN JUMPDEST PUSH2 0x10B PUSH1 0x4 DUP1 CALLDATASIZE SUB DUP2 ADD SWAP1 PUSH2 0x106 SWAP2 SWAP1 PUSH2 0x4A6 JUMP JUMPDEST PUSH2 0x1CD JUMP JUMPDEST PUSH1 0x40 MLOAD PUSH2 0x118 SWAP2 SWAP1 PUSH2 0x501 JUMP JUMPDEST PUSH1 0x40 MLOAD DUP1 SWAP2 SUB SWAP1 RETURN JUMPDEST PUSH2 0x129 PUSH2 0x267 JUMP JUMPDEST STOP JUMPDEST PUSH1 0x60 PUSH1 0x40 MLOAD PUSH1 0x20 DUP2 MSTORE PUSH1 0x9 PUSH1 0x20 DUP3 ADD MSTORE PUSH32 0x59756C20546F6B656E0000000000000000000000000000000000000000000000 PUSH1 0x40 DUP3 ADD MSTORE PUSH1 0x60 DUP2 RETURN JUMPDEST PUSH1 0x0 PUSH1 0x12 PUSH1 0x0 MSTORE PUSH1 0x20 PUSH1 0x0 RETURN JUMPDEST PUSH1 0x0 PUSH1 0x4 CALLDATALOAD DUP1 PUSH1 0x0 MSTORE PUSH1 0x0 PUSH1 0x20 MSTORE PUSH1 0x40 PUSH1 0x0 KECCAK256 DUP1 SLOAD DUP1 PUSH1 0x0 MSTORE PUSH1 0x20 PUSH1 0x0 RETURN JUMPDEST PUSH1 0x60 PUSH1 0x40 MLOAD PUSH1 0x20 DUP2 MSTORE PUSH1 0x3 PUSH1 0x20 DUP3 ADD MSTORE PUSH32 0x59554C0000000000000000000000000000000000000000000000000000000000 PUSH1 0x40 DUP3 ADD MSTORE PUSH1 0x60 DUP2 RETURN JUMPDEST PUSH1 0x0 PUSH1 0x40 MLOAD CALLER DUP2 MSTORE PUSH1 0x0 PUSH1 0x20 DUP3 ADD MSTORE PUSH1 0x40 DUP2 KECCAK256 DUP1 SLOAD DUP5 DUP2 LT ISZERO PUSH2 0x214 JUMPI PUSH32 0xF4D678B800000000000000000000000000000000000000000000000000000000 PUSH1 0x0 MSTORE PUSH1 0x4 PUSH1 0x0 REVERT JUMPDEST DUP5 DUP2 SUB DUP7 DUP5 MSTORE PUSH1 0x0 PUSH1 0x20 DUP6 ADD MSTORE PUSH1 0x40 DUP5 KECCAK256 DUP1 SLOAD DUP8 DUP2 ADD DUP4 DUP7 SSTORE DUP1 DUP4 SSTORE DUP9 PUSH1 0x0 MSTORE DUP10 CALLER PUSH32 0xDDF252AD1BE2C89B69C2B068FC378DAA952BA7F163C4A11628F55A4DF523B3EF PUSH1 0x20 PUSH1 0x0 LOG3 PUSH1 0x1 PUSH1 0x0 MSTORE PUSH1 0x20 PUSH1 0x0 RETURN JUMPDEST PUSH13 0x7E37BE2022C0914B2680000000 PUSH1 0x0 DUP1 PUSH20 0x5B38DA6A701C568545DCFCB03FCB875F56BEDDC4 PUSH20 0xFFFFFFFFFFFFFFFFFFFFFFFFFFFFFFFFFFFFFFFF AND PUSH20 0xFFFFFFFFFFFFFFFFFFFFFFFFFFFFFFFFFFFFFFFF AND DUP2 MSTORE PUSH1 0x20 ADD SWAP1 DUP2 MSTORE PUSH1 0x20 ADD PUSH1 0x0 KECCAK256 DUP2 SWAP1 SSTORE POP JUMP JUMPDEST PUSH1 0x0 DUP2 MLOAD SWAP1 POP SWAP2 SWAP1 POP JUMP JUMPDEST PUSH1 0x0 DUP3 DUP3 MSTORE PUSH1 0x20 DUP3 ADD SWAP1 POP SWAP3 SWAP2 POP POP JUMP JUMPDEST PUSH1 0x0 JUMPDEST DUP4 DUP2 LT ISZERO PUSH2 0x307 JUMPI DUP1 DUP3 ADD MLOAD DUP2 DUP5 ADD MSTORE PUSH1 0x20 DUP2 ADD SWAP1 POP PUSH2 0x2EC JUMP JUMPDEST PUSH1 0x0 DUP5 DUP5 ADD MSTORE POP POP POP POP JUMP JUMPDEST PUSH1 0x0 PUSH1 0x1F NOT PUSH1 0x1F DUP4 ADD AND SWAP1 POP SWAP2 SWAP1 POP JUMP JUMPDEST PUSH1 0x0 PUSH2 0x32F DUP3 PUSH2 0x2CD JUMP JUMPDEST PUSH2 0x339 DUP2 DUP6 PUSH2 0x2D8 JUMP JUMPDEST SWAP4 POP PUSH2 0x349 DUP2 DUP6 PUSH1 0x20 DUP7 ADD PUSH2 0x2E9 JUMP JUMPDEST PUSH2 0x352 DUP2 PUSH2 0x313 JUMP JUMPDEST DUP5 ADD SWAP2 POP POP SWAP3 SWAP2 POP POP JUMP JUMPDEST PUSH1 0x0 PUSH1 0x20 DUP3 ADD SWAP1 POP DUP2 DUP2 SUB PUSH1 0x0 DUP4 ADD MSTORE PUSH2 0x377 DUP2 DUP5 PUSH2 0x324 JUMP JUMPDEST SWAP1 POP SWAP3 SWAP2 POP POP JUMP JUMPDEST PUSH1 0x0 PUSH1 0xFF DUP3 AND SWAP1 POP SWAP2 SWAP1 POP JUMP JUMPDEST PUSH2 0x395 DUP2 PUSH2 0x37F JUMP JUMPDEST DUP3 MSTORE POP POP JUMP JUMPDEST PUSH1 0x0 PUSH1 0x20 DUP3 ADD SWAP1 POP PUSH2 0x3B0 PUSH1 0x0 DUP4 ADD DUP5 PUSH2 0x38C JUMP JUMPDEST SWAP3 SWAP2 POP POP JUMP JUMPDEST PUSH1 0x0 DUP1 REVERT JUMPDEST PUSH1 0x0 PUSH20 0xFFFFFFFFFFFFFFFFFFFFFFFFFFFFFFFFFFFFFFFF DUP3 AND SWAP1 POP SWAP2 SWAP1 POP JUMP JUMPDEST PUSH1 0x0 PUSH2 0x3E6 DUP3 PUSH2 0x3BB JUMP JUMPDEST SWAP1 POP SWAP2 SWAP1 POP JUMP JUMPDEST PUSH2 0x3F6 DUP2 PUSH2 0x3DB JUMP JUMPDEST DUP2 EQ PUSH2 0x401 JUMPI PUSH1 0x0 DUP1 REVERT JUMPDEST POP JUMP JUMPDEST PUSH1 0x0 DUP2 CALLDATALOAD SWAP1 POP PUSH2 0x413 DUP2 PUSH2 0x3ED JUMP JUMPDEST SWAP3 SWAP2 POP POP JUMP JUMPDEST PUSH1 0x0 PUSH1 0x20 DUP3 DUP5 SUB SLT ISZERO PUSH2 0x42F JUMPI PUSH2 0x42E PUSH2 0x3B6 JUMP JUMPDEST JUMPDEST PUSH1 0x0 PUSH2 0x43D DUP5 DUP3 DUP6 ADD PUSH2 0x404 JUMP JUMPDEST SWAP2 POP POP SWAP3 SWAP2 POP POP JUMP JUMPDEST PUSH1 0x0 DUP2 SWAP1 POP SWAP2 SWAP1 POP JUMP JUMPDEST PUSH2 0x459 DUP2 PUSH2 0x446 JUMP JUMPDEST DUP3 MSTORE POP POP JUMP JUMPDEST PUSH1 0x0 PUSH1 0x20 DUP3 ADD SWAP1 POP PUSH2 0x474 PUSH1 0x0 DUP4 ADD DUP5 PUSH2 0x450 JUMP JUMPDEST SWAP3 SWAP2 POP POP JUMP JUMPDEST PUSH2 0x483 DUP2 PUSH2 0x446 JUMP JUMPDEST DUP2 EQ PUSH2 0x48E JUMPI PUSH1 0x0 DUP1 REVERT JUMPDEST POP JUMP JUMPDEST PUSH1 0x0 DUP2 CALLDATALOAD SWAP1 POP PUSH2 0x4A0 DUP2 PUSH2 0x47A JUMP JUMPDEST SWAP3 SWAP2 POP POP JUMP JUMPDEST PUSH1 0x0 DUP1 PUSH1 0x40 DUP4 DUP6 SUB SLT ISZERO PUSH2 0x4BD JUMPI PUSH2 0x4BC PUSH2 0x3B6 JUMP JUMPDEST JUMPDEST PUSH1 0x0 PUSH2 0x4CB DUP6 DUP3 DUP7 ADD PUSH2 0x404 JUMP JUMPDEST SWAP3 POP POP PUSH1 0x20 PUSH2 0x4DC DUP6 DUP3 DUP7 ADD PUSH2 0x491 JUMP JUMPDEST SWAP2 POP POP SWAP3 POP SWAP3 SWAP1 POP JUMP JUMPDEST PUSH1 0x0 DUP2 ISZERO ISZERO SWAP1 POP SWAP2 SWAP1 POP JUMP JUMPDEST PUSH2 0x4FB DUP2 PUSH2 0x4E6 JUMP JUMPDEST DUP3 MSTORE POP POP JUMP JUMPDEST PUSH1 0x0 PUSH1 0x20 DUP3 ADD SWAP1 POP PUSH2 0x516 PUSH1 0x0 DUP4 ADD DUP5 PUSH2 0x4F2 JUMP JUMPDEST SWAP3 SWAP2 POP POP JUMP INVALID LOG2 PUSH5 0x6970667358 0x22 SLT KECCAK256 0xB7 0xD0 0xD2 0x29 0xF JUMP 0x5F 0xD5 0x4F NUMBER 0x24 0xDE 0xE9 PUSH20 0xA90635CCDE6C316E251BC148D56C5FFEA75D6473 PUSH16 0x6C634300081100330000000000000000 "
				},
				"gasEstimates": {
					"creation": {
						"codeDepositCost": "272400",
						"executionCost": "312",
						"totalCost": "272712"
					},
					"external": {
						"balanceOf(address)": "2659",
						"decimals()": "153",
						"initbal()": "22436",
						"name()": "179",
						"symbol()": "245",
						"transfer(address,uint256)": "51098"
					}
				},
				"methodIdentifiers": {
					"balanceOf(address)": "70a08231",
					"decimals()": "313ce567",
					"initbal()": "b8542db7",
					"name()": "06fdde03",
					"symbol()": "95d89b41",
					"transfer(address,uint256)": "a9059cbb"
				}
			},
			"storageLayout": {
				"storage": [
					{
						"astId": 35,
						"contract": "yulERC20.sol:YulERC20",
						"label": "_balances",
						"offset": 0,
						"slot": "0",
						"type": "t_mapping(t_address,t_uint256)"
					},
					{
						"astId": 41,
						"contract": "yulERC20.sol:YulERC20",
						"label": "_allowances",
						"offset": 0,
						"slot": "1",
						"type": "t_mapping(t_address,t_mapping(t_address,t_uint256))"
					}
				],
				"types": {
					"t_address": {
						"encoding": "inplace",
						"label": "address",
						"numberOfBytes": "20"
					},
					"t_mapping(t_address,t_mapping(t_address,t_uint256))": {
						"encoding": "mapping",
						"key": "t_address",
						"label": "mapping(address => mapping(address => uint256))",
						"numberOfBytes": "32",
						"value": "t_mapping(t_address,t_uint256)"
					},
					"t_mapping(t_address,t_uint256)": {
						"encoding": "mapping",
						"key": "t_address",
						"label": "mapping(address => uint256)",
						"numberOfBytes": "32",
						"value": "t_uint256"
					},
					"t_uint256": {
						"encoding": "inplace",
						"label": "uint256",
						"numberOfBytes": "32"
					}
				}
			},
			"userdoc": {
				"kind": "user",
				"methods": {},
				"notice": "For demo purposes ONLY.",
				"version": 1
			}
		}
	}
}