{
	"SIMPLESWAP.sol": {
		"TestUniswap": {
			"abi": [
				{
					"inputs": [
						{
							"internalType": "address",
							"name": "_tokenIn",
							"type": "address"
						},
						{
							"internalType": "address",
							"name": "_tokenOut",
							"type": "address"
						},
						{
							"internalType": "uint256",
							"name": "_amountIn",
							"type": "uint256"
						}
					],
					"name": "getAmountOutMin",
					"outputs": [
						{
							"internalType": "uint256",
							"name": "",
							"type": "uint256"
						}
					],
					"stateMutability": "view",
					"type": "function"
				},
				{
					"inputs": [
						{
							"internalType": "address",
							"name": "_tokenIn",
							"type": "address"
						},
						{
							"internalType": "address",
							"name": "_tokenOut",
							"type": "address"
						},
						{
							"internalType": "uint256",
							"name": "_amountIn",
							"type": "uint256"
						},
						{
							"internalType": "uint256",
							"name": "_amountOutMin",
							"type": "uint256"
						},
						{
							"internalType": "address",
							"name": "_to",
							"type": "address"
						}
					],
					"name": "swap",
					"outputs": [],
					"stateMutability": "nonpayable",
					"type": "function"
				}
			],
			"devdoc": {
				"kind": "dev",
				"methods": {},
				"version": 1
			},
			"evm": {
				"assembly": "    /* \"SIMPLESWAP.sol\":137:1847  contract TestUniswap {... */\n  mstore(0x40, 0x80)\n  callvalue\n  dup1\n  iszero\n  tag_1\n  jumpi\n  0x00\n  dup1\n  revert\ntag_1:\n  pop\n  dataSize(sub_0)\n  dup1\n  dataOffset(sub_0)\n  0x00\n  codecopy\n  0x00\n  return\nstop\n\nsub_0: assembly {\n        /* \"SIMPLESWAP.sol\":137:1847  contract TestUniswap {... */\n      mstore(0x40, 0x80)\n      callvalue\n      dup1\n      iszero\n      tag_1\n      jumpi\n      0x00\n      dup1\n      revert\n    tag_1:\n      pop\n      jumpi(tag_2, lt(calldatasize, 0x04))\n      shr(0xe0, calldataload(0x00))\n      dup1\n      0x3c50eec1\n      eq\n      tag_3\n      jumpi\n      dup1\n      0xd5bcb9b5\n      eq\n      tag_4\n      jumpi\n    tag_2:\n      0x00\n      dup1\n      revert\n        /* \"SIMPLESWAP.sol\":1252:1845  function getAmountOutMin(... */\n    tag_3:\n      tag_5\n      0x04\n      dup1\n      calldatasize\n      sub\n      dup2\n      add\n      swap1\n      tag_6\n      swap2\n      swap1\n      tag_7\n      jump\t// in\n    tag_6:\n      tag_8\n      jump\t// in\n    tag_5:\n      mload(0x40)\n      tag_9\n      swap2\n      swap1\n      tag_10\n      jump\t// in\n    tag_9:\n      mload(0x40)\n      dup1\n      swap2\n      sub\n      swap1\n      return\n        /* \"SIMPLESWAP.sol\":534:1248  function swap(... */\n    tag_4:\n      tag_11\n      0x04\n      dup1\n      calldatasize\n      sub\n      dup2\n      add\n      swap1\n      tag_12\n      swap2\n      swap1\n      tag_13\n      jump\t// in\n    tag_12:\n      tag_14\n      jump\t// in\n    tag_11:\n      stop\n        /* \"SIMPLESWAP.sol\":1252:1845  function getAmountOutMin(... */\n    tag_8:\n        /* \"SIMPLESWAP.sol\":1369:1373  uint */\n      0x00\n        /* \"SIMPLESWAP.sol\":1381:1402  address[] memory path */\n      0x60\n        /* \"SIMPLESWAP.sol\":487:529  0xfFf9976782d46CC05630D1f6eBAb18b2324d6B14 */\n      0xfff9976782d46cc05630d1f6ebab18b2324d6b14\n        /* \"SIMPLESWAP.sol\":1412:1428  _tokenIn == WETH */\n      0xffffffffffffffffffffffffffffffffffffffff\n      and\n        /* \"SIMPLESWAP.sol\":1412:1420  _tokenIn */\n      dup6\n        /* \"SIMPLESWAP.sol\":1412:1428  _tokenIn == WETH */\n      0xffffffffffffffffffffffffffffffffffffffff\n      and\n      eq\n        /* \"SIMPLESWAP.sol\":1412:1449  _tokenIn == WETH || _tokenOut == WETH */\n      dup1\n      tag_16\n      jumpi\n      pop\n        /* \"SIMPLESWAP.sol\":487:529  0xfFf9976782d46CC05630D1f6eBAb18b2324d6B14 */\n      0xfff9976782d46cc05630d1f6ebab18b2324d6b14\n        /* \"SIMPLESWAP.sol\":1432:1449  _tokenOut == WETH */\n      0xffffffffffffffffffffffffffffffffffffffff\n      and\n        /* \"SIMPLESWAP.sol\":1432:1441  _tokenOut */\n      dup5\n        /* \"SIMPLESWAP.sol\":1432:1449  _tokenOut == WETH */\n      0xffffffffffffffffffffffffffffffffffffffff\n      and\n      eq\n        /* \"SIMPLESWAP.sol\":1412:1449  _tokenIn == WETH || _tokenOut == WETH */\n    tag_16:\n        /* \"SIMPLESWAP.sol\":1408:1661  if (_tokenIn == WETH || _tokenOut == WETH) {... */\n      iszero\n      tag_17\n      jumpi\n        /* \"SIMPLESWAP.sol\":1480:1481  2 */\n      0x02\n        /* \"SIMPLESWAP.sol\":1466:1482  new address[](2) */\n      0xffffffffffffffff\n      dup2\n      gt\n      iszero\n      tag_18\n      jumpi\n      tag_19\n      tag_20\n      jump\t// in\n    tag_19:\n    tag_18:\n      mload(0x40)\n      swap1\n      dup1\n      dup3\n      mstore\n      dup1\n      0x20\n      mul\n      0x20\n      add\n      dup3\n      add\n      0x40\n      mstore\n      dup1\n      iszero\n      tag_21\n      jumpi\n      dup2\n      0x20\n      add\n      0x20\n      dup3\n      mul\n      dup1\n      calldatasize\n      dup4\n      calldatacopy\n      dup1\n      dup3\n      add\n      swap2\n      pop\n      pop\n      swap1\n      pop\n    tag_21:\n      pop\n        /* \"SIMPLESWAP.sol\":1459:1482  path = new address[](2) */\n      swap1\n      pop\n        /* \"SIMPLESWAP.sol\":1500:1508  _tokenIn */\n      dup5\n        /* \"SIMPLESWAP.sol\":1490:1494  path */\n      dup2\n        /* \"SIMPLESWAP.sol\":1495:1496  0 */\n      0x00\n        /* \"SIMPLESWAP.sol\":1490:1497  path[0] */\n      dup2\n      mload\n      dup2\n      lt\n      tag_22\n      jumpi\n      tag_23\n      tag_24\n      jump\t// in\n    tag_23:\n    tag_22:\n      0x20\n      mul\n      0x20\n      add\n      add\n        /* \"SIMPLESWAP.sol\":1490:1508  path[0] = _tokenIn */\n      swap1\n      0xffffffffffffffffffffffffffffffffffffffff\n      and\n      swap1\n      dup2\n      0xffffffffffffffffffffffffffffffffffffffff\n      and\n      dup2\n      mstore\n      pop\n      pop\n        /* \"SIMPLESWAP.sol\":1526:1535  _tokenOut */\n      dup4\n        /* \"SIMPLESWAP.sol\":1516:1520  path */\n      dup2\n        /* \"SIMPLESWAP.sol\":1521:1522  1 */\n      0x01\n        /* \"SIMPLESWAP.sol\":1516:1523  path[1] */\n      dup2\n      mload\n      dup2\n      lt\n      tag_25\n      jumpi\n      tag_26\n      tag_24\n      jump\t// in\n    tag_26:\n    tag_25:\n      0x20\n      mul\n      0x20\n      add\n      add\n        /* \"SIMPLESWAP.sol\":1516:1535  path[1] = _tokenOut */\n      swap1\n      0xffffffffffffffffffffffffffffffffffffffff\n      and\n      swap1\n      dup2\n      0xffffffffffffffffffffffffffffffffffffffff\n      and\n      dup2\n      mstore\n      pop\n      pop\n        /* \"SIMPLESWAP.sol\":1408:1661  if (_tokenIn == WETH || _tokenOut == WETH) {... */\n      jump(tag_27)\n    tag_17:\n        /* \"SIMPLESWAP.sol\":1577:1578  3 */\n      0x03\n        /* \"SIMPLESWAP.sol\":1563:1579  new address[](3) */\n      0xffffffffffffffff\n      dup2\n      gt\n      iszero\n      tag_28\n      jumpi\n      tag_29\n      tag_20\n      jump\t// in\n    tag_29:\n    tag_28:\n      mload(0x40)\n      swap1\n      dup1\n      dup3\n      mstore\n      dup1\n      0x20\n      mul\n      0x20\n      add\n      dup3\n      add\n      0x40\n      mstore\n      dup1\n      iszero\n      tag_30\n      jumpi\n      dup2\n      0x20\n      add\n      0x20\n      dup3\n      mul\n      dup1\n      calldatasize\n      dup4\n      calldatacopy\n      dup1\n      dup3\n      add\n      swap2\n      pop\n      pop\n      swap1\n      pop\n    tag_30:\n      pop\n        /* \"SIMPLESWAP.sol\":1556:1579  path = new address[](3) */\n      swap1\n      pop\n        /* \"SIMPLESWAP.sol\":1597:1605  _tokenIn */\n      dup5\n        /* \"SIMPLESWAP.sol\":1587:1591  path */\n      dup2\n        /* \"SIMPLESWAP.sol\":1592:1593  0 */\n      0x00\n        /* \"SIMPLESWAP.sol\":1587:1594  path[0] */\n      dup2\n      mload\n      dup2\n      lt\n      tag_31\n      jumpi\n      tag_32\n      tag_24\n      jump\t// in\n    tag_32:\n    tag_31:\n      0x20\n      mul\n      0x20\n      add\n      add\n        /* \"SIMPLESWAP.sol\":1587:1605  path[0] = _tokenIn */\n      swap1\n      0xffffffffffffffffffffffffffffffffffffffff\n      and\n      swap1\n      dup2\n      0xffffffffffffffffffffffffffffffffffffffff\n      and\n      dup2\n      mstore\n      pop\n      pop\n        /* \"SIMPLESWAP.sol\":487:529  0xfFf9976782d46CC05630D1f6eBAb18b2324d6B14 */\n      0xfff9976782d46cc05630d1f6ebab18b2324d6b14\n        /* \"SIMPLESWAP.sol\":1613:1617  path */\n      dup2\n        /* \"SIMPLESWAP.sol\":1618:1619  1 */\n      0x01\n        /* \"SIMPLESWAP.sol\":1613:1620  path[1] */\n      dup2\n      mload\n      dup2\n      lt\n      tag_33\n      jumpi\n      tag_34\n      tag_24\n      jump\t// in\n    tag_34:\n    tag_33:\n      0x20\n      mul\n      0x20\n      add\n      add\n        /* \"SIMPLESWAP.sol\":1613:1627  path[1] = WETH */\n      swap1\n      0xffffffffffffffffffffffffffffffffffffffff\n      and\n      swap1\n      dup2\n      0xffffffffffffffffffffffffffffffffffffffff\n      and\n      dup2\n      mstore\n      pop\n      pop\n        /* \"SIMPLESWAP.sol\":1645:1654  _tokenOut */\n      dup4\n        /* \"SIMPLESWAP.sol\":1635:1639  path */\n      dup2\n        /* \"SIMPLESWAP.sol\":1640:1641  2 */\n      0x02\n        /* \"SIMPLESWAP.sol\":1635:1642  path[2] */\n      dup2\n      mload\n      dup2\n      lt\n      tag_35\n      jumpi\n      tag_36\n      tag_24\n      jump\t// in\n    tag_36:\n    tag_35:\n      0x20\n      mul\n      0x20\n      add\n      add\n        /* \"SIMPLESWAP.sol\":1635:1654  path[2] = _tokenOut */\n      swap1\n      0xffffffffffffffffffffffffffffffffffffffff\n      and\n      swap1\n      dup2\n      0xffffffffffffffffffffffffffffffffffffffff\n      and\n      dup2\n      mstore\n      pop\n      pop\n        /* \"SIMPLESWAP.sol\":1408:1661  if (_tokenIn == WETH || _tokenOut == WETH) {... */\n    tag_27:\n        /* \"SIMPLESWAP.sol\":1694:1721  uint[] memory amountOutMins */\n      0x00\n        /* \"SIMPLESWAP.sol\":308:350  0xC532a74256D3Db42D0Bf7a0400fEFDbad7694008 */\n      0xc532a74256d3db42d0bf7a0400fefdbad7694008\n        /* \"SIMPLESWAP.sol\":1730:1779  IUniswapV2Router(UNISWAP_V2_ROUTER).getAmountsOut */\n      0xffffffffffffffffffffffffffffffffffffffff\n      and\n      0xd06ca61f\n        /* \"SIMPLESWAP.sol\":1780:1789  _amountIn */\n      dup6\n        /* \"SIMPLESWAP.sol\":1791:1795  path */\n      dup5\n        /* \"SIMPLESWAP.sol\":1730:1796  IUniswapV2Router(UNISWAP_V2_ROUTER).getAmountsOut(_amountIn, path) */\n      mload(0x40)\n      dup4\n      0xffffffff\n      and\n      0xe0\n      shl\n      dup2\n      mstore\n      0x04\n      add\n      tag_37\n      swap3\n      swap2\n      swap1\n      tag_38\n      jump\t// in\n    tag_37:\n      0x00\n      mload(0x40)\n      dup1\n      dup4\n      sub\n      dup2\n      dup7\n      gas\n      staticcall\n      iszero\n      dup1\n      iszero\n      tag_40\n      jumpi\n      returndatasize\n      0x00\n      dup1\n      returndatacopy\n      revert(0x00, returndatasize)\n    tag_40:\n      pop\n      pop\n      pop\n      pop\n      mload(0x40)\n      returndatasize\n      0x00\n      dup3\n      returndatacopy\n      returndatasize\n      not(0x1f)\n      0x1f\n      dup3\n      add\n      and\n      dup3\n      add\n      dup1\n      0x40\n      mstore\n      pop\n      dup2\n      add\n      swap1\n      tag_41\n      swap2\n      swap1\n      tag_42\n      jump\t// in\n    tag_41:\n        /* \"SIMPLESWAP.sol\":1694:1796  uint[] memory amountOutMins =... */\n      swap1\n      pop\n        /* \"SIMPLESWAP.sol\":1810:1823  amountOutMins */\n      dup1\n        /* \"SIMPLESWAP.sol\":1838:1839  1 */\n      0x01\n        /* \"SIMPLESWAP.sol\":1824:1828  path */\n      dup4\n        /* \"SIMPLESWAP.sol\":1824:1835  path.length */\n      mload\n        /* \"SIMPLESWAP.sol\":1824:1839  path.length - 1 */\n      tag_43\n      swap2\n      swap1\n      tag_44\n      jump\t// in\n    tag_43:\n        /* \"SIMPLESWAP.sol\":1810:1840  amountOutMins[path.length - 1] */\n      dup2\n      mload\n      dup2\n      lt\n      tag_45\n      jumpi\n      tag_46\n      tag_24\n      jump\t// in\n    tag_46:\n    tag_45:\n      0x20\n      mul\n      0x20\n      add\n      add\n      mload\n        /* \"SIMPLESWAP.sol\":1803:1840  return amountOutMins[path.length - 1] */\n      swap3\n      pop\n      pop\n      pop\n        /* \"SIMPLESWAP.sol\":1252:1845  function getAmountOutMin(... */\n      swap4\n      swap3\n      pop\n      pop\n      pop\n      jump\t// out\n        /* \"SIMPLESWAP.sol\":534:1248  function swap(... */\n    tag_14:\n        /* \"SIMPLESWAP.sol\":680:688  _tokenIn */\n      dup5\n        /* \"SIMPLESWAP.sol\":673:702  IERC20(_tokenIn).transferFrom */\n      0xffffffffffffffffffffffffffffffffffffffff\n      and\n      0x23b872dd\n        /* \"SIMPLESWAP.sol\":703:713  msg.sender */\n      caller\n        /* \"SIMPLESWAP.sol\":723:727  this */\n      address\n        /* \"SIMPLESWAP.sol\":730:739  _amountIn */\n      dup7\n        /* \"SIMPLESWAP.sol\":673:740  IERC20(_tokenIn).transferFrom(msg.sender, address(this), _amountIn) */\n      mload(0x40)\n      dup5\n      0xffffffff\n      and\n      0xe0\n      shl\n      dup2\n      mstore\n      0x04\n      add\n      tag_48\n      swap4\n      swap3\n      swap2\n      swap1\n      tag_49\n      jump\t// in\n    tag_48:\n      0x20\n      mload(0x40)\n      dup1\n      dup4\n      sub\n      dup2\n      0x00\n      dup8\n      gas\n      call\n      iszero\n      dup1\n      iszero\n      tag_51\n      jumpi\n      returndatasize\n      0x00\n      dup1\n      returndatacopy\n      revert(0x00, returndatasize)\n    tag_51:\n      pop\n      pop\n      pop\n      pop\n      mload(0x40)\n      returndatasize\n      not(0x1f)\n      0x1f\n      dup3\n      add\n      and\n      dup3\n      add\n      dup1\n      0x40\n      mstore\n      pop\n      dup2\n      add\n      swap1\n      tag_52\n      swap2\n      swap1\n      tag_53\n      jump\t// in\n    tag_52:\n      pop\n        /* \"SIMPLESWAP.sol\":753:761  _tokenIn */\n      dup5\n        /* \"SIMPLESWAP.sol\":746:770  IERC20(_tokenIn).approve */\n      0xffffffffffffffffffffffffffffffffffffffff\n      and\n      0x095ea7b3\n        /* \"SIMPLESWAP.sol\":308:350  0xC532a74256D3Db42D0Bf7a0400fEFDbad7694008 */\n      0xc532a74256d3db42d0bf7a0400fefdbad7694008\n        /* \"SIMPLESWAP.sol\":790:799  _amountIn */\n      dup6\n        /* \"SIMPLESWAP.sol\":746:800  IERC20(_tokenIn).approve(UNISWAP_V2_ROUTER, _amountIn) */\n      mload(0x40)\n      dup4\n      0xffffffff\n      and\n      0xe0\n      shl\n      dup2\n      mstore\n      0x04\n      add\n      tag_54\n      swap3\n      swap2\n      swap1\n      tag_55\n      jump\t// in\n    tag_54:\n      0x20\n      mload(0x40)\n      dup1\n      dup4\n      sub\n      dup2\n      0x00\n      dup8\n      gas\n      call\n      iszero\n      dup1\n      iszero\n      tag_57\n      jumpi\n      returndatasize\n      0x00\n      dup1\n      returndatacopy\n      revert(0x00, returndatasize)\n    tag_57:\n      pop\n      pop\n      pop\n      pop\n      mload(0x40)\n      returndatasize\n      not(0x1f)\n      0x1f\n      dup3\n      add\n      and\n      dup3\n      add\n      dup1\n      0x40\n      mstore\n      pop\n      dup2\n      add\n      swap1\n      tag_58\n      swap2\n      swap1\n      tag_53\n      jump\t// in\n    tag_58:\n      pop\n        /* \"SIMPLESWAP.sol\":807:828  address[] memory path */\n      0x60\n        /* \"SIMPLESWAP.sol\":487:529  0xfFf9976782d46CC05630D1f6eBAb18b2324d6B14 */\n      0xfff9976782d46cc05630d1f6ebab18b2324d6b14\n        /* \"SIMPLESWAP.sol\":838:854  _tokenIn == WETH */\n      0xffffffffffffffffffffffffffffffffffffffff\n      and\n        /* \"SIMPLESWAP.sol\":838:846  _tokenIn */\n      dup7\n        /* \"SIMPLESWAP.sol\":838:854  _tokenIn == WETH */\n      0xffffffffffffffffffffffffffffffffffffffff\n      and\n      eq\n        /* \"SIMPLESWAP.sol\":838:875  _tokenIn == WETH || _tokenOut == WETH */\n      dup1\n      tag_59\n      jumpi\n      pop\n        /* \"SIMPLESWAP.sol\":487:529  0xfFf9976782d46CC05630D1f6eBAb18b2324d6B14 */\n      0xfff9976782d46cc05630d1f6ebab18b2324d6b14\n        /* \"SIMPLESWAP.sol\":858:875  _tokenOut == WETH */\n      0xffffffffffffffffffffffffffffffffffffffff\n      and\n        /* \"SIMPLESWAP.sol\":858:867  _tokenOut */\n      dup6\n        /* \"SIMPLESWAP.sol\":858:875  _tokenOut == WETH */\n      0xffffffffffffffffffffffffffffffffffffffff\n      and\n      eq\n        /* \"SIMPLESWAP.sol\":838:875  _tokenIn == WETH || _tokenOut == WETH */\n    tag_59:\n        /* \"SIMPLESWAP.sol\":834:1087  if (_tokenIn == WETH || _tokenOut == WETH) {... */\n      iszero\n      tag_60\n      jumpi\n        /* \"SIMPLESWAP.sol\":906:907  2 */\n      0x02\n        /* \"SIMPLESWAP.sol\":892:908  new address[](2) */\n      0xffffffffffffffff\n      dup2\n      gt\n      iszero\n      tag_61\n      jumpi\n      tag_62\n      tag_20\n      jump\t// in\n    tag_62:\n    tag_61:\n      mload(0x40)\n      swap1\n      dup1\n      dup3\n      mstore\n      dup1\n      0x20\n      mul\n      0x20\n      add\n      dup3\n      add\n      0x40\n      mstore\n      dup1\n      iszero\n      tag_63\n      jumpi\n      dup2\n      0x20\n      add\n      0x20\n      dup3\n      mul\n      dup1\n      calldatasize\n      dup4\n      calldatacopy\n      dup1\n      dup3\n      add\n      swap2\n      pop\n      pop\n      swap1\n      pop\n    tag_63:\n      pop\n        /* \"SIMPLESWAP.sol\":885:908  path = new address[](2) */\n      swap1\n      pop\n        /* \"SIMPLESWAP.sol\":926:934  _tokenIn */\n      dup6\n        /* \"SIMPLESWAP.sol\":916:920  path */\n      dup2\n        /* \"SIMPLESWAP.sol\":921:922  0 */\n      0x00\n        /* \"SIMPLESWAP.sol\":916:923  path[0] */\n      dup2\n      mload\n      dup2\n      lt\n      tag_64\n      jumpi\n      tag_65\n      tag_24\n      jump\t// in\n    tag_65:\n    tag_64:\n      0x20\n      mul\n      0x20\n      add\n      add\n        /* \"SIMPLESWAP.sol\":916:934  path[0] = _tokenIn */\n      swap1\n      0xffffffffffffffffffffffffffffffffffffffff\n      and\n      swap1\n      dup2\n      0xffffffffffffffffffffffffffffffffffffffff\n      and\n      dup2\n      mstore\n      pop\n      pop\n        /* \"SIMPLESWAP.sol\":952:961  _tokenOut */\n      dup5\n        /* \"SIMPLESWAP.sol\":942:946  path */\n      dup2\n        /* \"SIMPLESWAP.sol\":947:948  1 */\n      0x01\n        /* \"SIMPLESWAP.sol\":942:949  path[1] */\n      dup2\n      mload\n      dup2\n      lt\n      tag_66\n      jumpi\n      tag_67\n      tag_24\n      jump\t// in\n    tag_67:\n    tag_66:\n      0x20\n      mul\n      0x20\n      add\n      add\n        /* \"SIMPLESWAP.sol\":942:961  path[1] = _tokenOut */\n      swap1\n      0xffffffffffffffffffffffffffffffffffffffff\n      and\n      swap1\n      dup2\n      0xffffffffffffffffffffffffffffffffffffffff\n      and\n      dup2\n      mstore\n      pop\n      pop\n        /* \"SIMPLESWAP.sol\":834:1087  if (_tokenIn == WETH || _tokenOut == WETH) {... */\n      jump(tag_68)\n    tag_60:\n        /* \"SIMPLESWAP.sol\":1003:1004  3 */\n      0x03\n        /* \"SIMPLESWAP.sol\":989:1005  new address[](3) */\n      0xffffffffffffffff\n      dup2\n      gt\n      iszero\n      tag_69\n      jumpi\n      tag_70\n      tag_20\n      jump\t// in\n    tag_70:\n    tag_69:\n      mload(0x40)\n      swap1\n      dup1\n      dup3\n      mstore\n      dup1\n      0x20\n      mul\n      0x20\n      add\n      dup3\n      add\n      0x40\n      mstore\n      dup1\n      iszero\n      tag_71\n      jumpi\n      dup2\n      0x20\n      add\n      0x20\n      dup3\n      mul\n      dup1\n      calldatasize\n      dup4\n      calldatacopy\n      dup1\n      dup3\n      add\n      swap2\n      pop\n      pop\n      swap1\n      pop\n    tag_71:\n      pop\n        /* \"SIMPLESWAP.sol\":982:1005  path = new address[](3) */\n      swap1\n      pop\n        /* \"SIMPLESWAP.sol\":1023:1031  _tokenIn */\n      dup6\n        /* \"SIMPLESWAP.sol\":1013:1017  path */\n      dup2\n        /* \"SIMPLESWAP.sol\":1018:1019  0 */\n      0x00\n        /* \"SIMPLESWAP.sol\":1013:1020  path[0] */\n      dup2\n      mload\n      dup2\n      lt\n      tag_72\n      jumpi\n      tag_73\n      tag_24\n      jump\t// in\n    tag_73:\n    tag_72:\n      0x20\n      mul\n      0x20\n      add\n      add\n        /* \"SIMPLESWAP.sol\":1013:1031  path[0] = _tokenIn */\n      swap1\n      0xffffffffffffffffffffffffffffffffffffffff\n      and\n      swap1\n      dup2\n      0xffffffffffffffffffffffffffffffffffffffff\n      and\n      dup2\n      mstore\n      pop\n      pop\n        /* \"SIMPLESWAP.sol\":487:529  0xfFf9976782d46CC05630D1f6eBAb18b2324d6B14 */\n      0xfff9976782d46cc05630d1f6ebab18b2324d6b14\n        /* \"SIMPLESWAP.sol\":1039:1043  path */\n      dup2\n        /* \"SIMPLESWAP.sol\":1044:1045  1 */\n      0x01\n        /* \"SIMPLESWAP.sol\":1039:1046  path[1] */\n      dup2\n      mload\n      dup2\n      lt\n      tag_74\n      jumpi\n      tag_75\n      tag_24\n      jump\t// in\n    tag_75:\n    tag_74:\n      0x20\n      mul\n      0x20\n      add\n      add\n        /* \"SIMPLESWAP.sol\":1039:1053  path[1] = WETH */\n      swap1\n      0xffffffffffffffffffffffffffffffffffffffff\n      and\n      swap1\n      dup2\n      0xffffffffffffffffffffffffffffffffffffffff\n      and\n      dup2\n      mstore\n      pop\n      pop\n        /* \"SIMPLESWAP.sol\":1071:1080  _tokenOut */\n      dup5\n        /* \"SIMPLESWAP.sol\":1061:1065  path */\n      dup2\n        /* \"SIMPLESWAP.sol\":1066:1067  2 */\n      0x02\n        /* \"SIMPLESWAP.sol\":1061:1068  path[2] */\n      dup2\n      mload\n      dup2\n      lt\n      tag_76\n      jumpi\n      tag_77\n      tag_24\n      jump\t// in\n    tag_77:\n    tag_76:\n      0x20\n      mul\n      0x20\n      add\n      add\n        /* \"SIMPLESWAP.sol\":1061:1080  path[2] = _tokenOut */\n      swap1\n      0xffffffffffffffffffffffffffffffffffffffff\n      and\n      swap1\n      dup2\n      0xffffffffffffffffffffffffffffffffffffffff\n      and\n      dup2\n      mstore\n      pop\n      pop\n        /* \"SIMPLESWAP.sol\":834:1087  if (_tokenIn == WETH || _tokenOut == WETH) {... */\n    tag_68:\n        /* \"SIMPLESWAP.sol\":308:350  0xC532a74256D3Db42D0Bf7a0400fEFDbad7694008 */\n      0xc532a74256d3db42d0bf7a0400fefdbad7694008\n        /* \"SIMPLESWAP.sol\":1093:1153  IUniswapV2Router(UNISWAP_V2_ROUTER).swapExactTokensForTokens */\n      0xffffffffffffffffffffffffffffffffffffffff\n      and\n      0x38ed1739\n        /* \"SIMPLESWAP.sol\":1161:1170  _amountIn */\n      dup6\n        /* \"SIMPLESWAP.sol\":1178:1191  _amountOutMin */\n      dup6\n        /* \"SIMPLESWAP.sol\":1199:1203  path */\n      dup5\n        /* \"SIMPLESWAP.sol\":1211:1214  _to */\n      dup7\n        /* \"SIMPLESWAP.sol\":1222:1237  block.timestamp */\n      timestamp\n        /* \"SIMPLESWAP.sol\":1093:1243  IUniswapV2Router(UNISWAP_V2_ROUTER).swapExactTokensForTokens(... */\n      mload(0x40)\n      dup7\n      0xffffffff\n      and\n      0xe0\n      shl\n      dup2\n      mstore\n      0x04\n      add\n      tag_78\n      swap6\n      swap5\n      swap4\n      swap3\n      swap2\n      swap1\n      tag_79\n      jump\t// in\n    tag_78:\n      0x00\n      mload(0x40)\n      dup1\n      dup4\n      sub\n      dup2\n      0x00\n      dup8\n      gas\n      call\n      iszero\n      dup1\n      iszero\n      tag_81\n      jumpi\n      returndatasize\n      0x00\n      dup1\n      returndatacopy\n      revert(0x00, returndatasize)\n    tag_81:\n      pop\n      pop\n      pop\n      pop\n      mload(0x40)\n      returndatasize\n      0x00\n      dup3\n      returndatacopy\n      returndatasize\n      not(0x1f)\n      0x1f\n      dup3\n      add\n      and\n      dup3\n      add\n      dup1\n      0x40\n      mstore\n      pop\n      dup2\n      add\n      swap1\n      tag_82\n      swap2\n      swap1\n      tag_42\n      jump\t// in\n    tag_82:\n      pop\n        /* \"SIMPLESWAP.sol\":667:1248  {... */\n      pop\n        /* \"SIMPLESWAP.sol\":534:1248  function swap(... */\n      pop\n      pop\n      pop\n      pop\n      pop\n      jump\t// out\n        /* \"#utility.yul\":7:82   */\n    tag_83:\n        /* \"#utility.yul\":40:46   */\n      0x00\n        /* \"#utility.yul\":73:75   */\n      0x40\n        /* \"#utility.yul\":67:76   */\n      mload\n        /* \"#utility.yul\":57:76   */\n      swap1\n      pop\n        /* \"#utility.yul\":7:82   */\n      swap1\n      jump\t// out\n        /* \"#utility.yul\":88:205   */\n    tag_84:\n        /* \"#utility.yul\":197:198   */\n      0x00\n        /* \"#utility.yul\":194:195   */\n      dup1\n        /* \"#utility.yul\":187:199   */\n      revert\n        /* \"#utility.yul\":211:328   */\n    tag_85:\n        /* \"#utility.yul\":320:321   */\n      0x00\n        /* \"#utility.yul\":317:318   */\n      dup1\n        /* \"#utility.yul\":310:322   */\n      revert\n        /* \"#utility.yul\":334:460   */\n    tag_86:\n        /* \"#utility.yul\":371:378   */\n      0x00\n        /* \"#utility.yul\":411:453   */\n      0xffffffffffffffffffffffffffffffffffffffff\n        /* \"#utility.yul\":404:409   */\n      dup3\n        /* \"#utility.yul\":400:454   */\n      and\n        /* \"#utility.yul\":389:454   */\n      swap1\n      pop\n        /* \"#utility.yul\":334:460   */\n      swap2\n      swap1\n      pop\n      jump\t// out\n        /* \"#utility.yul\":466:562   */\n    tag_87:\n        /* \"#utility.yul\":503:510   */\n      0x00\n        /* \"#utility.yul\":532:556   */\n      tag_121\n        /* \"#utility.yul\":550:555   */\n      dup3\n        /* \"#utility.yul\":532:556   */\n      tag_86\n      jump\t// in\n    tag_121:\n        /* \"#utility.yul\":521:556   */\n      swap1\n      pop\n        /* \"#utility.yul\":466:562   */\n      swap2\n      swap1\n      pop\n      jump\t// out\n        /* \"#utility.yul\":568:690   */\n    tag_88:\n        /* \"#utility.yul\":641:665   */\n      tag_123\n        /* \"#utility.yul\":659:664   */\n      dup2\n        /* \"#utility.yul\":641:665   */\n      tag_87\n      jump\t// in\n    tag_123:\n        /* \"#utility.yul\":634:639   */\n      dup2\n        /* \"#utility.yul\":631:666   */\n      eq\n        /* \"#utility.yul\":621:684   */\n      tag_124\n      jumpi\n        /* \"#utility.yul\":680:681   */\n      0x00\n        /* \"#utility.yul\":677:678   */\n      dup1\n        /* \"#utility.yul\":670:682   */\n      revert\n        /* \"#utility.yul\":621:684   */\n    tag_124:\n        /* \"#utility.yul\":568:690   */\n      pop\n      jump\t// out\n        /* \"#utility.yul\":696:835   */\n    tag_89:\n        /* \"#utility.yul\":742:747   */\n      0x00\n        /* \"#utility.yul\":780:786   */\n      dup2\n        /* \"#utility.yul\":767:787   */\n      calldataload\n        /* \"#utility.yul\":758:787   */\n      swap1\n      pop\n        /* \"#utility.yul\":796:829   */\n      tag_126\n        /* \"#utility.yul\":823:828   */\n      dup2\n        /* \"#utility.yul\":796:829   */\n      tag_88\n      jump\t// in\n    tag_126:\n        /* \"#utility.yul\":696:835   */\n      swap3\n      swap2\n      pop\n      pop\n      jump\t// out\n        /* \"#utility.yul\":841:918   */\n    tag_90:\n        /* \"#utility.yul\":878:885   */\n      0x00\n        /* \"#utility.yul\":907:912   */\n      dup2\n        /* \"#utility.yul\":896:912   */\n      swap1\n      pop\n        /* \"#utility.yul\":841:918   */\n      swap2\n      swap1\n      pop\n      jump\t// out\n        /* \"#utility.yul\":924:1046   */\n    tag_91:\n        /* \"#utility.yul\":997:1021   */\n      tag_129\n        /* \"#utility.yul\":1015:1020   */\n      dup2\n        /* \"#utility.yul\":997:1021   */\n      tag_90\n      jump\t// in\n    tag_129:\n        /* \"#utility.yul\":990:995   */\n      dup2\n        /* \"#utility.yul\":987:1022   */\n      eq\n        /* \"#utility.yul\":977:1040   */\n      tag_130\n      jumpi\n        /* \"#utility.yul\":1036:1037   */\n      0x00\n        /* \"#utility.yul\":1033:1034   */\n      dup1\n        /* \"#utility.yul\":1026:1038   */\n      revert\n        /* \"#utility.yul\":977:1040   */\n    tag_130:\n        /* \"#utility.yul\":924:1046   */\n      pop\n      jump\t// out\n        /* \"#utility.yul\":1052:1191   */\n    tag_92:\n        /* \"#utility.yul\":1098:1103   */\n      0x00\n        /* \"#utility.yul\":1136:1142   */\n      dup2\n        /* \"#utility.yul\":1123:1143   */\n      calldataload\n        /* \"#utility.yul\":1114:1143   */\n      swap1\n      pop\n        /* \"#utility.yul\":1152:1185   */\n      tag_132\n        /* \"#utility.yul\":1179:1184   */\n      dup2\n        /* \"#utility.yul\":1152:1185   */\n      tag_91\n      jump\t// in\n    tag_132:\n        /* \"#utility.yul\":1052:1191   */\n      swap3\n      swap2\n      pop\n      pop\n      jump\t// out\n        /* \"#utility.yul\":1197:1816   */\n    tag_7:\n        /* \"#utility.yul\":1274:1280   */\n      0x00\n        /* \"#utility.yul\":1282:1288   */\n      dup1\n        /* \"#utility.yul\":1290:1296   */\n      0x00\n        /* \"#utility.yul\":1339:1341   */\n      0x60\n        /* \"#utility.yul\":1327:1336   */\n      dup5\n        /* \"#utility.yul\":1318:1325   */\n      dup7\n        /* \"#utility.yul\":1314:1337   */\n      sub\n        /* \"#utility.yul\":1310:1342   */\n      slt\n        /* \"#utility.yul\":1307:1426   */\n      iszero\n      tag_134\n      jumpi\n        /* \"#utility.yul\":1345:1424   */\n      tag_135\n      tag_84\n      jump\t// in\n    tag_135:\n        /* \"#utility.yul\":1307:1426   */\n    tag_134:\n        /* \"#utility.yul\":1465:1466   */\n      0x00\n        /* \"#utility.yul\":1490:1543   */\n      tag_136\n        /* \"#utility.yul\":1535:1542   */\n      dup7\n        /* \"#utility.yul\":1526:1532   */\n      dup3\n        /* \"#utility.yul\":1515:1524   */\n      dup8\n        /* \"#utility.yul\":1511:1533   */\n      add\n        /* \"#utility.yul\":1490:1543   */\n      tag_89\n      jump\t// in\n    tag_136:\n        /* \"#utility.yul\":1480:1543   */\n      swap4\n      pop\n        /* \"#utility.yul\":1436:1553   */\n      pop\n        /* \"#utility.yul\":1592:1594   */\n      0x20\n        /* \"#utility.yul\":1618:1671   */\n      tag_137\n        /* \"#utility.yul\":1663:1670   */\n      dup7\n        /* \"#utility.yul\":1654:1660   */\n      dup3\n        /* \"#utility.yul\":1643:1652   */\n      dup8\n        /* \"#utility.yul\":1639:1661   */\n      add\n        /* \"#utility.yul\":1618:1671   */\n      tag_89\n      jump\t// in\n    tag_137:\n        /* \"#utility.yul\":1608:1671   */\n      swap3\n      pop\n        /* \"#utility.yul\":1563:1681   */\n      pop\n        /* \"#utility.yul\":1720:1722   */\n      0x40\n        /* \"#utility.yul\":1746:1799   */\n      tag_138\n        /* \"#utility.yul\":1791:1798   */\n      dup7\n        /* \"#utility.yul\":1782:1788   */\n      dup3\n        /* \"#utility.yul\":1771:1780   */\n      dup8\n        /* \"#utility.yul\":1767:1789   */\n      add\n        /* \"#utility.yul\":1746:1799   */\n      tag_92\n      jump\t// in\n    tag_138:\n        /* \"#utility.yul\":1736:1799   */\n      swap2\n      pop\n        /* \"#utility.yul\":1691:1809   */\n      pop\n        /* \"#utility.yul\":1197:1816   */\n      swap3\n      pop\n      swap3\n      pop\n      swap3\n      jump\t// out\n        /* \"#utility.yul\":1822:1940   */\n    tag_93:\n        /* \"#utility.yul\":1909:1933   */\n      tag_140\n        /* \"#utility.yul\":1927:1932   */\n      dup2\n        /* \"#utility.yul\":1909:1933   */\n      tag_90\n      jump\t// in\n    tag_140:\n        /* \"#utility.yul\":1904:1907   */\n      dup3\n        /* \"#utility.yul\":1897:1934   */\n      mstore\n        /* \"#utility.yul\":1822:1940   */\n      pop\n      pop\n      jump\t// out\n        /* \"#utility.yul\":1946:2168   */\n    tag_10:\n        /* \"#utility.yul\":2039:2043   */\n      0x00\n        /* \"#utility.yul\":2077:2079   */\n      0x20\n        /* \"#utility.yul\":2066:2075   */\n      dup3\n        /* \"#utility.yul\":2062:2080   */\n      add\n        /* \"#utility.yul\":2054:2080   */\n      swap1\n      pop\n        /* \"#utility.yul\":2090:2161   */\n      tag_142\n        /* \"#utility.yul\":2158:2159   */\n      0x00\n        /* \"#utility.yul\":2147:2156   */\n      dup4\n        /* \"#utility.yul\":2143:2160   */\n      add\n        /* \"#utility.yul\":2134:2140   */\n      dup5\n        /* \"#utility.yul\":2090:2161   */\n      tag_93\n      jump\t// in\n    tag_142:\n        /* \"#utility.yul\":1946:2168   */\n      swap3\n      swap2\n      pop\n      pop\n      jump\t// out\n        /* \"#utility.yul\":2174:3085   */\n    tag_13:\n        /* \"#utility.yul\":2269:2275   */\n      0x00\n        /* \"#utility.yul\":2277:2283   */\n      dup1\n        /* \"#utility.yul\":2285:2291   */\n      0x00\n        /* \"#utility.yul\":2293:2299   */\n      dup1\n        /* \"#utility.yul\":2301:2307   */\n      0x00\n        /* \"#utility.yul\":2350:2353   */\n      0xa0\n        /* \"#utility.yul\":2338:2347   */\n      dup7\n        /* \"#utility.yul\":2329:2336   */\n      dup9\n        /* \"#utility.yul\":2325:2348   */\n      sub\n        /* \"#utility.yul\":2321:2354   */\n      slt\n        /* \"#utility.yul\":2318:2438   */\n      iszero\n      tag_144\n      jumpi\n        /* \"#utility.yul\":2357:2436   */\n      tag_145\n      tag_84\n      jump\t// in\n    tag_145:\n        /* \"#utility.yul\":2318:2438   */\n    tag_144:\n        /* \"#utility.yul\":2477:2478   */\n      0x00\n        /* \"#utility.yul\":2502:2555   */\n      tag_146\n        /* \"#utility.yul\":2547:2554   */\n      dup9\n        /* \"#utility.yul\":2538:2544   */\n      dup3\n        /* \"#utility.yul\":2527:2536   */\n      dup10\n        /* \"#utility.yul\":2523:2545   */\n      add\n        /* \"#utility.yul\":2502:2555   */\n      tag_89\n      jump\t// in\n    tag_146:\n        /* \"#utility.yul\":2492:2555   */\n      swap6\n      pop\n        /* \"#utility.yul\":2448:2565   */\n      pop\n        /* \"#utility.yul\":2604:2606   */\n      0x20\n        /* \"#utility.yul\":2630:2683   */\n      tag_147\n        /* \"#utility.yul\":2675:2682   */\n      dup9\n        /* \"#utility.yul\":2666:2672   */\n      dup3\n        /* \"#utility.yul\":2655:2664   */\n      dup10\n        /* \"#utility.yul\":2651:2673   */\n      add\n        /* \"#utility.yul\":2630:2683   */\n      tag_89\n      jump\t// in\n    tag_147:\n        /* \"#utility.yul\":2620:2683   */\n      swap5\n      pop\n        /* \"#utility.yul\":2575:2693   */\n      pop\n        /* \"#utility.yul\":2732:2734   */\n      0x40\n        /* \"#utility.yul\":2758:2811   */\n      tag_148\n        /* \"#utility.yul\":2803:2810   */\n      dup9\n        /* \"#utility.yul\":2794:2800   */\n      dup3\n        /* \"#utility.yul\":2783:2792   */\n      dup10\n        /* \"#utility.yul\":2779:2801   */\n      add\n        /* \"#utility.yul\":2758:2811   */\n      tag_92\n      jump\t// in\n    tag_148:\n        /* \"#utility.yul\":2748:2811   */\n      swap4\n      pop\n        /* \"#utility.yul\":2703:2821   */\n      pop\n        /* \"#utility.yul\":2860:2862   */\n      0x60\n        /* \"#utility.yul\":2886:2939   */\n      tag_149\n        /* \"#utility.yul\":2931:2938   */\n      dup9\n        /* \"#utility.yul\":2922:2928   */\n      dup3\n        /* \"#utility.yul\":2911:2920   */\n      dup10\n        /* \"#utility.yul\":2907:2929   */\n      add\n        /* \"#utility.yul\":2886:2939   */\n      tag_92\n      jump\t// in\n    tag_149:\n        /* \"#utility.yul\":2876:2939   */\n      swap3\n      pop\n        /* \"#utility.yul\":2831:2949   */\n      pop\n        /* \"#utility.yul\":2988:2991   */\n      0x80\n        /* \"#utility.yul\":3015:3068   */\n      tag_150\n        /* \"#utility.yul\":3060:3067   */\n      dup9\n        /* \"#utility.yul\":3051:3057   */\n      dup3\n        /* \"#utility.yul\":3040:3049   */\n      dup10\n        /* \"#utility.yul\":3036:3058   */\n      add\n        /* \"#utility.yul\":3015:3068   */\n      tag_89\n      jump\t// in\n    tag_150:\n        /* \"#utility.yul\":3005:3068   */\n      swap2\n      pop\n        /* \"#utility.yul\":2959:3078   */\n      pop\n        /* \"#utility.yul\":2174:3085   */\n      swap3\n      swap6\n      pop\n      swap3\n      swap6\n      swap1\n      swap4\n      pop\n      jump\t// out\n        /* \"#utility.yul\":3091:3271   */\n    tag_20:\n        /* \"#utility.yul\":3139:3216   */\n      0x4e487b7100000000000000000000000000000000000000000000000000000000\n        /* \"#utility.yul\":3136:3137   */\n      0x00\n        /* \"#utility.yul\":3129:3217   */\n      mstore\n        /* \"#utility.yul\":3236:3240   */\n      0x41\n        /* \"#utility.yul\":3233:3234   */\n      0x04\n        /* \"#utility.yul\":3226:3241   */\n      mstore\n        /* \"#utility.yul\":3260:3264   */\n      0x24\n        /* \"#utility.yul\":3257:3258   */\n      0x00\n        /* \"#utility.yul\":3250:3265   */\n      revert\n        /* \"#utility.yul\":3277:3457   */\n    tag_24:\n        /* \"#utility.yul\":3325:3402   */\n      0x4e487b7100000000000000000000000000000000000000000000000000000000\n        /* \"#utility.yul\":3322:3323   */\n      0x00\n        /* \"#utility.yul\":3315:3403   */\n      mstore\n        /* \"#utility.yul\":3422:3426   */\n      0x32\n        /* \"#utility.yul\":3419:3420   */\n      0x04\n        /* \"#utility.yul\":3412:3427   */\n      mstore\n        /* \"#utility.yul\":3446:3450   */\n      0x24\n        /* \"#utility.yul\":3443:3444   */\n      0x00\n        /* \"#utility.yul\":3436:3451   */\n      revert\n        /* \"#utility.yul\":3463:3577   */\n    tag_94:\n        /* \"#utility.yul\":3530:3536   */\n      0x00\n        /* \"#utility.yul\":3564:3569   */\n      dup2\n        /* \"#utility.yul\":3558:3570   */\n      mload\n        /* \"#utility.yul\":3548:3570   */\n      swap1\n      pop\n        /* \"#utility.yul\":3463:3577   */\n      swap2\n      swap1\n      pop\n      jump\t// out\n        /* \"#utility.yul\":3583:3767   */\n    tag_95:\n        /* \"#utility.yul\":3682:3693   */\n      0x00\n        /* \"#utility.yul\":3716:3722   */\n      dup3\n        /* \"#utility.yul\":3711:3714   */\n      dup3\n        /* \"#utility.yul\":3704:3723   */\n      mstore\n        /* \"#utility.yul\":3756:3760   */\n      0x20\n        /* \"#utility.yul\":3751:3754   */\n      dup3\n        /* \"#utility.yul\":3747:3761   */\n      add\n        /* \"#utility.yul\":3732:3761   */\n      swap1\n      pop\n        /* \"#utility.yul\":3583:3767   */\n      swap3\n      swap2\n      pop\n      pop\n      jump\t// out\n        /* \"#utility.yul\":3773:3905   */\n    tag_96:\n        /* \"#utility.yul\":3840:3844   */\n      0x00\n        /* \"#utility.yul\":3863:3866   */\n      dup2\n        /* \"#utility.yul\":3855:3866   */\n      swap1\n      pop\n        /* \"#utility.yul\":3893:3897   */\n      0x20\n        /* \"#utility.yul\":3888:3891   */\n      dup3\n        /* \"#utility.yul\":3884:3898   */\n      add\n        /* \"#utility.yul\":3876:3898   */\n      swap1\n      pop\n        /* \"#utility.yul\":3773:3905   */\n      swap2\n      swap1\n      pop\n      jump\t// out\n        /* \"#utility.yul\":3911:4019   */\n    tag_97:\n        /* \"#utility.yul\":3988:4012   */\n      tag_157\n        /* \"#utility.yul\":4006:4011   */\n      dup2\n        /* \"#utility.yul\":3988:4012   */\n      tag_87\n      jump\t// in\n    tag_157:\n        /* \"#utility.yul\":3983:3986   */\n      dup3\n        /* \"#utility.yul\":3976:4013   */\n      mstore\n        /* \"#utility.yul\":3911:4019   */\n      pop\n      pop\n      jump\t// out\n        /* \"#utility.yul\":4025:4204   */\n    tag_98:\n        /* \"#utility.yul\":4094:4104   */\n      0x00\n        /* \"#utility.yul\":4115:4161   */\n      tag_159\n        /* \"#utility.yul\":4157:4160   */\n      dup4\n        /* \"#utility.yul\":4149:4155   */\n      dup4\n        /* \"#utility.yul\":4115:4161   */\n      tag_97\n      jump\t// in\n    tag_159:\n        /* \"#utility.yul\":4193:4197   */\n      0x20\n        /* \"#utility.yul\":4188:4191   */\n      dup4\n        /* \"#utility.yul\":4184:4198   */\n      add\n        /* \"#utility.yul\":4170:4198   */\n      swap1\n      pop\n        /* \"#utility.yul\":4025:4204   */\n      swap3\n      swap2\n      pop\n      pop\n      jump\t// out\n        /* \"#utility.yul\":4210:4323   */\n    tag_99:\n        /* \"#utility.yul\":4280:4284   */\n      0x00\n        /* \"#utility.yul\":4312:4316   */\n      0x20\n        /* \"#utility.yul\":4307:4310   */\n      dup3\n        /* \"#utility.yul\":4303:4317   */\n      add\n        /* \"#utility.yul\":4295:4317   */\n      swap1\n      pop\n        /* \"#utility.yul\":4210:4323   */\n      swap2\n      swap1\n      pop\n      jump\t// out\n        /* \"#utility.yul\":4359:5091   */\n    tag_100:\n        /* \"#utility.yul\":4478:4481   */\n      0x00\n        /* \"#utility.yul\":4507:4561   */\n      tag_162\n        /* \"#utility.yul\":4555:4560   */\n      dup3\n        /* \"#utility.yul\":4507:4561   */\n      tag_94\n      jump\t// in\n    tag_162:\n        /* \"#utility.yul\":4577:4663   */\n      tag_163\n        /* \"#utility.yul\":4656:4662   */\n      dup2\n        /* \"#utility.yul\":4651:4654   */\n      dup6\n        /* \"#utility.yul\":4577:4663   */\n      tag_95\n      jump\t// in\n    tag_163:\n        /* \"#utility.yul\":4570:4663   */\n      swap4\n      pop\n        /* \"#utility.yul\":4687:4743   */\n      tag_164\n        /* \"#utility.yul\":4737:4742   */\n      dup4\n        /* \"#utility.yul\":4687:4743   */\n      tag_96\n      jump\t// in\n    tag_164:\n        /* \"#utility.yul\":4766:4773   */\n      dup1\n        /* \"#utility.yul\":4797:4798   */\n      0x00\n        /* \"#utility.yul\":4782:5066   */\n    tag_165:\n        /* \"#utility.yul\":4807:4813   */\n      dup4\n        /* \"#utility.yul\":4804:4805   */\n      dup2\n        /* \"#utility.yul\":4801:4814   */\n      lt\n        /* \"#utility.yul\":4782:5066   */\n      iszero\n      tag_167\n      jumpi\n        /* \"#utility.yul\":4883:4889   */\n      dup2\n        /* \"#utility.yul\":4877:4890   */\n      mload\n        /* \"#utility.yul\":4910:4973   */\n      tag_168\n        /* \"#utility.yul\":4969:4972   */\n      dup9\n        /* \"#utility.yul\":4954:4967   */\n      dup3\n        /* \"#utility.yul\":4910:4973   */\n      tag_98\n      jump\t// in\n    tag_168:\n        /* \"#utility.yul\":4903:4973   */\n      swap8\n      pop\n        /* \"#utility.yul\":4996:5056   */\n      tag_169\n        /* \"#utility.yul\":5049:5055   */\n      dup4\n        /* \"#utility.yul\":4996:5056   */\n      tag_99\n      jump\t// in\n    tag_169:\n        /* \"#utility.yul\":4986:5056   */\n      swap3\n      pop\n        /* \"#utility.yul\":4842:5066   */\n      pop\n        /* \"#utility.yul\":4829:4830   */\n      0x01\n        /* \"#utility.yul\":4826:4827   */\n      dup2\n        /* \"#utility.yul\":4822:4831   */\n      add\n        /* \"#utility.yul\":4817:4831   */\n      swap1\n      pop\n        /* \"#utility.yul\":4782:5066   */\n      jump(tag_165)\n    tag_167:\n        /* \"#utility.yul\":4786:4800   */\n      pop\n        /* \"#utility.yul\":5082:5085   */\n      dup6\n        /* \"#utility.yul\":5075:5085   */\n      swap4\n      pop\n        /* \"#utility.yul\":4483:5091   */\n      pop\n      pop\n      pop\n        /* \"#utility.yul\":4359:5091   */\n      swap3\n      swap2\n      pop\n      pop\n      jump\t// out\n        /* \"#utility.yul\":5097:5580   */\n    tag_38:\n        /* \"#utility.yul\":5268:5272   */\n      0x00\n        /* \"#utility.yul\":5306:5308   */\n      0x40\n        /* \"#utility.yul\":5295:5304   */\n      dup3\n        /* \"#utility.yul\":5291:5309   */\n      add\n        /* \"#utility.yul\":5283:5309   */\n      swap1\n      pop\n        /* \"#utility.yul\":5319:5390   */\n      tag_171\n        /* \"#utility.yul\":5387:5388   */\n      0x00\n        /* \"#utility.yul\":5376:5385   */\n      dup4\n        /* \"#utility.yul\":5372:5389   */\n      add\n        /* \"#utility.yul\":5363:5369   */\n      dup6\n        /* \"#utility.yul\":5319:5390   */\n      tag_93\n      jump\t// in\n    tag_171:\n        /* \"#utility.yul\":5437:5446   */\n      dup2\n        /* \"#utility.yul\":5431:5435   */\n      dup2\n        /* \"#utility.yul\":5427:5447   */\n      sub\n        /* \"#utility.yul\":5422:5424   */\n      0x20\n        /* \"#utility.yul\":5411:5420   */\n      dup4\n        /* \"#utility.yul\":5407:5425   */\n      add\n        /* \"#utility.yul\":5400:5448   */\n      mstore\n        /* \"#utility.yul\":5465:5573   */\n      tag_172\n        /* \"#utility.yul\":5568:5572   */\n      dup2\n        /* \"#utility.yul\":5559:5565   */\n      dup5\n        /* \"#utility.yul\":5465:5573   */\n      tag_100\n      jump\t// in\n    tag_172:\n        /* \"#utility.yul\":5457:5573   */\n      swap1\n      pop\n        /* \"#utility.yul\":5097:5580   */\n      swap4\n      swap3\n      pop\n      pop\n      pop\n      jump\t// out\n        /* \"#utility.yul\":5586:5703   */\n    tag_101:\n        /* \"#utility.yul\":5695:5696   */\n      0x00\n        /* \"#utility.yul\":5692:5693   */\n      dup1\n        /* \"#utility.yul\":5685:5697   */\n      revert\n        /* \"#utility.yul\":5709:5811   */\n    tag_102:\n        /* \"#utility.yul\":5750:5756   */\n      0x00\n        /* \"#utility.yul\":5801:5803   */\n      0x1f\n        /* \"#utility.yul\":5797:5804   */\n      not\n        /* \"#utility.yul\":5792:5794   */\n      0x1f\n        /* \"#utility.yul\":5785:5790   */\n      dup4\n        /* \"#utility.yul\":5781:5795   */\n      add\n        /* \"#utility.yul\":5777:5805   */\n      and\n        /* \"#utility.yul\":5767:5805   */\n      swap1\n      pop\n        /* \"#utility.yul\":5709:5811   */\n      swap2\n      swap1\n      pop\n      jump\t// out\n        /* \"#utility.yul\":5817:6098   */\n    tag_103:\n        /* \"#utility.yul\":5900:5927   */\n      tag_176\n        /* \"#utility.yul\":5922:5926   */\n      dup3\n        /* \"#utility.yul\":5900:5927   */\n      tag_102\n      jump\t// in\n    tag_176:\n        /* \"#utility.yul\":5892:5898   */\n      dup2\n        /* \"#utility.yul\":5888:5928   */\n      add\n        /* \"#utility.yul\":6030:6036   */\n      dup2\n        /* \"#utility.yul\":6018:6028   */\n      dup2\n        /* \"#utility.yul\":6015:6037   */\n      lt\n        /* \"#utility.yul\":5994:6012   */\n      0xffffffffffffffff\n        /* \"#utility.yul\":5982:5992   */\n      dup3\n        /* \"#utility.yul\":5979:6013   */\n      gt\n        /* \"#utility.yul\":5976:6038   */\n      or\n        /* \"#utility.yul\":5973:6061   */\n      iszero\n      tag_177\n      jumpi\n        /* \"#utility.yul\":6041:6059   */\n      tag_178\n      tag_20\n      jump\t// in\n    tag_178:\n        /* \"#utility.yul\":5973:6061   */\n    tag_177:\n        /* \"#utility.yul\":6081:6091   */\n      dup1\n        /* \"#utility.yul\":6077:6079   */\n      0x40\n        /* \"#utility.yul\":6070:6092   */\n      mstore\n        /* \"#utility.yul\":5860:6098   */\n      pop\n        /* \"#utility.yul\":5817:6098   */\n      pop\n      pop\n      jump\t// out\n        /* \"#utility.yul\":6104:6233   */\n    tag_104:\n        /* \"#utility.yul\":6138:6144   */\n      0x00\n        /* \"#utility.yul\":6165:6185   */\n      tag_180\n      tag_83\n      jump\t// in\n    tag_180:\n        /* \"#utility.yul\":6155:6185   */\n      swap1\n      pop\n        /* \"#utility.yul\":6194:6227   */\n      tag_181\n        /* \"#utility.yul\":6222:6226   */\n      dup3\n        /* \"#utility.yul\":6214:6220   */\n      dup3\n        /* \"#utility.yul\":6194:6227   */\n      tag_103\n      jump\t// in\n    tag_181:\n        /* \"#utility.yul\":6104:6233   */\n      swap2\n      swap1\n      pop\n      jump\t// out\n        /* \"#utility.yul\":6239:6550   */\n    tag_105:\n        /* \"#utility.yul\":6316:6320   */\n      0x00\n        /* \"#utility.yul\":6406:6424   */\n      0xffffffffffffffff\n        /* \"#utility.yul\":6398:6404   */\n      dup3\n        /* \"#utility.yul\":6395:6425   */\n      gt\n        /* \"#utility.yul\":6392:6448   */\n      iszero\n      tag_183\n      jumpi\n        /* \"#utility.yul\":6428:6446   */\n      tag_184\n      tag_20\n      jump\t// in\n    tag_184:\n        /* \"#utility.yul\":6392:6448   */\n    tag_183:\n        /* \"#utility.yul\":6478:6482   */\n      0x20\n        /* \"#utility.yul\":6470:6476   */\n      dup3\n        /* \"#utility.yul\":6466:6483   */\n      mul\n        /* \"#utility.yul\":6458:6483   */\n      swap1\n      pop\n        /* \"#utility.yul\":6538:6542   */\n      0x20\n        /* \"#utility.yul\":6532:6536   */\n      dup2\n        /* \"#utility.yul\":6528:6543   */\n      add\n        /* \"#utility.yul\":6520:6543   */\n      swap1\n      pop\n        /* \"#utility.yul\":6239:6550   */\n      swap2\n      swap1\n      pop\n      jump\t// out\n        /* \"#utility.yul\":6556:6673   */\n    tag_106:\n        /* \"#utility.yul\":6665:6666   */\n      0x00\n        /* \"#utility.yul\":6662:6663   */\n      dup1\n        /* \"#utility.yul\":6655:6667   */\n      revert\n        /* \"#utility.yul\":6679:6822   */\n    tag_107:\n        /* \"#utility.yul\":6736:6741   */\n      0x00\n        /* \"#utility.yul\":6767:6773   */\n      dup2\n        /* \"#utility.yul\":6761:6774   */\n      mload\n        /* \"#utility.yul\":6752:6774   */\n      swap1\n      pop\n        /* \"#utility.yul\":6783:6816   */\n      tag_187\n        /* \"#utility.yul\":6810:6815   */\n      dup2\n        /* \"#utility.yul\":6783:6816   */\n      tag_91\n      jump\t// in\n    tag_187:\n        /* \"#utility.yul\":6679:6822   */\n      swap3\n      swap2\n      pop\n      pop\n      jump\t// out\n        /* \"#utility.yul\":6845:7577   */\n    tag_108:\n        /* \"#utility.yul\":6952:6957   */\n      0x00\n        /* \"#utility.yul\":6977:7058   */\n      tag_189\n        /* \"#utility.yul\":6993:7057   */\n      tag_190\n        /* \"#utility.yul\":7050:7056   */\n      dup5\n        /* \"#utility.yul\":6993:7057   */\n      tag_105\n      jump\t// in\n    tag_190:\n        /* \"#utility.yul\":6977:7058   */\n      tag_104\n      jump\t// in\n    tag_189:\n        /* \"#utility.yul\":6968:7058   */\n      swap1\n      pop\n        /* \"#utility.yul\":7078:7083   */\n      dup1\n        /* \"#utility.yul\":7107:7113   */\n      dup4\n        /* \"#utility.yul\":7100:7105   */\n      dup3\n        /* \"#utility.yul\":7093:7114   */\n      mstore\n        /* \"#utility.yul\":7141:7145   */\n      0x20\n        /* \"#utility.yul\":7134:7139   */\n      dup3\n        /* \"#utility.yul\":7130:7146   */\n      add\n        /* \"#utility.yul\":7123:7146   */\n      swap1\n      pop\n        /* \"#utility.yul\":7194:7198   */\n      0x20\n        /* \"#utility.yul\":7186:7192   */\n      dup5\n        /* \"#utility.yul\":7182:7199   */\n      mul\n        /* \"#utility.yul\":7174:7180   */\n      dup4\n        /* \"#utility.yul\":7170:7200   */\n      add\n        /* \"#utility.yul\":7223:7226   */\n      dup6\n        /* \"#utility.yul\":7215:7221   */\n      dup2\n        /* \"#utility.yul\":7212:7227   */\n      gt\n        /* \"#utility.yul\":7209:7331   */\n      iszero\n      tag_191\n      jumpi\n        /* \"#utility.yul\":7242:7321   */\n      tag_192\n      tag_106\n      jump\t// in\n    tag_192:\n        /* \"#utility.yul\":7209:7331   */\n    tag_191:\n        /* \"#utility.yul\":7357:7363   */\n      dup4\n        /* \"#utility.yul\":7340:7571   */\n    tag_193:\n        /* \"#utility.yul\":7374:7380   */\n      dup2\n        /* \"#utility.yul\":7369:7372   */\n      dup2\n        /* \"#utility.yul\":7366:7381   */\n      lt\n        /* \"#utility.yul\":7340:7571   */\n      iszero\n      tag_195\n      jumpi\n        /* \"#utility.yul\":7449:7452   */\n      dup1\n        /* \"#utility.yul\":7478:7526   */\n      tag_196\n        /* \"#utility.yul\":7522:7525   */\n      dup9\n        /* \"#utility.yul\":7510:7520   */\n      dup3\n        /* \"#utility.yul\":7478:7526   */\n      tag_107\n      jump\t// in\n    tag_196:\n        /* \"#utility.yul\":7473:7476   */\n      dup5\n        /* \"#utility.yul\":7466:7527   */\n      mstore\n        /* \"#utility.yul\":7556:7560   */\n      0x20\n        /* \"#utility.yul\":7551:7554   */\n      dup5\n        /* \"#utility.yul\":7547:7561   */\n      add\n        /* \"#utility.yul\":7540:7561   */\n      swap4\n      pop\n        /* \"#utility.yul\":7416:7571   */\n      pop\n        /* \"#utility.yul\":7400:7404   */\n      0x20\n        /* \"#utility.yul\":7395:7398   */\n      dup2\n        /* \"#utility.yul\":7391:7405   */\n      add\n        /* \"#utility.yul\":7384:7405   */\n      swap1\n      pop\n        /* \"#utility.yul\":7340:7571   */\n      jump(tag_193)\n    tag_195:\n        /* \"#utility.yul\":7344:7365   */\n      pop\n        /* \"#utility.yul\":6958:7577   */\n      pop\n      pop\n        /* \"#utility.yul\":6845:7577   */\n      swap4\n      swap3\n      pop\n      pop\n      pop\n      jump\t// out\n        /* \"#utility.yul\":7600:7985   */\n    tag_109:\n        /* \"#utility.yul\":7682:7687   */\n      0x00\n        /* \"#utility.yul\":7731:7734   */\n      dup3\n        /* \"#utility.yul\":7724:7728   */\n      0x1f\n        /* \"#utility.yul\":7716:7722   */\n      dup4\n        /* \"#utility.yul\":7712:7729   */\n      add\n        /* \"#utility.yul\":7708:7735   */\n      slt\n        /* \"#utility.yul\":7698:7820   */\n      tag_198\n      jumpi\n        /* \"#utility.yul\":7739:7818   */\n      tag_199\n      tag_101\n      jump\t// in\n    tag_199:\n        /* \"#utility.yul\":7698:7820   */\n    tag_198:\n        /* \"#utility.yul\":7849:7855   */\n      dup2\n        /* \"#utility.yul\":7843:7856   */\n      mload\n        /* \"#utility.yul\":7874:7979   */\n      tag_200\n        /* \"#utility.yul\":7975:7978   */\n      dup5\n        /* \"#utility.yul\":7967:7973   */\n      dup3\n        /* \"#utility.yul\":7960:7964   */\n      0x20\n        /* \"#utility.yul\":7952:7958   */\n      dup7\n        /* \"#utility.yul\":7948:7965   */\n      add\n        /* \"#utility.yul\":7874:7979   */\n      tag_108\n      jump\t// in\n    tag_200:\n        /* \"#utility.yul\":7865:7979   */\n      swap2\n      pop\n        /* \"#utility.yul\":7688:7985   */\n      pop\n        /* \"#utility.yul\":7600:7985   */\n      swap3\n      swap2\n      pop\n      pop\n      jump\t// out\n        /* \"#utility.yul\":7991:8545   */\n    tag_42:\n        /* \"#utility.yul\":8086:8092   */\n      0x00\n        /* \"#utility.yul\":8135:8137   */\n      0x20\n        /* \"#utility.yul\":8123:8132   */\n      dup3\n        /* \"#utility.yul\":8114:8121   */\n      dup5\n        /* \"#utility.yul\":8110:8133   */\n      sub\n        /* \"#utility.yul\":8106:8138   */\n      slt\n        /* \"#utility.yul\":8103:8222   */\n      iszero\n      tag_202\n      jumpi\n        /* \"#utility.yul\":8141:8220   */\n      tag_203\n      tag_84\n      jump\t// in\n    tag_203:\n        /* \"#utility.yul\":8103:8222   */\n    tag_202:\n        /* \"#utility.yul\":8282:8283   */\n      0x00\n        /* \"#utility.yul\":8271:8280   */\n      dup3\n        /* \"#utility.yul\":8267:8284   */\n      add\n        /* \"#utility.yul\":8261:8285   */\n      mload\n        /* \"#utility.yul\":8312:8330   */\n      0xffffffffffffffff\n        /* \"#utility.yul\":8304:8310   */\n      dup2\n        /* \"#utility.yul\":8301:8331   */\n      gt\n        /* \"#utility.yul\":8298:8415   */\n      iszero\n      tag_204\n      jumpi\n        /* \"#utility.yul\":8334:8413   */\n      tag_205\n      tag_85\n      jump\t// in\n    tag_205:\n        /* \"#utility.yul\":8298:8415   */\n    tag_204:\n        /* \"#utility.yul\":8439:8528   */\n      tag_206\n        /* \"#utility.yul\":8520:8527   */\n      dup5\n        /* \"#utility.yul\":8511:8517   */\n      dup3\n        /* \"#utility.yul\":8500:8509   */\n      dup6\n        /* \"#utility.yul\":8496:8518   */\n      add\n        /* \"#utility.yul\":8439:8528   */\n      tag_109\n      jump\t// in\n    tag_206:\n        /* \"#utility.yul\":8429:8528   */\n      swap2\n      pop\n        /* \"#utility.yul\":8232:8538   */\n      pop\n        /* \"#utility.yul\":7991:8545   */\n      swap3\n      swap2\n      pop\n      pop\n      jump\t// out\n        /* \"#utility.yul\":8551:8731   */\n    tag_110:\n        /* \"#utility.yul\":8599:8676   */\n      0x4e487b7100000000000000000000000000000000000000000000000000000000\n        /* \"#utility.yul\":8596:8597   */\n      0x00\n        /* \"#utility.yul\":8589:8677   */\n      mstore\n        /* \"#utility.yul\":8696:8700   */\n      0x11\n        /* \"#utility.yul\":8693:8694   */\n      0x04\n        /* \"#utility.yul\":8686:8701   */\n      mstore\n        /* \"#utility.yul\":8720:8724   */\n      0x24\n        /* \"#utility.yul\":8717:8718   */\n      0x00\n        /* \"#utility.yul\":8710:8725   */\n      revert\n        /* \"#utility.yul\":8737:8928   */\n    tag_44:\n        /* \"#utility.yul\":8777:8781   */\n      0x00\n        /* \"#utility.yul\":8797:8817   */\n      tag_209\n        /* \"#utility.yul\":8815:8816   */\n      dup3\n        /* \"#utility.yul\":8797:8817   */\n      tag_90\n      jump\t// in\n    tag_209:\n        /* \"#utility.yul\":8792:8817   */\n      swap2\n      pop\n        /* \"#utility.yul\":8831:8851   */\n      tag_210\n        /* \"#utility.yul\":8849:8850   */\n      dup4\n        /* \"#utility.yul\":8831:8851   */\n      tag_90\n      jump\t// in\n    tag_210:\n        /* \"#utility.yul\":8826:8851   */\n      swap3\n      pop\n        /* \"#utility.yul\":8870:8871   */\n      dup3\n        /* \"#utility.yul\":8867:8868   */\n      dup3\n        /* \"#utility.yul\":8864:8872   */\n      lt\n        /* \"#utility.yul\":8861:8895   */\n      iszero\n      tag_211\n      jumpi\n        /* \"#utility.yul\":8875:8893   */\n      tag_212\n      tag_110\n      jump\t// in\n    tag_212:\n        /* \"#utility.yul\":8861:8895   */\n    tag_211:\n        /* \"#utility.yul\":8920:8921   */\n      dup3\n        /* \"#utility.yul\":8917:8918   */\n      dup3\n        /* \"#utility.yul\":8913:8922   */\n      sub\n        /* \"#utility.yul\":8905:8922   */\n      swap1\n      pop\n        /* \"#utility.yul\":8737:8928   */\n      swap3\n      swap2\n      pop\n      pop\n      jump\t// out\n        /* \"#utility.yul\":8934:9052   */\n    tag_111:\n        /* \"#utility.yul\":9021:9045   */\n      tag_214\n        /* \"#utility.yul\":9039:9044   */\n      dup2\n        /* \"#utility.yul\":9021:9045   */\n      tag_87\n      jump\t// in\n    tag_214:\n        /* \"#utility.yul\":9016:9019   */\n      dup3\n        /* \"#utility.yul\":9009:9046   */\n      mstore\n        /* \"#utility.yul\":8934:9052   */\n      pop\n      pop\n      jump\t// out\n        /* \"#utility.yul\":9058:9500   */\n    tag_49:\n        /* \"#utility.yul\":9207:9211   */\n      0x00\n        /* \"#utility.yul\":9245:9247   */\n      0x60\n        /* \"#utility.yul\":9234:9243   */\n      dup3\n        /* \"#utility.yul\":9230:9248   */\n      add\n        /* \"#utility.yul\":9222:9248   */\n      swap1\n      pop\n        /* \"#utility.yul\":9258:9329   */\n      tag_216\n        /* \"#utility.yul\":9326:9327   */\n      0x00\n        /* \"#utility.yul\":9315:9324   */\n      dup4\n        /* \"#utility.yul\":9311:9328   */\n      add\n        /* \"#utility.yul\":9302:9308   */\n      dup7\n        /* \"#utility.yul\":9258:9329   */\n      tag_111\n      jump\t// in\n    tag_216:\n        /* \"#utility.yul\":9339:9411   */\n      tag_217\n        /* \"#utility.yul\":9407:9409   */\n      0x20\n        /* \"#utility.yul\":9396:9405   */\n      dup4\n        /* \"#utility.yul\":9392:9410   */\n      add\n        /* \"#utility.yul\":9383:9389   */\n      dup6\n        /* \"#utility.yul\":9339:9411   */\n      tag_111\n      jump\t// in\n    tag_217:\n        /* \"#utility.yul\":9421:9493   */\n      tag_218\n        /* \"#utility.yul\":9489:9491   */\n      0x40\n        /* \"#utility.yul\":9478:9487   */\n      dup4\n        /* \"#utility.yul\":9474:9492   */\n      add\n        /* \"#utility.yul\":9465:9471   */\n      dup5\n        /* \"#utility.yul\":9421:9493   */\n      tag_93\n      jump\t// in\n    tag_218:\n        /* \"#utility.yul\":9058:9500   */\n      swap5\n      swap4\n      pop\n      pop\n      pop\n      pop\n      jump\t// out\n        /* \"#utility.yul\":9506:9596   */\n    tag_112:\n        /* \"#utility.yul\":9540:9547   */\n      0x00\n        /* \"#utility.yul\":9583:9588   */\n      dup2\n        /* \"#utility.yul\":9576:9589   */\n      iszero\n        /* \"#utility.yul\":9569:9590   */\n      iszero\n        /* \"#utility.yul\":9558:9590   */\n      swap1\n      pop\n        /* \"#utility.yul\":9506:9596   */\n      swap2\n      swap1\n      pop\n      jump\t// out\n        /* \"#utility.yul\":9602:9718   */\n    tag_113:\n        /* \"#utility.yul\":9672:9693   */\n      tag_221\n        /* \"#utility.yul\":9687:9692   */\n      dup2\n        /* \"#utility.yul\":9672:9693   */\n      tag_112\n      jump\t// in\n    tag_221:\n        /* \"#utility.yul\":9665:9670   */\n      dup2\n        /* \"#utility.yul\":9662:9694   */\n      eq\n        /* \"#utility.yul\":9652:9712   */\n      tag_222\n      jumpi\n        /* \"#utility.yul\":9708:9709   */\n      0x00\n        /* \"#utility.yul\":9705:9706   */\n      dup1\n        /* \"#utility.yul\":9698:9710   */\n      revert\n        /* \"#utility.yul\":9652:9712   */\n    tag_222:\n        /* \"#utility.yul\":9602:9718   */\n      pop\n      jump\t// out\n        /* \"#utility.yul\":9724:9861   */\n    tag_114:\n        /* \"#utility.yul\":9778:9783   */\n      0x00\n        /* \"#utility.yul\":9809:9815   */\n      dup2\n        /* \"#utility.yul\":9803:9816   */\n      mload\n        /* \"#utility.yul\":9794:9816   */\n      swap1\n      pop\n        /* \"#utility.yul\":9825:9855   */\n      tag_224\n        /* \"#utility.yul\":9849:9854   */\n      dup2\n        /* \"#utility.yul\":9825:9855   */\n      tag_113\n      jump\t// in\n    tag_224:\n        /* \"#utility.yul\":9724:9861   */\n      swap3\n      swap2\n      pop\n      pop\n      jump\t// out\n        /* \"#utility.yul\":9867:10212   */\n    tag_53:\n        /* \"#utility.yul\":9934:9940   */\n      0x00\n        /* \"#utility.yul\":9983:9985   */\n      0x20\n        /* \"#utility.yul\":9971:9980   */\n      dup3\n        /* \"#utility.yul\":9962:9969   */\n      dup5\n        /* \"#utility.yul\":9958:9981   */\n      sub\n        /* \"#utility.yul\":9954:9986   */\n      slt\n        /* \"#utility.yul\":9951:10070   */\n      iszero\n      tag_226\n      jumpi\n        /* \"#utility.yul\":9989:10068   */\n      tag_227\n      tag_84\n      jump\t// in\n    tag_227:\n        /* \"#utility.yul\":9951:10070   */\n    tag_226:\n        /* \"#utility.yul\":10109:10110   */\n      0x00\n        /* \"#utility.yul\":10134:10195   */\n      tag_228\n        /* \"#utility.yul\":10187:10194   */\n      dup5\n        /* \"#utility.yul\":10178:10184   */\n      dup3\n        /* \"#utility.yul\":10167:10176   */\n      dup6\n        /* \"#utility.yul\":10163:10185   */\n      add\n        /* \"#utility.yul\":10134:10195   */\n      tag_114\n      jump\t// in\n    tag_228:\n        /* \"#utility.yul\":10124:10195   */\n      swap2\n      pop\n        /* \"#utility.yul\":10080:10205   */\n      pop\n        /* \"#utility.yul\":9867:10212   */\n      swap3\n      swap2\n      pop\n      pop\n      jump\t// out\n        /* \"#utility.yul\":10218:10550   */\n    tag_55:\n        /* \"#utility.yul\":10339:10343   */\n      0x00\n        /* \"#utility.yul\":10377:10379   */\n      0x40\n        /* \"#utility.yul\":10366:10375   */\n      dup3\n        /* \"#utility.yul\":10362:10380   */\n      add\n        /* \"#utility.yul\":10354:10380   */\n      swap1\n      pop\n        /* \"#utility.yul\":10390:10461   */\n      tag_230\n        /* \"#utility.yul\":10458:10459   */\n      0x00\n        /* \"#utility.yul\":10447:10456   */\n      dup4\n        /* \"#utility.yul\":10443:10460   */\n      add\n        /* \"#utility.yul\":10434:10440   */\n      dup6\n        /* \"#utility.yul\":10390:10461   */\n      tag_111\n      jump\t// in\n    tag_230:\n        /* \"#utility.yul\":10471:10543   */\n      tag_231\n        /* \"#utility.yul\":10539:10541   */\n      0x20\n        /* \"#utility.yul\":10528:10537   */\n      dup4\n        /* \"#utility.yul\":10524:10542   */\n      add\n        /* \"#utility.yul\":10515:10521   */\n      dup5\n        /* \"#utility.yul\":10471:10543   */\n      tag_93\n      jump\t// in\n    tag_231:\n        /* \"#utility.yul\":10218:10550   */\n      swap4\n      swap3\n      pop\n      pop\n      pop\n      jump\t// out\n        /* \"#utility.yul\":10556:11371   */\n    tag_79:\n        /* \"#utility.yul\":10811:10815   */\n      0x00\n        /* \"#utility.yul\":10849:10852   */\n      0xa0\n        /* \"#utility.yul\":10838:10847   */\n      dup3\n        /* \"#utility.yul\":10834:10853   */\n      add\n        /* \"#utility.yul\":10826:10853   */\n      swap1\n      pop\n        /* \"#utility.yul\":10863:10934   */\n      tag_233\n        /* \"#utility.yul\":10931:10932   */\n      0x00\n        /* \"#utility.yul\":10920:10929   */\n      dup4\n        /* \"#utility.yul\":10916:10933   */\n      add\n        /* \"#utility.yul\":10907:10913   */\n      dup9\n        /* \"#utility.yul\":10863:10934   */\n      tag_93\n      jump\t// in\n    tag_233:\n        /* \"#utility.yul\":10944:11016   */\n      tag_234\n        /* \"#utility.yul\":11012:11014   */\n      0x20\n        /* \"#utility.yul\":11001:11010   */\n      dup4\n        /* \"#utility.yul\":10997:11015   */\n      add\n        /* \"#utility.yul\":10988:10994   */\n      dup8\n        /* \"#utility.yul\":10944:11016   */\n      tag_93\n      jump\t// in\n    tag_234:\n        /* \"#utility.yul\":11063:11072   */\n      dup2\n        /* \"#utility.yul\":11057:11061   */\n      dup2\n        /* \"#utility.yul\":11053:11073   */\n      sub\n        /* \"#utility.yul\":11048:11050   */\n      0x40\n        /* \"#utility.yul\":11037:11046   */\n      dup4\n        /* \"#utility.yul\":11033:11051   */\n      add\n        /* \"#utility.yul\":11026:11074   */\n      mstore\n        /* \"#utility.yul\":11091:11199   */\n      tag_235\n        /* \"#utility.yul\":11194:11198   */\n      dup2\n        /* \"#utility.yul\":11185:11191   */\n      dup7\n        /* \"#utility.yul\":11091:11199   */\n      tag_100\n      jump\t// in\n    tag_235:\n        /* \"#utility.yul\":11083:11199   */\n      swap1\n      pop\n        /* \"#utility.yul\":11209:11281   */\n      tag_236\n        /* \"#utility.yul\":11277:11279   */\n      0x60\n        /* \"#utility.yul\":11266:11275   */\n      dup4\n        /* \"#utility.yul\":11262:11280   */\n      add\n        /* \"#utility.yul\":11253:11259   */\n      dup6\n        /* \"#utility.yul\":11209:11281   */\n      tag_111\n      jump\t// in\n    tag_236:\n        /* \"#utility.yul\":11291:11364   */\n      tag_237\n        /* \"#utility.yul\":11359:11362   */\n      0x80\n        /* \"#utility.yul\":11348:11357   */\n      dup4\n        /* \"#utility.yul\":11344:11363   */\n      add\n        /* \"#utility.yul\":11335:11341   */\n      dup5\n        /* \"#utility.yul\":11291:11364   */\n      tag_93\n      jump\t// in\n    tag_237:\n        /* \"#utility.yul\":10556:11371   */\n      swap7\n      swap6\n      pop\n      pop\n      pop\n      pop\n      pop\n      pop\n      jump\t// out\n\n    auxdata: 0xa2646970667358221220472fbd3a9fa437276689c450ecab5279270cce7aced515fcbbff5e70488437ea64736f6c634300080a0033\n}\n",
				"bytecode": {
					"linkReferences": {},
					"object": "608060405234801561001057600080fd5b50610eec806100206000396000f3fe608060405234801561001057600080fd5b50600436106100365760003560e01c80633c50eec11461003b578063d5bcb9b51461006b575b600080fd5b61005560048036038101906100509190610959565b610087565b60405161006291906109bb565b60405180910390f35b610085600480360381019061008091906109d6565b610426565b005b6000606073fff9976782d46cc05630d1f6ebab18b2324d6b1473ffffffffffffffffffffffffffffffffffffffff168573ffffffffffffffffffffffffffffffffffffffff161480610118575073fff9976782d46cc05630d1f6ebab18b2324d6b1473ffffffffffffffffffffffffffffffffffffffff168473ffffffffffffffffffffffffffffffffffffffff16145b1561020c57600267ffffffffffffffff81111561013857610137610a51565b5b6040519080825280602002602001820160405280156101665781602001602082028036833780820191505090505b509050848160008151811061017e5761017d610a80565b5b602002602001019073ffffffffffffffffffffffffffffffffffffffff16908173ffffffffffffffffffffffffffffffffffffffff168152505083816001815181106101cd576101cc610a80565b5b602002602001019073ffffffffffffffffffffffffffffffffffffffff16908173ffffffffffffffffffffffffffffffffffffffff168152505061035a565b600367ffffffffffffffff81111561022757610226610a51565b5b6040519080825280602002602001820160405280156102555781602001602082028036833780820191505090505b509050848160008151811061026d5761026c610a80565b5b602002602001019073ffffffffffffffffffffffffffffffffffffffff16908173ffffffffffffffffffffffffffffffffffffffff168152505073fff9976782d46cc05630d1f6ebab18b2324d6b14816001815181106102d0576102cf610a80565b5b602002602001019073ffffffffffffffffffffffffffffffffffffffff16908173ffffffffffffffffffffffffffffffffffffffff1681525050838160028151811061031f5761031e610a80565b5b602002602001019073ffffffffffffffffffffffffffffffffffffffff16908173ffffffffffffffffffffffffffffffffffffffff16815250505b600073c532a74256d3db42d0bf7a0400fefdbad769400873ffffffffffffffffffffffffffffffffffffffff1663d06ca61f85846040518363ffffffff1660e01b81526004016103ab929190610b6d565b600060405180830381865afa1580156103c8573d6000803e3d6000fd5b505050506040513d6000823e3d601f19601f820116820180604052508101906103f19190610cdc565b905080600183516104029190610d54565b8151811061041357610412610a80565b5b6020026020010151925050509392505050565b8473ffffffffffffffffffffffffffffffffffffffff166323b872dd3330866040518463ffffffff1660e01b815260040161046393929190610d97565b6020604051808303816000875af1158015610482573d6000803e3d6000fd5b505050506040513d601f19601f820116820180604052508101906104a69190610e06565b508473ffffffffffffffffffffffffffffffffffffffff1663095ea7b373c532a74256d3db42d0bf7a0400fefdbad7694008856040518363ffffffff1660e01b81526004016104f6929190610e33565b6020604051808303816000875af1158015610515573d6000803e3d6000fd5b505050506040513d601f19601f820116820180604052508101906105399190610e06565b50606073fff9976782d46cc05630d1f6ebab18b2324d6b1473ffffffffffffffffffffffffffffffffffffffff168673ffffffffffffffffffffffffffffffffffffffff1614806105c9575073fff9976782d46cc05630d1f6ebab18b2324d6b1473ffffffffffffffffffffffffffffffffffffffff168573ffffffffffffffffffffffffffffffffffffffff16145b156106bd57600267ffffffffffffffff8111156105e9576105e8610a51565b5b6040519080825280602002602001820160405280156106175781602001602082028036833780820191505090505b509050858160008151811061062f5761062e610a80565b5b602002602001019073ffffffffffffffffffffffffffffffffffffffff16908173ffffffffffffffffffffffffffffffffffffffff1681525050848160018151811061067e5761067d610a80565b5b602002602001019073ffffffffffffffffffffffffffffffffffffffff16908173ffffffffffffffffffffffffffffffffffffffff168152505061080b565b600367ffffffffffffffff8111156106d8576106d7610a51565b5b6040519080825280602002602001820160405280156107065781602001602082028036833780820191505090505b509050858160008151811061071e5761071d610a80565b5b602002602001019073ffffffffffffffffffffffffffffffffffffffff16908173ffffffffffffffffffffffffffffffffffffffff168152505073fff9976782d46cc05630d1f6ebab18b2324d6b148160018151811061078157610780610a80565b5b602002602001019073ffffffffffffffffffffffffffffffffffffffff16908173ffffffffffffffffffffffffffffffffffffffff168152505084816002815181106107d0576107cf610a80565b5b602002602001019073ffffffffffffffffffffffffffffffffffffffff16908173ffffffffffffffffffffffffffffffffffffffff16815250505b73c532a74256d3db42d0bf7a0400fefdbad769400873ffffffffffffffffffffffffffffffffffffffff166338ed173985858486426040518663ffffffff1660e01b8152600401610860959493929190610e5c565b6000604051808303816000875af115801561087f573d6000803e3d6000fd5b505050506040513d6000823e3d601f19601f820116820180604052508101906108a89190610cdc565b50505050505050565b6000604051905090565b600080fd5b600080fd5b600073ffffffffffffffffffffffffffffffffffffffff82169050919050565b60006108f0826108c5565b9050919050565b610900816108e5565b811461090b57600080fd5b50565b60008135905061091d816108f7565b92915050565b6000819050919050565b61093681610923565b811461094157600080fd5b50565b6000813590506109538161092d565b92915050565b600080600060608486031215610972576109716108bb565b5b60006109808682870161090e565b93505060206109918682870161090e565b92505060406109a286828701610944565b9150509250925092565b6109b581610923565b82525050565b60006020820190506109d060008301846109ac565b92915050565b600080600080600060a086880312156109f2576109f16108bb565b5b6000610a008882890161090e565b9550506020610a118882890161090e565b9450506040610a2288828901610944565b9350506060610a3388828901610944565b9250506080610a448882890161090e565b9150509295509295909350565b7f4e487b7100000000000000000000000000000000000000000000000000000000600052604160045260246000fd5b7f4e487b7100000000000000000000000000000000000000000000000000000000600052603260045260246000fd5b600081519050919050565b600082825260208201905092915050565b6000819050602082019050919050565b610ae4816108e5565b82525050565b6000610af68383610adb565b60208301905092915050565b6000602082019050919050565b6000610b1a82610aaf565b610b248185610aba565b9350610b2f83610acb565b8060005b83811015610b60578151610b478882610aea565b9750610b5283610b02565b925050600181019050610b33565b5085935050505092915050565b6000604082019050610b8260008301856109ac565b8181036020830152610b948184610b0f565b90509392505050565b600080fd5b6000601f19601f8301169050919050565b610bbc82610ba2565b810181811067ffffffffffffffff82111715610bdb57610bda610a51565b5b80604052505050565b6000610bee6108b1565b9050610bfa8282610bb3565b919050565b600067ffffffffffffffff821115610c1a57610c19610a51565b5b602082029050602081019050919050565b600080fd5b600081519050610c3f8161092d565b92915050565b6000610c58610c5384610bff565b610be4565b90508083825260208201905060208402830185811115610c7b57610c7a610c2b565b5b835b81811015610ca45780610c908882610c30565b845260208401935050602081019050610c7d565b5050509392505050565b600082601f830112610cc357610cc2610b9d565b5b8151610cd3848260208601610c45565b91505092915050565b600060208284031215610cf257610cf16108bb565b5b600082015167ffffffffffffffff811115610d1057610d0f6108c0565b5b610d1c84828501610cae565b91505092915050565b7f4e487b7100000000000000000000000000000000000000000000000000000000600052601160045260246000fd5b6000610d5f82610923565b9150610d6a83610923565b925082821015610d7d57610d7c610d25565b5b828203905092915050565b610d91816108e5565b82525050565b6000606082019050610dac6000830186610d88565b610db96020830185610d88565b610dc660408301846109ac565b949350505050565b60008115159050919050565b610de381610dce565b8114610dee57600080fd5b50565b600081519050610e0081610dda565b92915050565b600060208284031215610e1c57610e1b6108bb565b5b6000610e2a84828501610df1565b91505092915050565b6000604082019050610e486000830185610d88565b610e5560208301846109ac565b9392505050565b600060a082019050610e7160008301886109ac565b610e7e60208301876109ac565b8181036040830152610e908186610b0f565b9050610e9f6060830185610d88565b610eac60808301846109ac565b969550505050505056fea2646970667358221220472fbd3a9fa437276689c450ecab5279270cce7aced515fcbbff5e70488437ea64736f6c634300080a0033",
					"opcodes": "PUSH1 0x80 PUSH1 0x40 MSTORE CALLVALUE DUP1 ISZERO PUSH2 0x10 JUMPI PUSH1 0x0 DUP1 REVERT JUMPDEST POP PUSH2 0xEEC DUP1 PUSH2 0x20 PUSH1 0x0 CODECOPY PUSH1 0x0 RETURN INVALID PUSH1 0x80 PUSH1 0x40 MSTORE CALLVALUE DUP1 ISZERO PUSH2 0x10 JUMPI PUSH1 0x0 DUP1 REVERT JUMPDEST POP PUSH1 0x4 CALLDATASIZE LT PUSH2 0x36 JUMPI PUSH1 0x0 CALLDATALOAD PUSH1 0xE0 SHR DUP1 PUSH4 0x3C50EEC1 EQ PUSH2 0x3B JUMPI DUP1 PUSH4 0xD5BCB9B5 EQ PUSH2 0x6B JUMPI JUMPDEST PUSH1 0x0 DUP1 REVERT JUMPDEST PUSH2 0x55 PUSH1 0x4 DUP1 CALLDATASIZE SUB DUP2 ADD SWAP1 PUSH2 0x50 SWAP2 SWAP1 PUSH2 0x959 JUMP JUMPDEST PUSH2 0x87 JUMP JUMPDEST PUSH1 0x40 MLOAD PUSH2 0x62 SWAP2 SWAP1 PUSH2 0x9BB JUMP JUMPDEST PUSH1 0x40 MLOAD DUP1 SWAP2 SUB SWAP1 RETURN JUMPDEST PUSH2 0x85 PUSH1 0x4 DUP1 CALLDATASIZE SUB DUP2 ADD SWAP1 PUSH2 0x80 SWAP2 SWAP1 PUSH2 0x9D6 JUMP JUMPDEST PUSH2 0x426 JUMP JUMPDEST STOP JUMPDEST PUSH1 0x0 PUSH1 0x60 PUSH20 0xFFF9976782D46CC05630D1F6EBAB18B2324D6B14 PUSH20 0xFFFFFFFFFFFFFFFFFFFFFFFFFFFFFFFFFFFFFFFF AND DUP6 PUSH20 0xFFFFFFFFFFFFFFFFFFFFFFFFFFFFFFFFFFFFFFFF AND EQ DUP1 PUSH2 0x118 JUMPI POP PUSH20 0xFFF9976782D46CC05630D1F6EBAB18B2324D6B14 PUSH20 0xFFFFFFFFFFFFFFFFFFFFFFFFFFFFFFFFFFFFFFFF AND DUP5 PUSH20 0xFFFFFFFFFFFFFFFFFFFFFFFFFFFFFFFFFFFFFFFF AND EQ JUMPDEST ISZERO PUSH2 0x20C JUMPI PUSH1 0x2 PUSH8 0xFFFFFFFFFFFFFFFF DUP2 GT ISZERO PUSH2 0x138 JUMPI PUSH2 0x137 PUSH2 0xA51 JUMP JUMPDEST JUMPDEST PUSH1 0x40 MLOAD SWAP1 DUP1 DUP3 MSTORE DUP1 PUSH1 0x20 MUL PUSH1 0x20 ADD DUP3 ADD PUSH1 0x40 MSTORE DUP1 ISZERO PUSH2 0x166 JUMPI DUP2 PUSH1 0x20 ADD PUSH1 0x20 DUP3 MUL DUP1 CALLDATASIZE DUP4 CALLDATACOPY DUP1 DUP3 ADD SWAP2 POP POP SWAP1 POP JUMPDEST POP SWAP1 POP DUP5 DUP2 PUSH1 0x0 DUP2 MLOAD DUP2 LT PUSH2 0x17E JUMPI PUSH2 0x17D PUSH2 0xA80 JUMP JUMPDEST JUMPDEST PUSH1 0x20 MUL PUSH1 0x20 ADD ADD SWAP1 PUSH20 0xFFFFFFFFFFFFFFFFFFFFFFFFFFFFFFFFFFFFFFFF AND SWAP1 DUP2 PUSH20 0xFFFFFFFFFFFFFFFFFFFFFFFFFFFFFFFFFFFFFFFF AND DUP2 MSTORE POP POP DUP4 DUP2 PUSH1 0x1 DUP2 MLOAD DUP2 LT PUSH2 0x1CD JUMPI PUSH2 0x1CC PUSH2 0xA80 JUMP JUMPDEST JUMPDEST PUSH1 0x20 MUL PUSH1 0x20 ADD ADD SWAP1 PUSH20 0xFFFFFFFFFFFFFFFFFFFFFFFFFFFFFFFFFFFFFFFF AND SWAP1 DUP2 PUSH20 0xFFFFFFFFFFFFFFFFFFFFFFFFFFFFFFFFFFFFFFFF AND DUP2 MSTORE POP POP PUSH2 0x35A JUMP JUMPDEST PUSH1 0x3 PUSH8 0xFFFFFFFFFFFFFFFF DUP2 GT ISZERO PUSH2 0x227 JUMPI PUSH2 0x226 PUSH2 0xA51 JUMP JUMPDEST JUMPDEST PUSH1 0x40 MLOAD SWAP1 DUP1 DUP3 MSTORE DUP1 PUSH1 0x20 MUL PUSH1 0x20 ADD DUP3 ADD PUSH1 0x40 MSTORE DUP1 ISZERO PUSH2 0x255 JUMPI DUP2 PUSH1 0x20 ADD PUSH1 0x20 DUP3 MUL DUP1 CALLDATASIZE DUP4 CALLDATACOPY DUP1 DUP3 ADD SWAP2 POP POP SWAP1 POP JUMPDEST POP SWAP1 POP DUP5 DUP2 PUSH1 0x0 DUP2 MLOAD DUP2 LT PUSH2 0x26D JUMPI PUSH2 0x26C PUSH2 0xA80 JUMP JUMPDEST JUMPDEST PUSH1 0x20 MUL PUSH1 0x20 ADD ADD SWAP1 PUSH20 0xFFFFFFFFFFFFFFFFFFFFFFFFFFFFFFFFFFFFFFFF AND SWAP1 DUP2 PUSH20 0xFFFFFFFFFFFFFFFFFFFFFFFFFFFFFFFFFFFFFFFF AND DUP2 MSTORE POP POP PUSH20 0xFFF9976782D46CC05630D1F6EBAB18B2324D6B14 DUP2 PUSH1 0x1 DUP2 MLOAD DUP2 LT PUSH2 0x2D0 JUMPI PUSH2 0x2CF PUSH2 0xA80 JUMP JUMPDEST JUMPDEST PUSH1 0x20 MUL PUSH1 0x20 ADD ADD SWAP1 PUSH20 0xFFFFFFFFFFFFFFFFFFFFFFFFFFFFFFFFFFFFFFFF AND SWAP1 DUP2 PUSH20 0xFFFFFFFFFFFFFFFFFFFFFFFFFFFFFFFFFFFFFFFF AND DUP2 MSTORE POP POP DUP4 DUP2 PUSH1 0x2 DUP2 MLOAD DUP2 LT PUSH2 0x31F JUMPI PUSH2 0x31E PUSH2 0xA80 JUMP JUMPDEST JUMPDEST PUSH1 0x20 MUL PUSH1 0x20 ADD ADD SWAP1 PUSH20 0xFFFFFFFFFFFFFFFFFFFFFFFFFFFFFFFFFFFFFFFF AND SWAP1 DUP2 PUSH20 0xFFFFFFFFFFFFFFFFFFFFFFFFFFFFFFFFFFFFFFFF AND DUP2 MSTORE POP POP JUMPDEST PUSH1 0x0 PUSH20 0xC532A74256D3DB42D0BF7A0400FEFDBAD7694008 PUSH20 0xFFFFFFFFFFFFFFFFFFFFFFFFFFFFFFFFFFFFFFFF AND PUSH4 0xD06CA61F DUP6 DUP5 PUSH1 0x40 MLOAD DUP4 PUSH4 0xFFFFFFFF AND PUSH1 0xE0 SHL DUP2 MSTORE PUSH1 0x4 ADD PUSH2 0x3AB SWAP3 SWAP2 SWAP1 PUSH2 0xB6D JUMP JUMPDEST PUSH1 0x0 PUSH1 0x40 MLOAD DUP1 DUP4 SUB DUP2 DUP7 GAS STATICCALL ISZERO DUP1 ISZERO PUSH2 0x3C8 JUMPI RETURNDATASIZE PUSH1 0x0 DUP1 RETURNDATACOPY RETURNDATASIZE PUSH1 0x0 REVERT JUMPDEST POP POP POP POP PUSH1 0x40 MLOAD RETURNDATASIZE PUSH1 0x0 DUP3 RETURNDATACOPY RETURNDATASIZE PUSH1 0x1F NOT PUSH1 0x1F DUP3 ADD AND DUP3 ADD DUP1 PUSH1 0x40 MSTORE POP DUP2 ADD SWAP1 PUSH2 0x3F1 SWAP2 SWAP1 PUSH2 0xCDC JUMP JUMPDEST SWAP1 POP DUP1 PUSH1 0x1 DUP4 MLOAD PUSH2 0x402 SWAP2 SWAP1 PUSH2 0xD54 JUMP JUMPDEST DUP2 MLOAD DUP2 LT PUSH2 0x413 JUMPI PUSH2 0x412 PUSH2 0xA80 JUMP JUMPDEST JUMPDEST PUSH1 0x20 MUL PUSH1 0x20 ADD ADD MLOAD SWAP3 POP POP POP SWAP4 SWAP3 POP POP POP JUMP JUMPDEST DUP5 PUSH20 0xFFFFFFFFFFFFFFFFFFFFFFFFFFFFFFFFFFFFFFFF AND PUSH4 0x23B872DD CALLER ADDRESS DUP7 PUSH1 0x40 MLOAD DUP5 PUSH4 0xFFFFFFFF AND PUSH1 0xE0 SHL DUP2 MSTORE PUSH1 0x4 ADD PUSH2 0x463 SWAP4 SWAP3 SWAP2 SWAP1 PUSH2 0xD97 JUMP JUMPDEST PUSH1 0x20 PUSH1 0x40 MLOAD DUP1 DUP4 SUB DUP2 PUSH1 0x0 DUP8 GAS CALL ISZERO DUP1 ISZERO PUSH2 0x482 JUMPI RETURNDATASIZE PUSH1 0x0 DUP1 RETURNDATACOPY RETURNDATASIZE PUSH1 0x0 REVERT JUMPDEST POP POP POP POP PUSH1 0x40 MLOAD RETURNDATASIZE PUSH1 0x1F NOT PUSH1 0x1F DUP3 ADD AND DUP3 ADD DUP1 PUSH1 0x40 MSTORE POP DUP2 ADD SWAP1 PUSH2 0x4A6 SWAP2 SWAP1 PUSH2 0xE06 JUMP JUMPDEST POP DUP5 PUSH20 0xFFFFFFFFFFFFFFFFFFFFFFFFFFFFFFFFFFFFFFFF AND PUSH4 0x95EA7B3 PUSH20 0xC532A74256D3DB42D0BF7A0400FEFDBAD7694008 DUP6 PUSH1 0x40 MLOAD DUP4 PUSH4 0xFFFFFFFF AND PUSH1 0xE0 SHL DUP2 MSTORE PUSH1 0x4 ADD PUSH2 0x4F6 SWAP3 SWAP2 SWAP1 PUSH2 0xE33 JUMP JUMPDEST PUSH1 0x20 PUSH1 0x40 MLOAD DUP1 DUP4 SUB DUP2 PUSH1 0x0 DUP8 GAS CALL ISZERO DUP1 ISZERO PUSH2 0x515 JUMPI RETURNDATASIZE PUSH1 0x0 DUP1 RETURNDATACOPY RETURNDATASIZE PUSH1 0x0 REVERT JUMPDEST POP POP POP POP PUSH1 0x40 MLOAD RETURNDATASIZE PUSH1 0x1F NOT PUSH1 0x1F DUP3 ADD AND DUP3 ADD DUP1 PUSH1 0x40 MSTORE POP DUP2 ADD SWAP1 PUSH2 0x539 SWAP2 SWAP1 PUSH2 0xE06 JUMP JUMPDEST POP PUSH1 0x60 PUSH20 0xFFF9976782D46CC05630D1F6EBAB18B2324D6B14 PUSH20 0xFFFFFFFFFFFFFFFFFFFFFFFFFFFFFFFFFFFFFFFF AND DUP7 PUSH20 0xFFFFFFFFFFFFFFFFFFFFFFFFFFFFFFFFFFFFFFFF AND EQ DUP1 PUSH2 0x5C9 JUMPI POP PUSH20 0xFFF9976782D46CC05630D1F6EBAB18B2324D6B14 PUSH20 0xFFFFFFFFFFFFFFFFFFFFFFFFFFFFFFFFFFFFFFFF AND DUP6 PUSH20 0xFFFFFFFFFFFFFFFFFFFFFFFFFFFFFFFFFFFFFFFF AND EQ JUMPDEST ISZERO PUSH2 0x6BD JUMPI PUSH1 0x2 PUSH8 0xFFFFFFFFFFFFFFFF DUP2 GT ISZERO PUSH2 0x5E9 JUMPI PUSH2 0x5E8 PUSH2 0xA51 JUMP JUMPDEST JUMPDEST PUSH1 0x40 MLOAD SWAP1 DUP1 DUP3 MSTORE DUP1 PUSH1 0x20 MUL PUSH1 0x20 ADD DUP3 ADD PUSH1 0x40 MSTORE DUP1 ISZERO PUSH2 0x617 JUMPI DUP2 PUSH1 0x20 ADD PUSH1 0x20 DUP3 MUL DUP1 CALLDATASIZE DUP4 CALLDATACOPY DUP1 DUP3 ADD SWAP2 POP POP SWAP1 POP JUMPDEST POP SWAP1 POP DUP6 DUP2 PUSH1 0x0 DUP2 MLOAD DUP2 LT PUSH2 0x62F JUMPI PUSH2 0x62E PUSH2 0xA80 JUMP JUMPDEST JUMPDEST PUSH1 0x20 MUL PUSH1 0x20 ADD ADD SWAP1 PUSH20 0xFFFFFFFFFFFFFFFFFFFFFFFFFFFFFFFFFFFFFFFF AND SWAP1 DUP2 PUSH20 0xFFFFFFFFFFFFFFFFFFFFFFFFFFFFFFFFFFFFFFFF AND DUP2 MSTORE POP POP DUP5 DUP2 PUSH1 0x1 DUP2 MLOAD DUP2 LT PUSH2 0x67E JUMPI PUSH2 0x67D PUSH2 0xA80 JUMP JUMPDEST JUMPDEST PUSH1 0x20 MUL PUSH1 0x20 ADD ADD SWAP1 PUSH20 0xFFFFFFFFFFFFFFFFFFFFFFFFFFFFFFFFFFFFFFFF AND SWAP1 DUP2 PUSH20 0xFFFFFFFFFFFFFFFFFFFFFFFFFFFFFFFFFFFFFFFF AND DUP2 MSTORE POP POP PUSH2 0x80B JUMP JUMPDEST PUSH1 0x3 PUSH8 0xFFFFFFFFFFFFFFFF DUP2 GT ISZERO PUSH2 0x6D8 JUMPI PUSH2 0x6D7 PUSH2 0xA51 JUMP JUMPDEST JUMPDEST PUSH1 0x40 MLOAD SWAP1 DUP1 DUP3 MSTORE DUP1 PUSH1 0x20 MUL PUSH1 0x20 ADD DUP3 ADD PUSH1 0x40 MSTORE DUP1 ISZERO PUSH2 0x706 JUMPI DUP2 PUSH1 0x20 ADD PUSH1 0x20 DUP3 MUL DUP1 CALLDATASIZE DUP4 CALLDATACOPY DUP1 DUP3 ADD SWAP2 POP POP SWAP1 POP JUMPDEST POP SWAP1 POP DUP6 DUP2 PUSH1 0x0 DUP2 MLOAD DUP2 LT PUSH2 0x71E JUMPI PUSH2 0x71D PUSH2 0xA80 JUMP JUMPDEST JUMPDEST PUSH1 0x20 MUL PUSH1 0x20 ADD ADD SWAP1 PUSH20 0xFFFFFFFFFFFFFFFFFFFFFFFFFFFFFFFFFFFFFFFF AND SWAP1 DUP2 PUSH20 0xFFFFFFFFFFFFFFFFFFFFFFFFFFFFFFFFFFFFFFFF AND DUP2 MSTORE POP POP PUSH20 0xFFF9976782D46CC05630D1F6EBAB18B2324D6B14 DUP2 PUSH1 0x1 DUP2 MLOAD DUP2 LT PUSH2 0x781 JUMPI PUSH2 0x780 PUSH2 0xA80 JUMP JUMPDEST JUMPDEST PUSH1 0x20 MUL PUSH1 0x20 ADD ADD SWAP1 PUSH20 0xFFFFFFFFFFFFFFFFFFFFFFFFFFFFFFFFFFFFFFFF AND SWAP1 DUP2 PUSH20 0xFFFFFFFFFFFFFFFFFFFFFFFFFFFFFFFFFFFFFFFF AND DUP2 MSTORE POP POP DUP5 DUP2 PUSH1 0x2 DUP2 MLOAD DUP2 LT PUSH2 0x7D0 JUMPI PUSH2 0x7CF PUSH2 0xA80 JUMP JUMPDEST JUMPDEST PUSH1 0x20 MUL PUSH1 0x20 ADD ADD SWAP1 PUSH20 0xFFFFFFFFFFFFFFFFFFFFFFFFFFFFFFFFFFFFFFFF AND SWAP1 DUP2 PUSH20 0xFFFFFFFFFFFFFFFFFFFFFFFFFFFFFFFFFFFFFFFF AND DUP2 MSTORE POP POP JUMPDEST PUSH20 0xC532A74256D3DB42D0BF7A0400FEFDBAD7694008 PUSH20 0xFFFFFFFFFFFFFFFFFFFFFFFFFFFFFFFFFFFFFFFF AND PUSH4 0x38ED1739 DUP6 DUP6 DUP5 DUP7 TIMESTAMP PUSH1 0x40 MLOAD DUP7 PUSH4 0xFFFFFFFF AND PUSH1 0xE0 SHL DUP2 MSTORE PUSH1 0x4 ADD PUSH2 0x860 SWAP6 SWAP5 SWAP4 SWAP3 SWAP2 SWAP1 PUSH2 0xE5C JUMP JUMPDEST PUSH1 0x0 PUSH1 0x40 MLOAD DUP1 DUP4 SUB DUP2 PUSH1 0x0 DUP8 GAS CALL ISZERO DUP1 ISZERO PUSH2 0x87F JUMPI RETURNDATASIZE PUSH1 0x0 DUP1 RETURNDATACOPY RETURNDATASIZE PUSH1 0x0 REVERT JUMPDEST POP POP POP POP PUSH1 0x40 MLOAD RETURNDATASIZE PUSH1 0x0 DUP3 RETURNDATACOPY RETURNDATASIZE PUSH1 0x1F NOT PUSH1 0x1F DUP3 ADD AND DUP3 ADD DUP1 PUSH1 0x40 MSTORE POP DUP2 ADD SWAP1 PUSH2 0x8A8 SWAP2 SWAP1 PUSH2 0xCDC JUMP JUMPDEST POP POP POP POP POP POP POP JUMP JUMPDEST PUSH1 0x0 PUSH1 0x40 MLOAD SWAP1 POP SWAP1 JUMP JUMPDEST PUSH1 0x0 DUP1 REVERT JUMPDEST PUSH1 0x0 DUP1 REVERT JUMPDEST PUSH1 0x0 PUSH20 0xFFFFFFFFFFFFFFFFFFFFFFFFFFFFFFFFFFFFFFFF DUP3 AND SWAP1 POP SWAP2 SWAP1 POP JUMP JUMPDEST PUSH1 0x0 PUSH2 0x8F0 DUP3 PUSH2 0x8C5 JUMP JUMPDEST SWAP1 POP SWAP2 SWAP1 POP JUMP JUMPDEST PUSH2 0x900 DUP2 PUSH2 0x8E5 JUMP JUMPDEST DUP2 EQ PUSH2 0x90B JUMPI PUSH1 0x0 DUP1 REVERT JUMPDEST POP JUMP JUMPDEST PUSH1 0x0 DUP2 CALLDATALOAD SWAP1 POP PUSH2 0x91D DUP2 PUSH2 0x8F7 JUMP JUMPDEST SWAP3 SWAP2 POP POP JUMP JUMPDEST PUSH1 0x0 DUP2 SWAP1 POP SWAP2 SWAP1 POP JUMP JUMPDEST PUSH2 0x936 DUP2 PUSH2 0x923 JUMP JUMPDEST DUP2 EQ PUSH2 0x941 JUMPI PUSH1 0x0 DUP1 REVERT JUMPDEST POP JUMP JUMPDEST PUSH1 0x0 DUP2 CALLDATALOAD SWAP1 POP PUSH2 0x953 DUP2 PUSH2 0x92D JUMP JUMPDEST SWAP3 SWAP2 POP POP JUMP JUMPDEST PUSH1 0x0 DUP1 PUSH1 0x0 PUSH1 0x60 DUP5 DUP7 SUB SLT ISZERO PUSH2 0x972 JUMPI PUSH2 0x971 PUSH2 0x8BB JUMP JUMPDEST JUMPDEST PUSH1 0x0 PUSH2 0x980 DUP7 DUP3 DUP8 ADD PUSH2 0x90E JUMP JUMPDEST SWAP4 POP POP PUSH1 0x20 PUSH2 0x991 DUP7 DUP3 DUP8 ADD PUSH2 0x90E JUMP JUMPDEST SWAP3 POP POP PUSH1 0x40 PUSH2 0x9A2 DUP7 DUP3 DUP8 ADD PUSH2 0x944 JUMP JUMPDEST SWAP2 POP POP SWAP3 POP SWAP3 POP SWAP3 JUMP JUMPDEST PUSH2 0x9B5 DUP2 PUSH2 0x923 JUMP JUMPDEST DUP3 MSTORE POP POP JUMP JUMPDEST PUSH1 0x0 PUSH1 0x20 DUP3 ADD SWAP1 POP PUSH2 0x9D0 PUSH1 0x0 DUP4 ADD DUP5 PUSH2 0x9AC JUMP JUMPDEST SWAP3 SWAP2 POP POP JUMP JUMPDEST PUSH1 0x0 DUP1 PUSH1 0x0 DUP1 PUSH1 0x0 PUSH1 0xA0 DUP7 DUP9 SUB SLT ISZERO PUSH2 0x9F2 JUMPI PUSH2 0x9F1 PUSH2 0x8BB JUMP JUMPDEST JUMPDEST PUSH1 0x0 PUSH2 0xA00 DUP9 DUP3 DUP10 ADD PUSH2 0x90E JUMP JUMPDEST SWAP6 POP POP PUSH1 0x20 PUSH2 0xA11 DUP9 DUP3 DUP10 ADD PUSH2 0x90E JUMP JUMPDEST SWAP5 POP POP PUSH1 0x40 PUSH2 0xA22 DUP9 DUP3 DUP10 ADD PUSH2 0x944 JUMP JUMPDEST SWAP4 POP POP PUSH1 0x60 PUSH2 0xA33 DUP9 DUP3 DUP10 ADD PUSH2 0x944 JUMP JUMPDEST SWAP3 POP POP PUSH1 0x80 PUSH2 0xA44 DUP9 DUP3 DUP10 ADD PUSH2 0x90E JUMP JUMPDEST SWAP2 POP POP SWAP3 SWAP6 POP SWAP3 SWAP6 SWAP1 SWAP4 POP JUMP JUMPDEST PUSH32 0x4E487B7100000000000000000000000000000000000000000000000000000000 PUSH1 0x0 MSTORE PUSH1 0x41 PUSH1 0x4 MSTORE PUSH1 0x24 PUSH1 0x0 REVERT JUMPDEST PUSH32 0x4E487B7100000000000000000000000000000000000000000000000000000000 PUSH1 0x0 MSTORE PUSH1 0x32 PUSH1 0x4 MSTORE PUSH1 0x24 PUSH1 0x0 REVERT JUMPDEST PUSH1 0x0 DUP2 MLOAD SWAP1 POP SWAP2 SWAP1 POP JUMP JUMPDEST PUSH1 0x0 DUP3 DUP3 MSTORE PUSH1 0x20 DUP3 ADD SWAP1 POP SWAP3 SWAP2 POP POP JUMP JUMPDEST PUSH1 0x0 DUP2 SWAP1 POP PUSH1 0x20 DUP3 ADD SWAP1 POP SWAP2 SWAP1 POP JUMP JUMPDEST PUSH2 0xAE4 DUP2 PUSH2 0x8E5 JUMP JUMPDEST DUP3 MSTORE POP POP JUMP JUMPDEST PUSH1 0x0 PUSH2 0xAF6 DUP4 DUP4 PUSH2 0xADB JUMP JUMPDEST PUSH1 0x20 DUP4 ADD SWAP1 POP SWAP3 SWAP2 POP POP JUMP JUMPDEST PUSH1 0x0 PUSH1 0x20 DUP3 ADD SWAP1 POP SWAP2 SWAP1 POP JUMP JUMPDEST PUSH1 0x0 PUSH2 0xB1A DUP3 PUSH2 0xAAF JUMP JUMPDEST PUSH2 0xB24 DUP2 DUP6 PUSH2 0xABA JUMP JUMPDEST SWAP4 POP PUSH2 0xB2F DUP4 PUSH2 0xACB JUMP JUMPDEST DUP1 PUSH1 0x0 JUMPDEST DUP4 DUP2 LT ISZERO PUSH2 0xB60 JUMPI DUP2 MLOAD PUSH2 0xB47 DUP9 DUP3 PUSH2 0xAEA JUMP JUMPDEST SWAP8 POP PUSH2 0xB52 DUP4 PUSH2 0xB02 JUMP JUMPDEST SWAP3 POP POP PUSH1 0x1 DUP2 ADD SWAP1 POP PUSH2 0xB33 JUMP JUMPDEST POP DUP6 SWAP4 POP POP POP POP SWAP3 SWAP2 POP POP JUMP JUMPDEST PUSH1 0x0 PUSH1 0x40 DUP3 ADD SWAP1 POP PUSH2 0xB82 PUSH1 0x0 DUP4 ADD DUP6 PUSH2 0x9AC JUMP JUMPDEST DUP2 DUP2 SUB PUSH1 0x20 DUP4 ADD MSTORE PUSH2 0xB94 DUP2 DUP5 PUSH2 0xB0F JUMP JUMPDEST SWAP1 POP SWAP4 SWAP3 POP POP POP JUMP JUMPDEST PUSH1 0x0 DUP1 REVERT JUMPDEST PUSH1 0x0 PUSH1 0x1F NOT PUSH1 0x1F DUP4 ADD AND SWAP1 POP SWAP2 SWAP1 POP JUMP JUMPDEST PUSH2 0xBBC DUP3 PUSH2 0xBA2 JUMP JUMPDEST DUP2 ADD DUP2 DUP2 LT PUSH8 0xFFFFFFFFFFFFFFFF DUP3 GT OR ISZERO PUSH2 0xBDB JUMPI PUSH2 0xBDA PUSH2 0xA51 JUMP JUMPDEST JUMPDEST DUP1 PUSH1 0x40 MSTORE POP POP POP JUMP JUMPDEST PUSH1 0x0 PUSH2 0xBEE PUSH2 0x8B1 JUMP JUMPDEST SWAP1 POP PUSH2 0xBFA DUP3 DUP3 PUSH2 0xBB3 JUMP JUMPDEST SWAP2 SWAP1 POP JUMP JUMPDEST PUSH1 0x0 PUSH8 0xFFFFFFFFFFFFFFFF DUP3 GT ISZERO PUSH2 0xC1A JUMPI PUSH2 0xC19 PUSH2 0xA51 JUMP JUMPDEST JUMPDEST PUSH1 0x20 DUP3 MUL SWAP1 POP PUSH1 0x20 DUP2 ADD SWAP1 POP SWAP2 SWAP1 POP JUMP JUMPDEST PUSH1 0x0 DUP1 REVERT JUMPDEST PUSH1 0x0 DUP2 MLOAD SWAP1 POP PUSH2 0xC3F DUP2 PUSH2 0x92D JUMP JUMPDEST SWAP3 SWAP2 POP POP JUMP JUMPDEST PUSH1 0x0 PUSH2 0xC58 PUSH2 0xC53 DUP5 PUSH2 0xBFF JUMP JUMPDEST PUSH2 0xBE4 JUMP JUMPDEST SWAP1 POP DUP1 DUP4 DUP3 MSTORE PUSH1 0x20 DUP3 ADD SWAP1 POP PUSH1 0x20 DUP5 MUL DUP4 ADD DUP6 DUP2 GT ISZERO PUSH2 0xC7B JUMPI PUSH2 0xC7A PUSH2 0xC2B JUMP JUMPDEST JUMPDEST DUP4 JUMPDEST DUP2 DUP2 LT ISZERO PUSH2 0xCA4 JUMPI DUP1 PUSH2 0xC90 DUP9 DUP3 PUSH2 0xC30 JUMP JUMPDEST DUP5 MSTORE PUSH1 0x20 DUP5 ADD SWAP4 POP POP PUSH1 0x20 DUP2 ADD SWAP1 POP PUSH2 0xC7D JUMP JUMPDEST POP POP POP SWAP4 SWAP3 POP POP POP JUMP JUMPDEST PUSH1 0x0 DUP3 PUSH1 0x1F DUP4 ADD SLT PUSH2 0xCC3 JUMPI PUSH2 0xCC2 PUSH2 0xB9D JUMP JUMPDEST JUMPDEST DUP2 MLOAD PUSH2 0xCD3 DUP5 DUP3 PUSH1 0x20 DUP7 ADD PUSH2 0xC45 JUMP JUMPDEST SWAP2 POP POP SWAP3 SWAP2 POP POP JUMP JUMPDEST PUSH1 0x0 PUSH1 0x20 DUP3 DUP5 SUB SLT ISZERO PUSH2 0xCF2 JUMPI PUSH2 0xCF1 PUSH2 0x8BB JUMP JUMPDEST JUMPDEST PUSH1 0x0 DUP3 ADD MLOAD PUSH8 0xFFFFFFFFFFFFFFFF DUP2 GT ISZERO PUSH2 0xD10 JUMPI PUSH2 0xD0F PUSH2 0x8C0 JUMP JUMPDEST JUMPDEST PUSH2 0xD1C DUP5 DUP3 DUP6 ADD PUSH2 0xCAE JUMP JUMPDEST SWAP2 POP POP SWAP3 SWAP2 POP POP JUMP JUMPDEST PUSH32 0x4E487B7100000000000000000000000000000000000000000000000000000000 PUSH1 0x0 MSTORE PUSH1 0x11 PUSH1 0x4 MSTORE PUSH1 0x24 PUSH1 0x0 REVERT JUMPDEST PUSH1 0x0 PUSH2 0xD5F DUP3 PUSH2 0x923 JUMP JUMPDEST SWAP2 POP PUSH2 0xD6A DUP4 PUSH2 0x923 JUMP JUMPDEST SWAP3 POP DUP3 DUP3 LT ISZERO PUSH2 0xD7D JUMPI PUSH2 0xD7C PUSH2 0xD25 JUMP JUMPDEST JUMPDEST DUP3 DUP3 SUB SWAP1 POP SWAP3 SWAP2 POP POP JUMP JUMPDEST PUSH2 0xD91 DUP2 PUSH2 0x8E5 JUMP JUMPDEST DUP3 MSTORE POP POP JUMP JUMPDEST PUSH1 0x0 PUSH1 0x60 DUP3 ADD SWAP1 POP PUSH2 0xDAC PUSH1 0x0 DUP4 ADD DUP7 PUSH2 0xD88 JUMP JUMPDEST PUSH2 0xDB9 PUSH1 0x20 DUP4 ADD DUP6 PUSH2 0xD88 JUMP JUMPDEST PUSH2 0xDC6 PUSH1 0x40 DUP4 ADD DUP5 PUSH2 0x9AC JUMP JUMPDEST SWAP5 SWAP4 POP POP POP POP JUMP JUMPDEST PUSH1 0x0 DUP2 ISZERO ISZERO SWAP1 POP SWAP2 SWAP1 POP JUMP JUMPDEST PUSH2 0xDE3 DUP2 PUSH2 0xDCE JUMP JUMPDEST DUP2 EQ PUSH2 0xDEE JUMPI PUSH1 0x0 DUP1 REVERT JUMPDEST POP JUMP JUMPDEST PUSH1 0x0 DUP2 MLOAD SWAP1 POP PUSH2 0xE00 DUP2 PUSH2 0xDDA JUMP JUMPDEST SWAP3 SWAP2 POP POP JUMP JUMPDEST PUSH1 0x0 PUSH1 0x20 DUP3 DUP5 SUB SLT ISZERO PUSH2 0xE1C JUMPI PUSH2 0xE1B PUSH2 0x8BB JUMP JUMPDEST JUMPDEST PUSH1 0x0 PUSH2 0xE2A DUP5 DUP3 DUP6 ADD PUSH2 0xDF1 JUMP JUMPDEST SWAP2 POP POP SWAP3 SWAP2 POP POP JUMP JUMPDEST PUSH1 0x0 PUSH1 0x40 DUP3 ADD SWAP1 POP PUSH2 0xE48 PUSH1 0x0 DUP4 ADD DUP6 PUSH2 0xD88 JUMP JUMPDEST PUSH2 0xE55 PUSH1 0x20 DUP4 ADD DUP5 PUSH2 0x9AC JUMP JUMPDEST SWAP4 SWAP3 POP POP POP JUMP JUMPDEST PUSH1 0x0 PUSH1 0xA0 DUP3 ADD SWAP1 POP PUSH2 0xE71 PUSH1 0x0 DUP4 ADD DUP9 PUSH2 0x9AC JUMP JUMPDEST PUSH2 0xE7E PUSH1 0x20 DUP4 ADD DUP8 PUSH2 0x9AC JUMP JUMPDEST DUP2 DUP2 SUB PUSH1 0x40 DUP4 ADD MSTORE PUSH2 0xE90 DUP2 DUP7 PUSH2 0xB0F JUMP JUMPDEST SWAP1 POP PUSH2 0xE9F PUSH1 0x60 DUP4 ADD DUP6 PUSH2 0xD88 JUMP JUMPDEST PUSH2 0xEAC PUSH1 0x80 DUP4 ADD DUP5 PUSH2 0x9AC JUMP JUMPDEST SWAP7 SWAP6 POP POP POP POP POP POP JUMP INVALID LOG2 PUSH5 0x6970667358 0x22 SLT KECCAK256 SELFBALANCE 0x2F 0xBD GASPRICE SWAP16 LOG4 CALLDATACOPY 0x27 PUSH7 0x89C450ECAB5279 0x27 0xC 0xCE PUSH27 0xCED515FCBBFF5E70488437EA64736F6C634300080A003300000000 "
				},
				"gasEstimates": {
					"creation": {
						"codeDepositCost": "764000",
						"executionCost": "799",
						"totalCost": "764799"
					},
					"external": {
						"getAmountOutMin(address,address,uint256)": "infinite",
						"swap(address,address,uint256,uint256,address)": "infinite"
					}
				},
				"methodIdentifiers": {
					"getAmountOutMin(address,address,uint256)": "3c50eec1",
					"swap(address,address,uint256,uint256,address)": "d5bcb9b5"
				}
			},
			"storageLayout": {
				"storage": [],
				"types": null
			},
			"userdoc": {
				"kind": "user",
				"methods": {},
				"version": 1
			}
		}
	}
}