{
	"temp.sol": {
		"temp": {
			"abi": [
				{
					"inputs": [],
					"name": "calculate",
					"outputs": [
						{
							"internalType": "uint256",
							"name": "",
							"type": "uint256"
						}
					],
					"stateMutability": "view",
					"type": "function"
				}
			],
			"devdoc": {
				"kind": "dev",
				"methods": {},
				"version": 1
			},
			"evm": {
				"assembly": "    /* \"temp.sol\":26:434  contract temp {... */\n  mstore(0x40, 0x80)\n    /* \"temp.sol\":75:76  2 */\n  0x02\n    /* \"temp.sol\":46:76  uint256 savingsDepositRate = 2 */\n  0x00\n  sstore\n    /* \"temp.sol\":26:434  contract temp {... */\n  callvalue\n  dup1\n  iszero\n  tag_1\n  jumpi\n  0x00\n  dup1\n  revert\ntag_1:\n  pop\n  dataSize(sub_0)\n  dup1\n  dataOffset(sub_0)\n  0x00\n  codecopy\n  0x00\n  return\nstop\n\nsub_0: assembly {\n        /* \"temp.sol\":26:434  contract temp {... */\n      mstore(0x40, 0x80)\n      callvalue\n      dup1\n      iszero\n      tag_1\n      jumpi\n      0x00\n      dup1\n      revert\n    tag_1:\n      pop\n      jumpi(tag_2, lt(calldatasize, 0x04))\n      shr(0xe0, calldataload(0x00))\n      dup1\n      0xca77ab65\n      eq\n      tag_3\n      jumpi\n    tag_2:\n      0x00\n      dup1\n      revert\n        /* \"temp.sol\":83:432  function calculate() public view returns (uint256) {... */\n    tag_3:\n      tag_4\n      tag_5\n      jump\t// in\n    tag_4:\n      mload(0x40)\n      tag_6\n      swap2\n      swap1\n      tag_7\n      jump\t// in\n    tag_6:\n      mload(0x40)\n      dup1\n      swap2\n      sub\n      swap1\n      return\n    tag_5:\n        /* \"temp.sol\":125:132  uint256 */\n      0x00\n        /* \"temp.sol\":144:170  uint256 calculatedInterest */\n      dup1\n        /* \"temp.sol\":309:315  10**17 */\n      0x016345785d8a0000\n        /* \"temp.sol\":293:302  100 * 365 */\n      0x8e94\n        /* \"temp.sol\":270:288  savingsDepositRate */\n      sload(0x00)\n        /* \"temp.sol\":252:267  5000 * (10**17) */\n      0x1b1ae4d6e2ef500000\n        /* \"temp.sol\":252:288  5000 * (10**17) * savingsDepositRate */\n      tag_9\n      swap2\n      swap1\n      tag_10\n      jump\t// in\n    tag_9:\n        /* \"temp.sol\":251:303  (5000 * (10**17) * savingsDepositRate) / (100 * 365) */\n      tag_11\n      swap2\n      swap1\n      tag_12\n      jump\t// in\n    tag_11:\n        /* \"temp.sol\":221:233  24 * 60 * 60 */\n      0x015180\n        /* \"temp.sol\":189:204  block.timestamp */\n      timestamp\n        /* \"temp.sol\":176:186  1723436032 */\n      0x66b98c00\n        /* \"temp.sol\":176:204  1723436032 - block.timestamp */\n      tag_13\n      swap2\n      swap1\n      tag_14\n      jump\t// in\n    tag_13:\n        /* \"temp.sol\":175:234  (1723436032 - block.timestamp) /... */\n      tag_15\n      swap2\n      swap1\n      tag_12\n      jump\t// in\n    tag_15:\n        /* \"temp.sol\":174:304  ((1723436032 - block.timestamp) /... */\n      tag_16\n      swap2\n      swap1\n      tag_10\n      jump\t// in\n    tag_16:\n        /* \"temp.sol\":173:316  (((1723436032 - block.timestamp) /... */\n      tag_17\n      swap2\n      swap1\n      tag_12\n      jump\t// in\n    tag_17:\n        /* \"temp.sol\":144:316  uint256 calculatedInterest = (((1723436032 - block.timestamp) /... */\n      swap1\n      pop\n        /* \"temp.sol\":407:425  calculatedInterest */\n      dup1\n        /* \"temp.sol\":400:425  return calculatedInterest */\n      swap2\n      pop\n      pop\n        /* \"temp.sol\":83:432  function calculate() public view returns (uint256) {... */\n      swap1\n      jump\t// out\n        /* \"#utility.yul\":7:84   */\n    tag_18:\n        /* \"#utility.yul\":44:51   */\n      0x00\n        /* \"#utility.yul\":73:78   */\n      dup2\n        /* \"#utility.yul\":62:78   */\n      swap1\n      pop\n        /* \"#utility.yul\":7:84   */\n      swap2\n      swap1\n      pop\n      jump\t// out\n        /* \"#utility.yul\":90:208   */\n    tag_19:\n        /* \"#utility.yul\":177:201   */\n      tag_25\n        /* \"#utility.yul\":195:200   */\n      dup2\n        /* \"#utility.yul\":177:201   */\n      tag_18\n      jump\t// in\n    tag_25:\n        /* \"#utility.yul\":172:175   */\n      dup3\n        /* \"#utility.yul\":165:202   */\n      mstore\n        /* \"#utility.yul\":90:208   */\n      pop\n      pop\n      jump\t// out\n        /* \"#utility.yul\":214:436   */\n    tag_7:\n        /* \"#utility.yul\":307:311   */\n      0x00\n        /* \"#utility.yul\":345:347   */\n      0x20\n        /* \"#utility.yul\":334:343   */\n      dup3\n        /* \"#utility.yul\":330:348   */\n      add\n        /* \"#utility.yul\":322:348   */\n      swap1\n      pop\n        /* \"#utility.yul\":358:429   */\n      tag_27\n        /* \"#utility.yul\":426:427   */\n      0x00\n        /* \"#utility.yul\":415:424   */\n      dup4\n        /* \"#utility.yul\":411:428   */\n      add\n        /* \"#utility.yul\":402:408   */\n      dup5\n        /* \"#utility.yul\":358:429   */\n      tag_19\n      jump\t// in\n    tag_27:\n        /* \"#utility.yul\":214:436   */\n      swap3\n      swap2\n      pop\n      pop\n      jump\t// out\n        /* \"#utility.yul\":442:622   */\n    tag_20:\n        /* \"#utility.yul\":490:567   */\n      0x4e487b7100000000000000000000000000000000000000000000000000000000\n        /* \"#utility.yul\":487:488   */\n      0x00\n        /* \"#utility.yul\":480:568   */\n      mstore\n        /* \"#utility.yul\":587:591   */\n      0x11\n        /* \"#utility.yul\":584:585   */\n      0x04\n        /* \"#utility.yul\":577:592   */\n      mstore\n        /* \"#utility.yul\":611:615   */\n      0x24\n        /* \"#utility.yul\":608:609   */\n      0x00\n        /* \"#utility.yul\":601:616   */\n      revert\n        /* \"#utility.yul\":628:1038   */\n    tag_10:\n        /* \"#utility.yul\":668:675   */\n      0x00\n        /* \"#utility.yul\":691:711   */\n      tag_30\n        /* \"#utility.yul\":709:710   */\n      dup3\n        /* \"#utility.yul\":691:711   */\n      tag_18\n      jump\t// in\n    tag_30:\n        /* \"#utility.yul\":686:711   */\n      swap2\n      pop\n        /* \"#utility.yul\":725:745   */\n      tag_31\n        /* \"#utility.yul\":743:744   */\n      dup4\n        /* \"#utility.yul\":725:745   */\n      tag_18\n      jump\t// in\n    tag_31:\n        /* \"#utility.yul\":720:745   */\n      swap3\n      pop\n        /* \"#utility.yul\":780:781   */\n      dup3\n        /* \"#utility.yul\":777:778   */\n      dup3\n        /* \"#utility.yul\":773:782   */\n      mul\n        /* \"#utility.yul\":802:832   */\n      tag_32\n        /* \"#utility.yul\":820:831   */\n      dup2\n        /* \"#utility.yul\":802:832   */\n      tag_18\n      jump\t// in\n    tag_32:\n        /* \"#utility.yul\":791:832   */\n      swap2\n      pop\n        /* \"#utility.yul\":981:982   */\n      dup3\n        /* \"#utility.yul\":972:979   */\n      dup3\n        /* \"#utility.yul\":968:983   */\n      div\n        /* \"#utility.yul\":965:966   */\n      dup5\n        /* \"#utility.yul\":962:984   */\n      eq\n        /* \"#utility.yul\":942:943   */\n      dup4\n        /* \"#utility.yul\":935:944   */\n      iszero\n        /* \"#utility.yul\":915:998   */\n      or\n        /* \"#utility.yul\":892:1031   */\n      tag_33\n      jumpi\n        /* \"#utility.yul\":1011:1029   */\n      tag_34\n      tag_20\n      jump\t// in\n    tag_34:\n        /* \"#utility.yul\":892:1031   */\n    tag_33:\n        /* \"#utility.yul\":676:1038   */\n      pop\n        /* \"#utility.yul\":628:1038   */\n      swap3\n      swap2\n      pop\n      pop\n      jump\t// out\n        /* \"#utility.yul\":1044:1224   */\n    tag_21:\n        /* \"#utility.yul\":1092:1169   */\n      0x4e487b7100000000000000000000000000000000000000000000000000000000\n        /* \"#utility.yul\":1089:1090   */\n      0x00\n        /* \"#utility.yul\":1082:1170   */\n      mstore\n        /* \"#utility.yul\":1189:1193   */\n      0x12\n        /* \"#utility.yul\":1186:1187   */\n      0x04\n        /* \"#utility.yul\":1179:1194   */\n      mstore\n        /* \"#utility.yul\":1213:1217   */\n      0x24\n        /* \"#utility.yul\":1210:1211   */\n      0x00\n        /* \"#utility.yul\":1203:1218   */\n      revert\n        /* \"#utility.yul\":1230:1415   */\n    tag_12:\n        /* \"#utility.yul\":1270:1271   */\n      0x00\n        /* \"#utility.yul\":1287:1307   */\n      tag_37\n        /* \"#utility.yul\":1305:1306   */\n      dup3\n        /* \"#utility.yul\":1287:1307   */\n      tag_18\n      jump\t// in\n    tag_37:\n        /* \"#utility.yul\":1282:1307   */\n      swap2\n      pop\n        /* \"#utility.yul\":1321:1341   */\n      tag_38\n        /* \"#utility.yul\":1339:1340   */\n      dup4\n        /* \"#utility.yul\":1321:1341   */\n      tag_18\n      jump\t// in\n    tag_38:\n        /* \"#utility.yul\":1316:1341   */\n      swap3\n      pop\n        /* \"#utility.yul\":1360:1361   */\n      dup3\n        /* \"#utility.yul\":1350:1385   */\n      tag_39\n      jumpi\n        /* \"#utility.yul\":1365:1383   */\n      tag_40\n      tag_21\n      jump\t// in\n    tag_40:\n        /* \"#utility.yul\":1350:1385   */\n    tag_39:\n        /* \"#utility.yul\":1407:1408   */\n      dup3\n        /* \"#utility.yul\":1404:1405   */\n      dup3\n        /* \"#utility.yul\":1400:1409   */\n      div\n        /* \"#utility.yul\":1395:1409   */\n      swap1\n      pop\n        /* \"#utility.yul\":1230:1415   */\n      swap3\n      swap2\n      pop\n      pop\n      jump\t// out\n        /* \"#utility.yul\":1421:1615   */\n    tag_14:\n        /* \"#utility.yul\":1461:1465   */\n      0x00\n        /* \"#utility.yul\":1481:1501   */\n      tag_42\n        /* \"#utility.yul\":1499:1500   */\n      dup3\n        /* \"#utility.yul\":1481:1501   */\n      tag_18\n      jump\t// in\n    tag_42:\n        /* \"#utility.yul\":1476:1501   */\n      swap2\n      pop\n        /* \"#utility.yul\":1515:1535   */\n      tag_43\n        /* \"#utility.yul\":1533:1534   */\n      dup4\n        /* \"#utility.yul\":1515:1535   */\n      tag_18\n      jump\t// in\n    tag_43:\n        /* \"#utility.yul\":1510:1535   */\n      swap3\n      pop\n        /* \"#utility.yul\":1559:1560   */\n      dup3\n        /* \"#utility.yul\":1556:1557   */\n      dup3\n        /* \"#utility.yul\":1552:1561   */\n      sub\n        /* \"#utility.yul\":1544:1561   */\n      swap1\n      pop\n        /* \"#utility.yul\":1583:1584   */\n      dup2\n        /* \"#utility.yul\":1577:1581   */\n      dup2\n        /* \"#utility.yul\":1574:1585   */\n      gt\n        /* \"#utility.yul\":1571:1608   */\n      iszero\n      tag_44\n      jumpi\n        /* \"#utility.yul\":1588:1606   */\n      tag_45\n      tag_20\n      jump\t// in\n    tag_45:\n        /* \"#utility.yul\":1571:1608   */\n    tag_44:\n        /* \"#utility.yul\":1421:1615   */\n      swap3\n      swap2\n      pop\n      pop\n      jump\t// out\n\n    auxdata: 0xa2646970667358221220f3d8d4090bfc2d56a94646f4828554047fa5f0bf934ebc7b81c25fd6312d27ae64736f6c63430008150033\n}\n",
				"bytecode": {
					"linkReferences": {},
					"object": "6080604052600260005534801561001557600080fd5b50610228806100256000396000f3fe608060405234801561001057600080fd5b506004361061002b5760003560e01c8063ca77ab6514610030575b600080fd5b61003861004e565b60405161004591906100d2565b60405180910390f35b60008067016345785d8a0000618e94600054681b1ae4d6e2ef500000610074919061011c565b61007e919061018d565b62015180426366b98c0061009291906101be565b61009c919061018d565b6100a6919061011c565b6100b0919061018d565b90508091505090565b6000819050919050565b6100cc816100b9565b82525050565b60006020820190506100e760008301846100c3565b92915050565b7f4e487b7100000000000000000000000000000000000000000000000000000000600052601160045260246000fd5b6000610127826100b9565b9150610132836100b9565b9250828202610140816100b9565b91508282048414831517610157576101566100ed565b5b5092915050565b7f4e487b7100000000000000000000000000000000000000000000000000000000600052601260045260246000fd5b6000610198826100b9565b91506101a3836100b9565b9250826101b3576101b261015e565b5b828204905092915050565b60006101c9826100b9565b91506101d4836100b9565b92508282039050818111156101ec576101eb6100ed565b5b9291505056fea2646970667358221220f3d8d4090bfc2d56a94646f4828554047fa5f0bf934ebc7b81c25fd6312d27ae64736f6c63430008150033",
					"opcodes": "PUSH1 0x80 PUSH1 0x40 MSTORE PUSH1 0x2 PUSH1 0x0 SSTORE CALLVALUE DUP1 ISZERO PUSH2 0x15 JUMPI PUSH1 0x0 DUP1 REVERT JUMPDEST POP PUSH2 0x228 DUP1 PUSH2 0x25 PUSH1 0x0 CODECOPY PUSH1 0x0 RETURN INVALID PUSH1 0x80 PUSH1 0x40 MSTORE CALLVALUE DUP1 ISZERO PUSH2 0x10 JUMPI PUSH1 0x0 DUP1 REVERT JUMPDEST POP PUSH1 0x4 CALLDATASIZE LT PUSH2 0x2B JUMPI PUSH1 0x0 CALLDATALOAD PUSH1 0xE0 SHR DUP1 PUSH4 0xCA77AB65 EQ PUSH2 0x30 JUMPI JUMPDEST PUSH1 0x0 DUP1 REVERT JUMPDEST PUSH2 0x38 PUSH2 0x4E JUMP JUMPDEST PUSH1 0x40 MLOAD PUSH2 0x45 SWAP2 SWAP1 PUSH2 0xD2 JUMP JUMPDEST PUSH1 0x40 MLOAD DUP1 SWAP2 SUB SWAP1 RETURN JUMPDEST PUSH1 0x0 DUP1 PUSH8 0x16345785D8A0000 PUSH2 0x8E94 PUSH1 0x0 SLOAD PUSH9 0x1B1AE4D6E2EF500000 PUSH2 0x74 SWAP2 SWAP1 PUSH2 0x11C JUMP JUMPDEST PUSH2 0x7E SWAP2 SWAP1 PUSH2 0x18D JUMP JUMPDEST PUSH3 0x15180 TIMESTAMP PUSH4 0x66B98C00 PUSH2 0x92 SWAP2 SWAP1 PUSH2 0x1BE JUMP JUMPDEST PUSH2 0x9C SWAP2 SWAP1 PUSH2 0x18D JUMP JUMPDEST PUSH2 0xA6 SWAP2 SWAP1 PUSH2 0x11C JUMP JUMPDEST PUSH2 0xB0 SWAP2 SWAP1 PUSH2 0x18D JUMP JUMPDEST SWAP1 POP DUP1 SWAP2 POP POP SWAP1 JUMP JUMPDEST PUSH1 0x0 DUP2 SWAP1 POP SWAP2 SWAP1 POP JUMP JUMPDEST PUSH2 0xCC DUP2 PUSH2 0xB9 JUMP JUMPDEST DUP3 MSTORE POP POP JUMP JUMPDEST PUSH1 0x0 PUSH1 0x20 DUP3 ADD SWAP1 POP PUSH2 0xE7 PUSH1 0x0 DUP4 ADD DUP5 PUSH2 0xC3 JUMP JUMPDEST SWAP3 SWAP2 POP POP JUMP JUMPDEST PUSH32 0x4E487B7100000000000000000000000000000000000000000000000000000000 PUSH1 0x0 MSTORE PUSH1 0x11 PUSH1 0x4 MSTORE PUSH1 0x24 PUSH1 0x0 REVERT JUMPDEST PUSH1 0x0 PUSH2 0x127 DUP3 PUSH2 0xB9 JUMP JUMPDEST SWAP2 POP PUSH2 0x132 DUP4 PUSH2 0xB9 JUMP JUMPDEST SWAP3 POP DUP3 DUP3 MUL PUSH2 0x140 DUP2 PUSH2 0xB9 JUMP JUMPDEST SWAP2 POP DUP3 DUP3 DIV DUP5 EQ DUP4 ISZERO OR PUSH2 0x157 JUMPI PUSH2 0x156 PUSH2 0xED JUMP JUMPDEST JUMPDEST POP SWAP3 SWAP2 POP POP JUMP JUMPDEST PUSH32 0x4E487B7100000000000000000000000000000000000000000000000000000000 PUSH1 0x0 MSTORE PUSH1 0x12 PUSH1 0x4 MSTORE PUSH1 0x24 PUSH1 0x0 REVERT JUMPDEST PUSH1 0x0 PUSH2 0x198 DUP3 PUSH2 0xB9 JUMP JUMPDEST SWAP2 POP PUSH2 0x1A3 DUP4 PUSH2 0xB9 JUMP JUMPDEST SWAP3 POP DUP3 PUSH2 0x1B3 JUMPI PUSH2 0x1B2 PUSH2 0x15E JUMP JUMPDEST JUMPDEST DUP3 DUP3 DIV SWAP1 POP SWAP3 SWAP2 POP POP JUMP JUMPDEST PUSH1 0x0 PUSH2 0x1C9 DUP3 PUSH2 0xB9 JUMP JUMPDEST SWAP2 POP PUSH2 0x1D4 DUP4 PUSH2 0xB9 JUMP JUMPDEST SWAP3 POP DUP3 DUP3 SUB SWAP1 POP DUP2 DUP2 GT ISZERO PUSH2 0x1EC JUMPI PUSH2 0x1EB PUSH2 0xED JUMP JUMPDEST JUMPDEST SWAP3 SWAP2 POP POP JUMP INVALID LOG2 PUSH5 0x6970667358 0x22 SLT KECCAK256 RETURN 0xD8 0xD4 MULMOD SIGNEXTEND 0xFC 0x2D JUMP 0xA9 CHAINID CHAINID DELEGATECALL DUP3 DUP6 SLOAD DIV PUSH32 0xA5F0BF934EBC7B81C25FD6312D27AE64736F6C63430008150033000000000000 "
				},
				"gasEstimates": {
					"creation": {
						"codeDepositCost": "110400",
						"executionCost": "22265",
						"totalCost": "132665"
					},
					"external": {
						"calculate()": "infinite"
					}
				},
				"methodIdentifiers": {
					"calculate()": "ca77ab65"
				}
			},
			"storageLayout": {
				"storage": [
					{
						"astId": 4,
						"contract": "temp.sol:temp",
						"label": "savingsDepositRate",
						"offset": 0,
						"slot": "0",
						"type": "t_uint256"
					}
				],
				"types": {
					"t_uint256": {
						"encoding": "inplace",
						"label": "uint256",
						"numberOfBytes": "32"
					}
				}
			},
			"userdoc": {
				"kind": "user",
				"methods": {},
				"version": 1
			}
		}
	}
}