{
	"whitlist.sol": {
		"MerkleTreeWhiteListChecker": {
			"abi": [
				{
					"inputs": [],
					"stateMutability": "nonpayable",
					"type": "constructor"
				},
				{
					"inputs": [],
					"name": "admin",
					"outputs": [
						{
							"internalType": "address",
							"name": "",
							"type": "address"
						}
					],
					"stateMutability": "view",
					"type": "function"
				},
				{
					"inputs": [],
					"name": "count",
					"outputs": [
						{
							"internalType": "uint256",
							"name": "",
							"type": "uint256"
						}
					],
					"stateMutability": "view",
					"type": "function"
				},
				{
					"inputs": [
						{
							"internalType": "bytes32[]",
							"name": "proof",
							"type": "bytes32[]"
						},
						{
							"internalType": "address",
							"name": "_addr",
							"type": "address"
						}
					],
					"name": "isValidProof",
					"outputs": [
						{
							"internalType": "bool",
							"name": "",
							"type": "bool"
						}
					],
					"stateMutability": "view",
					"type": "function"
				},
				{
					"inputs": [],
					"name": "rootHash",
					"outputs": [
						{
							"internalType": "bytes32",
							"name": "",
							"type": "bytes32"
						}
					],
					"stateMutability": "view",
					"type": "function"
				},
				{
					"inputs": [
						{
							"internalType": "address",
							"name": "_admin",
							"type": "address"
						}
					],
					"name": "setAdmin",
					"outputs": [
						{
							"internalType": "bool",
							"name": "",
							"type": "bool"
						}
					],
					"stateMutability": "nonpayable",
					"type": "function"
				},
				{
					"inputs": [
						{
							"internalType": "bytes32",
							"name": "_hash",
							"type": "bytes32"
						}
					],
					"name": "setRootHash",
					"outputs": [
						{
							"internalType": "bool",
							"name": "",
							"type": "bool"
						}
					],
					"stateMutability": "nonpayable",
					"type": "function"
				}
			],
			"devdoc": {
				"kind": "dev",
				"methods": {},
				"version": 1
			},
			"evm": {
				"assembly": "    /* \"whitlist.sol\":134:912  contract MerkleTreeWhiteListChecker {... */\n  mstore(0x40, 0x80)\n    /* \"whitlist.sol\":376:424  constructor(){... */\n  callvalue\n  dup1\n  iszero\n  tag_1\n  jumpi\n  0x00\n  dup1\n  revert\ntag_1:\n  pop\n    /* \"whitlist.sol\":407:417  msg.sender */\n  caller\n    /* \"whitlist.sol\":399:404  admin */\n  0x02\n  0x00\n    /* \"whitlist.sol\":399:417  admin = msg.sender */\n  0x0100\n  exp\n  dup2\n  sload\n  dup2\n  0xffffffffffffffffffffffffffffffffffffffff\n  mul\n  not\n  and\n  swap1\n  dup4\n  0xffffffffffffffffffffffffffffffffffffffff\n  and\n  mul\n  or\n  swap1\n  sstore\n  pop\n    /* \"whitlist.sol\":134:912  contract MerkleTreeWhiteListChecker {... */\n  dataSize(sub_0)\n  dup1\n  dataOffset(sub_0)\n  0x00\n  codecopy\n  0x00\n  return\nstop\n\nsub_0: assembly {\n        /* \"whitlist.sol\":134:912  contract MerkleTreeWhiteListChecker {... */\n      mstore(0x40, 0x80)\n      callvalue\n      dup1\n      iszero\n      tag_1\n      jumpi\n      0x00\n      dup1\n      revert\n    tag_1:\n      pop\n      jumpi(tag_2, lt(calldatasize, 0x04))\n      shr(0xe0, calldataload(0x00))\n      dup1\n      0x06661abd\n      eq\n      tag_3\n      jumpi\n      dup1\n      0x1d80009a\n      eq\n      tag_4\n      jumpi\n      dup1\n      0x2d7eae66\n      eq\n      tag_5\n      jumpi\n      dup1\n      0x704b6c02\n      eq\n      tag_6\n      jumpi\n      dup1\n      0x9065e9d3\n      eq\n      tag_7\n      jumpi\n      dup1\n      0xf851a440\n      eq\n      tag_8\n      jumpi\n    tag_2:\n      0x00\n      dup1\n      revert\n        /* \"whitlist.sol\":205:225  uint256 public count */\n    tag_3:\n      tag_9\n      tag_10\n      jump\t// in\n    tag_9:\n      mload(0x40)\n      tag_11\n      swap2\n      swap1\n      tag_12\n      jump\t// in\n    tag_11:\n      mload(0x40)\n      dup1\n      swap2\n      sub\n      swap1\n      return\n        /* \"whitlist.sol\":176:199  bytes32 public rootHash */\n    tag_4:\n      tag_13\n      tag_14\n      jump\t// in\n    tag_13:\n      mload(0x40)\n      tag_15\n      swap2\n      swap1\n      tag_16\n      jump\t// in\n    tag_15:\n      mload(0x40)\n      dup1\n      swap2\n      sub\n      swap1\n      return\n        /* \"whitlist.sol\":430:532  function setRootHash(bytes32 _hash) external onlyowner returns(bool) {... */\n    tag_5:\n      tag_17\n      0x04\n      dup1\n      calldatasize\n      sub\n      dup2\n      add\n      swap1\n      tag_18\n      swap2\n      swap1\n      tag_19\n      jump\t// in\n    tag_18:\n      tag_20\n      jump\t// in\n    tag_17:\n      mload(0x40)\n      tag_21\n      swap2\n      swap1\n      tag_22\n      jump\t// in\n    tag_21:\n      mload(0x40)\n      dup1\n      swap2\n      sub\n      swap1\n      return\n        /* \"whitlist.sol\":538:658  function setAdmin(address _admin) external onlyowner returns(bool) {... */\n    tag_6:\n      tag_23\n      0x04\n      dup1\n      calldatasize\n      sub\n      dup2\n      add\n      swap1\n      tag_24\n      swap2\n      swap1\n      tag_25\n      jump\t// in\n    tag_24:\n      tag_26\n      jump\t// in\n    tag_23:\n      mload(0x40)\n      tag_27\n      swap2\n      swap1\n      tag_22\n      jump\t// in\n    tag_27:\n      mload(0x40)\n      dup1\n      swap2\n      sub\n      swap1\n      return\n        /* \"whitlist.sol\":664:909  function isValidProof(bytes32[] calldata proof, address _addr)  external view returns (bool) {... */\n    tag_7:\n      tag_28\n      0x04\n      dup1\n      calldatasize\n      sub\n      dup2\n      add\n      swap1\n      tag_29\n      swap2\n      swap1\n      tag_30\n      jump\t// in\n    tag_29:\n      tag_31\n      jump\t// in\n    tag_28:\n      mload(0x40)\n      tag_32\n      swap2\n      swap1\n      tag_22\n      jump\t// in\n    tag_32:\n      mload(0x40)\n      dup1\n      swap2\n      sub\n      swap1\n      return\n        /* \"whitlist.sol\":231:251  address public admin */\n    tag_8:\n      tag_33\n      tag_34\n      jump\t// in\n    tag_33:\n      mload(0x40)\n      tag_35\n      swap2\n      swap1\n      tag_36\n      jump\t// in\n    tag_35:\n      mload(0x40)\n      dup1\n      swap2\n      sub\n      swap1\n      return\n        /* \"whitlist.sol\":205:225  uint256 public count */\n    tag_10:\n      sload(0x01)\n      dup2\n      jump\t// out\n        /* \"whitlist.sol\":176:199  bytes32 public rootHash */\n    tag_14:\n      sload(0x00)\n      dup2\n      jump\t// out\n        /* \"whitlist.sol\":430:532  function setRootHash(bytes32 _hash) external onlyowner returns(bool) {... */\n    tag_20:\n        /* \"whitlist.sol\":493:497  bool */\n      0x00\n        /* \"whitlist.sol\":311:316  admin */\n      0x02\n      0x00\n      swap1\n      sload\n      swap1\n      0x0100\n      exp\n      swap1\n      div\n      0xffffffffffffffffffffffffffffffffffffffff\n      and\n        /* \"whitlist.sol\":297:316  msg.sender == admin */\n      0xffffffffffffffffffffffffffffffffffffffff\n      and\n        /* \"whitlist.sol\":297:307  msg.sender */\n      caller\n        /* \"whitlist.sol\":297:316  msg.sender == admin */\n      0xffffffffffffffffffffffffffffffffffffffff\n      and\n      eq\n        /* \"whitlist.sol\":289:348  require(msg.sender == admin, \"admin can call the function\") */\n      tag_38\n      jumpi\n      mload(0x40)\n      0x08c379a000000000000000000000000000000000000000000000000000000000\n      dup2\n      mstore\n      0x04\n      add\n      tag_39\n      swap1\n      tag_40\n      jump\t// in\n    tag_39:\n      mload(0x40)\n      dup1\n      swap2\n      sub\n      swap1\n      revert\n    tag_38:\n        /* \"whitlist.sol\":520:525  _hash */\n      dup2\n        /* \"whitlist.sol\":509:517  rootHash */\n      0x00\n        /* \"whitlist.sol\":509:525  rootHash = _hash */\n      dup2\n      swap1\n      sstore\n      pop\n        /* \"whitlist.sol\":430:532  function setRootHash(bytes32 _hash) external onlyowner returns(bool) {... */\n      swap2\n      swap1\n      pop\n      jump\t// out\n        /* \"whitlist.sol\":538:658  function setAdmin(address _admin) external onlyowner returns(bool) {... */\n    tag_26:\n        /* \"whitlist.sol\":599:603  bool */\n      0x00\n        /* \"whitlist.sol\":311:316  admin */\n      0x02\n      0x00\n      swap1\n      sload\n      swap1\n      0x0100\n      exp\n      swap1\n      div\n      0xffffffffffffffffffffffffffffffffffffffff\n      and\n        /* \"whitlist.sol\":297:316  msg.sender == admin */\n      0xffffffffffffffffffffffffffffffffffffffff\n      and\n        /* \"whitlist.sol\":297:307  msg.sender */\n      caller\n        /* \"whitlist.sol\":297:316  msg.sender == admin */\n      0xffffffffffffffffffffffffffffffffffffffff\n      and\n      eq\n        /* \"whitlist.sol\":289:348  require(msg.sender == admin, \"admin can call the function\") */\n      tag_43\n      jumpi\n      mload(0x40)\n      0x08c379a000000000000000000000000000000000000000000000000000000000\n      dup2\n      mstore\n      0x04\n      add\n      tag_44\n      swap1\n      tag_40\n      jump\t// in\n    tag_44:\n      mload(0x40)\n      dup1\n      swap2\n      sub\n      swap1\n      revert\n    tag_43:\n        /* \"whitlist.sol\":647:651  true */\n      0x01\n        /* \"whitlist.sol\":640:651  return true */\n      swap1\n      pop\n        /* \"whitlist.sol\":538:658  function setAdmin(address _admin) external onlyowner returns(bool) {... */\n      swap2\n      swap1\n      pop\n      jump\t// out\n        /* \"whitlist.sol\":664:909  function isValidProof(bytes32[] calldata proof, address _addr)  external view returns (bool) {... */\n    tag_31:\n        /* \"whitlist.sol\":751:755  bool */\n      0x00\n        /* \"whitlist.sol\":830:902  MerkleProof.verify(proof, rootHash,  keccak256(abi.encodePacked(_addr))) */\n      tag_47\n        /* \"whitlist.sol\":849:854  proof */\n      dup5\n      dup5\n        /* \"whitlist.sol\":830:902  MerkleProof.verify(proof, rootHash,  keccak256(abi.encodePacked(_addr))) */\n      dup1\n      dup1\n      0x20\n      mul\n      0x20\n      add\n      mload(0x40)\n      swap1\n      dup2\n      add\n      0x40\n      mstore\n      dup1\n      swap4\n      swap3\n      swap2\n      swap1\n      dup2\n      dup2\n      mstore\n      0x20\n      add\n      dup4\n      dup4\n      0x20\n      mul\n      dup1\n      dup3\n      dup5\n      calldatacopy\n      0x00\n      dup2\n      dup5\n      add\n      mstore\n      not(0x1f)\n      0x1f\n      dup3\n      add\n      and\n      swap1\n      pop\n      dup1\n      dup4\n      add\n      swap3\n      pop\n      pop\n      pop\n      pop\n      pop\n      pop\n      pop\n        /* \"whitlist.sol\":856:864  rootHash */\n      sload(0x00)\n        /* \"whitlist.sol\":894:899  _addr */\n      dup5\n        /* \"whitlist.sol\":877:900  abi.encodePacked(_addr) */\n      add(0x20, mload(0x40))\n      tag_48\n      swap2\n      swap1\n      tag_49\n      jump\t// in\n    tag_48:\n      mload(0x40)\n      0x20\n      dup2\n      dup4\n      sub\n      sub\n      dup2\n      mstore\n      swap1\n      0x40\n      mstore\n        /* \"whitlist.sol\":867:901  keccak256(abi.encodePacked(_addr)) */\n      dup1\n      mload\n      swap1\n      0x20\n      add\n      keccak256\n        /* \"whitlist.sol\":830:848  MerkleProof.verify */\n      tag_50\n        /* \"whitlist.sol\":830:902  MerkleProof.verify(proof, rootHash,  keccak256(abi.encodePacked(_addr))) */\n      jump\t// in\n    tag_47:\n        /* \"whitlist.sol\":823:902  return MerkleProof.verify(proof, rootHash,  keccak256(abi.encodePacked(_addr))) */\n      swap1\n      pop\n        /* \"whitlist.sol\":664:909  function isValidProof(bytes32[] calldata proof, address _addr)  external view returns (bool) {... */\n      swap4\n      swap3\n      pop\n      pop\n      pop\n      jump\t// out\n        /* \"whitlist.sol\":231:251  address public admin */\n    tag_34:\n      0x02\n      0x00\n      swap1\n      sload\n      swap1\n      0x0100\n      exp\n      swap1\n      div\n      0xffffffffffffffffffffffffffffffffffffffff\n      and\n      dup2\n      jump\t// out\n        /* \"@openzeppelin/contracts/utils/cryptography/MerkleProof.sol\":1156:1310  function verify(bytes32[] memory proof, bytes32 root, bytes32 leaf) internal pure returns (bool) {... */\n    tag_50:\n        /* \"@openzeppelin/contracts/utils/cryptography/MerkleProof.sol\":1247:1251  bool */\n      0x00\n        /* \"@openzeppelin/contracts/utils/cryptography/MerkleProof.sol\":1299:1303  root */\n      dup3\n        /* \"@openzeppelin/contracts/utils/cryptography/MerkleProof.sol\":1270:1295  processProof(proof, leaf) */\n      tag_52\n        /* \"@openzeppelin/contracts/utils/cryptography/MerkleProof.sol\":1283:1288  proof */\n      dup6\n        /* \"@openzeppelin/contracts/utils/cryptography/MerkleProof.sol\":1290:1294  leaf */\n      dup5\n        /* \"@openzeppelin/contracts/utils/cryptography/MerkleProof.sol\":1270:1282  processProof */\n      tag_53\n        /* \"@openzeppelin/contracts/utils/cryptography/MerkleProof.sol\":1270:1295  processProof(proof, leaf) */\n      jump\t// in\n    tag_52:\n        /* \"@openzeppelin/contracts/utils/cryptography/MerkleProof.sol\":1270:1303  processProof(proof, leaf) == root */\n      eq\n        /* \"@openzeppelin/contracts/utils/cryptography/MerkleProof.sol\":1263:1303  return processProof(proof, leaf) == root */\n      swap1\n      pop\n        /* \"@openzeppelin/contracts/utils/cryptography/MerkleProof.sol\":1156:1310  function verify(bytes32[] memory proof, bytes32 root, bytes32 leaf) internal pure returns (bool) {... */\n      swap4\n      swap3\n      pop\n      pop\n      pop\n      jump\t// out\n        /* \"@openzeppelin/contracts/utils/cryptography/MerkleProof.sol\":1934:2224  function processProof(bytes32[] memory proof, bytes32 leaf) internal pure returns (bytes32) {... */\n    tag_53:\n        /* \"@openzeppelin/contracts/utils/cryptography/MerkleProof.sol\":2017:2024  bytes32 */\n      0x00\n        /* \"@openzeppelin/contracts/utils/cryptography/MerkleProof.sol\":2036:2056  bytes32 computedHash */\n      dup1\n        /* \"@openzeppelin/contracts/utils/cryptography/MerkleProof.sol\":2059:2063  leaf */\n      dup3\n        /* \"@openzeppelin/contracts/utils/cryptography/MerkleProof.sol\":2036:2063  bytes32 computedHash = leaf */\n      swap1\n      pop\n        /* \"@openzeppelin/contracts/utils/cryptography/MerkleProof.sol\":2078:2087  uint256 i */\n      0x00\n        /* \"@openzeppelin/contracts/utils/cryptography/MerkleProof.sol\":2073:2189  for (uint256 i = 0; i < proof.length; i++) {... */\n    tag_55:\n        /* \"@openzeppelin/contracts/utils/cryptography/MerkleProof.sol\":2097:2102  proof */\n      dup5\n        /* \"@openzeppelin/contracts/utils/cryptography/MerkleProof.sol\":2097:2109  proof.length */\n      mload\n        /* \"@openzeppelin/contracts/utils/cryptography/MerkleProof.sol\":2093:2094  i */\n      dup2\n        /* \"@openzeppelin/contracts/utils/cryptography/MerkleProof.sol\":2093:2109  i < proof.length */\n      lt\n        /* \"@openzeppelin/contracts/utils/cryptography/MerkleProof.sol\":2073:2189  for (uint256 i = 0; i < proof.length; i++) {... */\n      iszero\n      tag_56\n      jumpi\n        /* \"@openzeppelin/contracts/utils/cryptography/MerkleProof.sol\":2145:2178  _hashPair(computedHash, proof[i]) */\n      tag_58\n        /* \"@openzeppelin/contracts/utils/cryptography/MerkleProof.sol\":2155:2167  computedHash */\n      dup3\n        /* \"@openzeppelin/contracts/utils/cryptography/MerkleProof.sol\":2169:2174  proof */\n      dup7\n        /* \"@openzeppelin/contracts/utils/cryptography/MerkleProof.sol\":2175:2176  i */\n      dup4\n        /* \"@openzeppelin/contracts/utils/cryptography/MerkleProof.sol\":2169:2177  proof[i] */\n      dup2\n      mload\n      dup2\n      lt\n      tag_59\n      jumpi\n      tag_60\n      tag_61\n      jump\t// in\n    tag_60:\n    tag_59:\n      0x20\n      mul\n      0x20\n      add\n      add\n      mload\n        /* \"@openzeppelin/contracts/utils/cryptography/MerkleProof.sol\":2145:2154  _hashPair */\n      tag_62\n        /* \"@openzeppelin/contracts/utils/cryptography/MerkleProof.sol\":2145:2178  _hashPair(computedHash, proof[i]) */\n      jump\t// in\n    tag_58:\n        /* \"@openzeppelin/contracts/utils/cryptography/MerkleProof.sol\":2130:2178  computedHash = _hashPair(computedHash, proof[i]) */\n      swap2\n      pop\n        /* \"@openzeppelin/contracts/utils/cryptography/MerkleProof.sol\":2111:2114  i++ */\n      dup1\n      dup1\n      tag_63\n      swap1\n      tag_64\n      jump\t// in\n    tag_63:\n      swap2\n      pop\n      pop\n        /* \"@openzeppelin/contracts/utils/cryptography/MerkleProof.sol\":2073:2189  for (uint256 i = 0; i < proof.length; i++) {... */\n      jump(tag_55)\n    tag_56:\n      pop\n        /* \"@openzeppelin/contracts/utils/cryptography/MerkleProof.sol\":2205:2217  computedHash */\n      dup1\n        /* \"@openzeppelin/contracts/utils/cryptography/MerkleProof.sol\":2198:2217  return computedHash */\n      swap2\n      pop\n      pop\n        /* \"@openzeppelin/contracts/utils/cryptography/MerkleProof.sol\":1934:2224  function processProof(bytes32[] memory proof, bytes32 leaf) internal pure returns (bytes32) {... */\n      swap3\n      swap2\n      pop\n      pop\n      jump\t// out\n        /* \"@openzeppelin/contracts/utils/cryptography/MerkleProof.sol\":9205:9352  function _hashPair(bytes32 a, bytes32 b) private pure returns (bytes32) {... */\n    tag_62:\n        /* \"@openzeppelin/contracts/utils/cryptography/MerkleProof.sol\":9268:9275  bytes32 */\n      0x00\n        /* \"@openzeppelin/contracts/utils/cryptography/MerkleProof.sol\":9298:9299  b */\n      dup2\n        /* \"@openzeppelin/contracts/utils/cryptography/MerkleProof.sol\":9294:9295  a */\n      dup4\n        /* \"@openzeppelin/contracts/utils/cryptography/MerkleProof.sol\":9294:9299  a < b */\n      lt\n        /* \"@openzeppelin/contracts/utils/cryptography/MerkleProof.sol\":9294:9345  a < b ? _efficientHash(a, b) : _efficientHash(b, a) */\n      tag_66\n      jumpi\n        /* \"@openzeppelin/contracts/utils/cryptography/MerkleProof.sol\":9325:9345  _efficientHash(b, a) */\n      tag_67\n        /* \"@openzeppelin/contracts/utils/cryptography/MerkleProof.sol\":9340:9341  b */\n      dup3\n        /* \"@openzeppelin/contracts/utils/cryptography/MerkleProof.sol\":9343:9344  a */\n      dup5\n        /* \"@openzeppelin/contracts/utils/cryptography/MerkleProof.sol\":9325:9339  _efficientHash */\n      tag_68\n        /* \"@openzeppelin/contracts/utils/cryptography/MerkleProof.sol\":9325:9345  _efficientHash(b, a) */\n      jump\t// in\n    tag_67:\n        /* \"@openzeppelin/contracts/utils/cryptography/MerkleProof.sol\":9294:9345  a < b ? _efficientHash(a, b) : _efficientHash(b, a) */\n      jump(tag_69)\n    tag_66:\n        /* \"@openzeppelin/contracts/utils/cryptography/MerkleProof.sol\":9302:9322  _efficientHash(a, b) */\n      tag_70\n        /* \"@openzeppelin/contracts/utils/cryptography/MerkleProof.sol\":9317:9318  a */\n      dup4\n        /* \"@openzeppelin/contracts/utils/cryptography/MerkleProof.sol\":9320:9321  b */\n      dup4\n        /* \"@openzeppelin/contracts/utils/cryptography/MerkleProof.sol\":9302:9316  _efficientHash */\n      tag_68\n        /* \"@openzeppelin/contracts/utils/cryptography/MerkleProof.sol\":9302:9322  _efficientHash(a, b) */\n      jump\t// in\n    tag_70:\n        /* \"@openzeppelin/contracts/utils/cryptography/MerkleProof.sol\":9294:9345  a < b ? _efficientHash(a, b) : _efficientHash(b, a) */\n    tag_69:\n        /* \"@openzeppelin/contracts/utils/cryptography/MerkleProof.sol\":9287:9345  return a < b ? _efficientHash(a, b) : _efficientHash(b, a) */\n      swap1\n      pop\n        /* \"@openzeppelin/contracts/utils/cryptography/MerkleProof.sol\":9205:9352  function _hashPair(bytes32 a, bytes32 b) private pure returns (bytes32) {... */\n      swap3\n      swap2\n      pop\n      pop\n      jump\t// out\n        /* \"@openzeppelin/contracts/utils/cryptography/MerkleProof.sol\":9358:9619  function _efficientHash(bytes32 a, bytes32 b) private pure returns (bytes32 value) {... */\n    tag_68:\n        /* \"@openzeppelin/contracts/utils/cryptography/MerkleProof.sol\":9426:9439  bytes32 value */\n      0x00\n        /* \"@openzeppelin/contracts/utils/cryptography/MerkleProof.sol\":9530:9531  a */\n      dup3\n        /* \"@openzeppelin/contracts/utils/cryptography/MerkleProof.sol\":9524:9528  0x00 */\n      0x00\n        /* \"@openzeppelin/contracts/utils/cryptography/MerkleProof.sol\":9517:9532  mstore(0x00, a) */\n      mstore\n        /* \"@openzeppelin/contracts/utils/cryptography/MerkleProof.sol\":9558:9559  b */\n      dup2\n        /* \"@openzeppelin/contracts/utils/cryptography/MerkleProof.sol\":9552:9556  0x20 */\n      0x20\n        /* \"@openzeppelin/contracts/utils/cryptography/MerkleProof.sol\":9545:9560  mstore(0x20, b) */\n      mstore\n        /* \"@openzeppelin/contracts/utils/cryptography/MerkleProof.sol\":9598:9602  0x40 */\n      0x40\n        /* \"@openzeppelin/contracts/utils/cryptography/MerkleProof.sol\":9592:9596  0x00 */\n      0x00\n        /* \"@openzeppelin/contracts/utils/cryptography/MerkleProof.sol\":9582:9603  keccak256(0x00, 0x40) */\n      keccak256\n        /* \"@openzeppelin/contracts/utils/cryptography/MerkleProof.sol\":9573:9603  value := keccak256(0x00, 0x40) */\n      swap1\n      pop\n        /* \"@openzeppelin/contracts/utils/cryptography/MerkleProof.sol\":9358:9619  function _efficientHash(bytes32 a, bytes32 b) private pure returns (bytes32 value) {... */\n      swap3\n      swap2\n      pop\n      pop\n      jump\t// out\n        /* \"#utility.yul\":7:84   */\n    tag_72:\n        /* \"#utility.yul\":44:51   */\n      0x00\n        /* \"#utility.yul\":73:78   */\n      dup2\n        /* \"#utility.yul\":62:78   */\n      swap1\n      pop\n        /* \"#utility.yul\":7:84   */\n      swap2\n      swap1\n      pop\n      jump\t// out\n        /* \"#utility.yul\":90:208   */\n    tag_73:\n        /* \"#utility.yul\":177:201   */\n      tag_103\n        /* \"#utility.yul\":195:200   */\n      dup2\n        /* \"#utility.yul\":177:201   */\n      tag_72\n      jump\t// in\n    tag_103:\n        /* \"#utility.yul\":172:175   */\n      dup3\n        /* \"#utility.yul\":165:202   */\n      mstore\n        /* \"#utility.yul\":90:208   */\n      pop\n      pop\n      jump\t// out\n        /* \"#utility.yul\":214:436   */\n    tag_12:\n        /* \"#utility.yul\":307:311   */\n      0x00\n        /* \"#utility.yul\":345:347   */\n      0x20\n        /* \"#utility.yul\":334:343   */\n      dup3\n        /* \"#utility.yul\":330:348   */\n      add\n        /* \"#utility.yul\":322:348   */\n      swap1\n      pop\n        /* \"#utility.yul\":358:429   */\n      tag_105\n        /* \"#utility.yul\":426:427   */\n      0x00\n        /* \"#utility.yul\":415:424   */\n      dup4\n        /* \"#utility.yul\":411:428   */\n      add\n        /* \"#utility.yul\":402:408   */\n      dup5\n        /* \"#utility.yul\":358:429   */\n      tag_73\n      jump\t// in\n    tag_105:\n        /* \"#utility.yul\":214:436   */\n      swap3\n      swap2\n      pop\n      pop\n      jump\t// out\n        /* \"#utility.yul\":442:519   */\n    tag_74:\n        /* \"#utility.yul\":479:486   */\n      0x00\n        /* \"#utility.yul\":508:513   */\n      dup2\n        /* \"#utility.yul\":497:513   */\n      swap1\n      pop\n        /* \"#utility.yul\":442:519   */\n      swap2\n      swap1\n      pop\n      jump\t// out\n        /* \"#utility.yul\":525:643   */\n    tag_75:\n        /* \"#utility.yul\":612:636   */\n      tag_108\n        /* \"#utility.yul\":630:635   */\n      dup2\n        /* \"#utility.yul\":612:636   */\n      tag_74\n      jump\t// in\n    tag_108:\n        /* \"#utility.yul\":607:610   */\n      dup3\n        /* \"#utility.yul\":600:637   */\n      mstore\n        /* \"#utility.yul\":525:643   */\n      pop\n      pop\n      jump\t// out\n        /* \"#utility.yul\":649:871   */\n    tag_16:\n        /* \"#utility.yul\":742:746   */\n      0x00\n        /* \"#utility.yul\":780:782   */\n      0x20\n        /* \"#utility.yul\":769:778   */\n      dup3\n        /* \"#utility.yul\":765:783   */\n      add\n        /* \"#utility.yul\":757:783   */\n      swap1\n      pop\n        /* \"#utility.yul\":793:864   */\n      tag_110\n        /* \"#utility.yul\":861:862   */\n      0x00\n        /* \"#utility.yul\":850:859   */\n      dup4\n        /* \"#utility.yul\":846:863   */\n      add\n        /* \"#utility.yul\":837:843   */\n      dup5\n        /* \"#utility.yul\":793:864   */\n      tag_75\n      jump\t// in\n    tag_110:\n        /* \"#utility.yul\":649:871   */\n      swap3\n      swap2\n      pop\n      pop\n      jump\t// out\n        /* \"#utility.yul\":958:1075   */\n    tag_77:\n        /* \"#utility.yul\":1067:1068   */\n      0x00\n        /* \"#utility.yul\":1064:1065   */\n      dup1\n        /* \"#utility.yul\":1057:1069   */\n      revert\n        /* \"#utility.yul\":1081:1198   */\n    tag_78:\n        /* \"#utility.yul\":1190:1191   */\n      0x00\n        /* \"#utility.yul\":1187:1188   */\n      dup1\n        /* \"#utility.yul\":1180:1192   */\n      revert\n        /* \"#utility.yul\":1204:1326   */\n    tag_79:\n        /* \"#utility.yul\":1277:1301   */\n      tag_115\n        /* \"#utility.yul\":1295:1300   */\n      dup2\n        /* \"#utility.yul\":1277:1301   */\n      tag_74\n      jump\t// in\n    tag_115:\n        /* \"#utility.yul\":1270:1275   */\n      dup2\n        /* \"#utility.yul\":1267:1302   */\n      eq\n        /* \"#utility.yul\":1257:1320   */\n      tag_116\n      jumpi\n        /* \"#utility.yul\":1316:1317   */\n      0x00\n        /* \"#utility.yul\":1313:1314   */\n      dup1\n        /* \"#utility.yul\":1306:1318   */\n      revert\n        /* \"#utility.yul\":1257:1320   */\n    tag_116:\n        /* \"#utility.yul\":1204:1326   */\n      pop\n      jump\t// out\n        /* \"#utility.yul\":1332:1471   */\n    tag_80:\n        /* \"#utility.yul\":1378:1383   */\n      0x00\n        /* \"#utility.yul\":1416:1422   */\n      dup2\n        /* \"#utility.yul\":1403:1423   */\n      calldataload\n        /* \"#utility.yul\":1394:1423   */\n      swap1\n      pop\n        /* \"#utility.yul\":1432:1465   */\n      tag_118\n        /* \"#utility.yul\":1459:1464   */\n      dup2\n        /* \"#utility.yul\":1432:1465   */\n      tag_79\n      jump\t// in\n    tag_118:\n        /* \"#utility.yul\":1332:1471   */\n      swap3\n      swap2\n      pop\n      pop\n      jump\t// out\n        /* \"#utility.yul\":1477:1806   */\n    tag_19:\n        /* \"#utility.yul\":1536:1542   */\n      0x00\n        /* \"#utility.yul\":1585:1587   */\n      0x20\n        /* \"#utility.yul\":1573:1582   */\n      dup3\n        /* \"#utility.yul\":1564:1571   */\n      dup5\n        /* \"#utility.yul\":1560:1583   */\n      sub\n        /* \"#utility.yul\":1556:1588   */\n      slt\n        /* \"#utility.yul\":1553:1672   */\n      iszero\n      tag_120\n      jumpi\n        /* \"#utility.yul\":1591:1670   */\n      tag_121\n      tag_77\n      jump\t// in\n    tag_121:\n        /* \"#utility.yul\":1553:1672   */\n    tag_120:\n        /* \"#utility.yul\":1711:1712   */\n      0x00\n        /* \"#utility.yul\":1736:1789   */\n      tag_122\n        /* \"#utility.yul\":1781:1788   */\n      dup5\n        /* \"#utility.yul\":1772:1778   */\n      dup3\n        /* \"#utility.yul\":1761:1770   */\n      dup6\n        /* \"#utility.yul\":1757:1779   */\n      add\n        /* \"#utility.yul\":1736:1789   */\n      tag_80\n      jump\t// in\n    tag_122:\n        /* \"#utility.yul\":1726:1789   */\n      swap2\n      pop\n        /* \"#utility.yul\":1682:1799   */\n      pop\n        /* \"#utility.yul\":1477:1806   */\n      swap3\n      swap2\n      pop\n      pop\n      jump\t// out\n        /* \"#utility.yul\":1812:1902   */\n    tag_81:\n        /* \"#utility.yul\":1846:1853   */\n      0x00\n        /* \"#utility.yul\":1889:1894   */\n      dup2\n        /* \"#utility.yul\":1882:1895   */\n      iszero\n        /* \"#utility.yul\":1875:1896   */\n      iszero\n        /* \"#utility.yul\":1864:1896   */\n      swap1\n      pop\n        /* \"#utility.yul\":1812:1902   */\n      swap2\n      swap1\n      pop\n      jump\t// out\n        /* \"#utility.yul\":1908:2017   */\n    tag_82:\n        /* \"#utility.yul\":1989:2010   */\n      tag_125\n        /* \"#utility.yul\":2004:2009   */\n      dup2\n        /* \"#utility.yul\":1989:2010   */\n      tag_81\n      jump\t// in\n    tag_125:\n        /* \"#utility.yul\":1984:1987   */\n      dup3\n        /* \"#utility.yul\":1977:2011   */\n      mstore\n        /* \"#utility.yul\":1908:2017   */\n      pop\n      pop\n      jump\t// out\n        /* \"#utility.yul\":2023:2233   */\n    tag_22:\n        /* \"#utility.yul\":2110:2114   */\n      0x00\n        /* \"#utility.yul\":2148:2150   */\n      0x20\n        /* \"#utility.yul\":2137:2146   */\n      dup3\n        /* \"#utility.yul\":2133:2151   */\n      add\n        /* \"#utility.yul\":2125:2151   */\n      swap1\n      pop\n        /* \"#utility.yul\":2161:2226   */\n      tag_127\n        /* \"#utility.yul\":2223:2224   */\n      0x00\n        /* \"#utility.yul\":2212:2221   */\n      dup4\n        /* \"#utility.yul\":2208:2225   */\n      add\n        /* \"#utility.yul\":2199:2205   */\n      dup5\n        /* \"#utility.yul\":2161:2226   */\n      tag_82\n      jump\t// in\n    tag_127:\n        /* \"#utility.yul\":2023:2233   */\n      swap3\n      swap2\n      pop\n      pop\n      jump\t// out\n        /* \"#utility.yul\":2239:2365   */\n    tag_83:\n        /* \"#utility.yul\":2276:2283   */\n      0x00\n        /* \"#utility.yul\":2316:2358   */\n      0xffffffffffffffffffffffffffffffffffffffff\n        /* \"#utility.yul\":2309:2314   */\n      dup3\n        /* \"#utility.yul\":2305:2359   */\n      and\n        /* \"#utility.yul\":2294:2359   */\n      swap1\n      pop\n        /* \"#utility.yul\":2239:2365   */\n      swap2\n      swap1\n      pop\n      jump\t// out\n        /* \"#utility.yul\":2371:2467   */\n    tag_84:\n        /* \"#utility.yul\":2408:2415   */\n      0x00\n        /* \"#utility.yul\":2437:2461   */\n      tag_130\n        /* \"#utility.yul\":2455:2460   */\n      dup3\n        /* \"#utility.yul\":2437:2461   */\n      tag_83\n      jump\t// in\n    tag_130:\n        /* \"#utility.yul\":2426:2461   */\n      swap1\n      pop\n        /* \"#utility.yul\":2371:2467   */\n      swap2\n      swap1\n      pop\n      jump\t// out\n        /* \"#utility.yul\":2473:2595   */\n    tag_85:\n        /* \"#utility.yul\":2546:2570   */\n      tag_132\n        /* \"#utility.yul\":2564:2569   */\n      dup2\n        /* \"#utility.yul\":2546:2570   */\n      tag_84\n      jump\t// in\n    tag_132:\n        /* \"#utility.yul\":2539:2544   */\n      dup2\n        /* \"#utility.yul\":2536:2571   */\n      eq\n        /* \"#utility.yul\":2526:2589   */\n      tag_133\n      jumpi\n        /* \"#utility.yul\":2585:2586   */\n      0x00\n        /* \"#utility.yul\":2582:2583   */\n      dup1\n        /* \"#utility.yul\":2575:2587   */\n      revert\n        /* \"#utility.yul\":2526:2589   */\n    tag_133:\n        /* \"#utility.yul\":2473:2595   */\n      pop\n      jump\t// out\n        /* \"#utility.yul\":2601:2740   */\n    tag_86:\n        /* \"#utility.yul\":2647:2652   */\n      0x00\n        /* \"#utility.yul\":2685:2691   */\n      dup2\n        /* \"#utility.yul\":2672:2692   */\n      calldataload\n        /* \"#utility.yul\":2663:2692   */\n      swap1\n      pop\n        /* \"#utility.yul\":2701:2734   */\n      tag_135\n        /* \"#utility.yul\":2728:2733   */\n      dup2\n        /* \"#utility.yul\":2701:2734   */\n      tag_85\n      jump\t// in\n    tag_135:\n        /* \"#utility.yul\":2601:2740   */\n      swap3\n      swap2\n      pop\n      pop\n      jump\t// out\n        /* \"#utility.yul\":2746:3075   */\n    tag_25:\n        /* \"#utility.yul\":2805:2811   */\n      0x00\n        /* \"#utility.yul\":2854:2856   */\n      0x20\n        /* \"#utility.yul\":2842:2851   */\n      dup3\n        /* \"#utility.yul\":2833:2840   */\n      dup5\n        /* \"#utility.yul\":2829:2852   */\n      sub\n        /* \"#utility.yul\":2825:2857   */\n      slt\n        /* \"#utility.yul\":2822:2941   */\n      iszero\n      tag_137\n      jumpi\n        /* \"#utility.yul\":2860:2939   */\n      tag_138\n      tag_77\n      jump\t// in\n    tag_138:\n        /* \"#utility.yul\":2822:2941   */\n    tag_137:\n        /* \"#utility.yul\":2980:2981   */\n      0x00\n        /* \"#utility.yul\":3005:3058   */\n      tag_139\n        /* \"#utility.yul\":3050:3057   */\n      dup5\n        /* \"#utility.yul\":3041:3047   */\n      dup3\n        /* \"#utility.yul\":3030:3039   */\n      dup6\n        /* \"#utility.yul\":3026:3048   */\n      add\n        /* \"#utility.yul\":3005:3058   */\n      tag_86\n      jump\t// in\n    tag_139:\n        /* \"#utility.yul\":2995:3058   */\n      swap2\n      pop\n        /* \"#utility.yul\":2951:3068   */\n      pop\n        /* \"#utility.yul\":2746:3075   */\n      swap3\n      swap2\n      pop\n      pop\n      jump\t// out\n        /* \"#utility.yul\":3081:3198   */\n    tag_87:\n        /* \"#utility.yul\":3190:3191   */\n      0x00\n        /* \"#utility.yul\":3187:3188   */\n      dup1\n        /* \"#utility.yul\":3180:3192   */\n      revert\n        /* \"#utility.yul\":3204:3321   */\n    tag_88:\n        /* \"#utility.yul\":3313:3314   */\n      0x00\n        /* \"#utility.yul\":3310:3311   */\n      dup1\n        /* \"#utility.yul\":3303:3315   */\n      revert\n        /* \"#utility.yul\":3327:3444   */\n    tag_89:\n        /* \"#utility.yul\":3436:3437   */\n      0x00\n        /* \"#utility.yul\":3433:3434   */\n      dup1\n        /* \"#utility.yul\":3426:3438   */\n      revert\n        /* \"#utility.yul\":3467:4035   */\n    tag_90:\n        /* \"#utility.yul\":3540:3548   */\n      0x00\n        /* \"#utility.yul\":3550:3556   */\n      dup1\n        /* \"#utility.yul\":3600:3603   */\n      dup4\n        /* \"#utility.yul\":3593:3597   */\n      0x1f\n        /* \"#utility.yul\":3585:3591   */\n      dup5\n        /* \"#utility.yul\":3581:3598   */\n      add\n        /* \"#utility.yul\":3577:3604   */\n      slt\n        /* \"#utility.yul\":3567:3689   */\n      tag_144\n      jumpi\n        /* \"#utility.yul\":3608:3687   */\n      tag_145\n      tag_87\n      jump\t// in\n    tag_145:\n        /* \"#utility.yul\":3567:3689   */\n    tag_144:\n        /* \"#utility.yul\":3721:3727   */\n      dup3\n        /* \"#utility.yul\":3708:3728   */\n      calldataload\n        /* \"#utility.yul\":3698:3728   */\n      swap1\n      pop\n        /* \"#utility.yul\":3751:3769   */\n      0xffffffffffffffff\n        /* \"#utility.yul\":3743:3749   */\n      dup2\n        /* \"#utility.yul\":3740:3770   */\n      gt\n        /* \"#utility.yul\":3737:3854   */\n      iszero\n      tag_146\n      jumpi\n        /* \"#utility.yul\":3773:3852   */\n      tag_147\n      tag_88\n      jump\t// in\n    tag_147:\n        /* \"#utility.yul\":3737:3854   */\n    tag_146:\n        /* \"#utility.yul\":3887:3891   */\n      0x20\n        /* \"#utility.yul\":3879:3885   */\n      dup4\n        /* \"#utility.yul\":3875:3892   */\n      add\n        /* \"#utility.yul\":3863:3892   */\n      swap2\n      pop\n        /* \"#utility.yul\":3941:3944   */\n      dup4\n        /* \"#utility.yul\":3933:3937   */\n      0x20\n        /* \"#utility.yul\":3925:3931   */\n      dup3\n        /* \"#utility.yul\":3921:3938   */\n      mul\n        /* \"#utility.yul\":3911:3919   */\n      dup4\n        /* \"#utility.yul\":3907:3939   */\n      add\n        /* \"#utility.yul\":3904:3945   */\n      gt\n        /* \"#utility.yul\":3901:4029   */\n      iszero\n      tag_148\n      jumpi\n        /* \"#utility.yul\":3948:4027   */\n      tag_149\n      tag_89\n      jump\t// in\n    tag_149:\n        /* \"#utility.yul\":3901:4029   */\n    tag_148:\n        /* \"#utility.yul\":3467:4035   */\n      swap3\n      pop\n      swap3\n      swap1\n      pop\n      jump\t// out\n        /* \"#utility.yul\":4041:4745   */\n    tag_30:\n        /* \"#utility.yul\":4136:4142   */\n      0x00\n        /* \"#utility.yul\":4144:4150   */\n      dup1\n        /* \"#utility.yul\":4152:4158   */\n      0x00\n        /* \"#utility.yul\":4201:4203   */\n      0x40\n        /* \"#utility.yul\":4189:4198   */\n      dup5\n        /* \"#utility.yul\":4180:4187   */\n      dup7\n        /* \"#utility.yul\":4176:4199   */\n      sub\n        /* \"#utility.yul\":4172:4204   */\n      slt\n        /* \"#utility.yul\":4169:4288   */\n      iszero\n      tag_151\n      jumpi\n        /* \"#utility.yul\":4207:4286   */\n      tag_152\n      tag_77\n      jump\t// in\n    tag_152:\n        /* \"#utility.yul\":4169:4288   */\n    tag_151:\n        /* \"#utility.yul\":4355:4356   */\n      0x00\n        /* \"#utility.yul\":4344:4353   */\n      dup5\n        /* \"#utility.yul\":4340:4357   */\n      add\n        /* \"#utility.yul\":4327:4358   */\n      calldataload\n        /* \"#utility.yul\":4385:4403   */\n      0xffffffffffffffff\n        /* \"#utility.yul\":4377:4383   */\n      dup2\n        /* \"#utility.yul\":4374:4404   */\n      gt\n        /* \"#utility.yul\":4371:4488   */\n      iszero\n      tag_153\n      jumpi\n        /* \"#utility.yul\":4407:4486   */\n      tag_154\n      tag_78\n      jump\t// in\n    tag_154:\n        /* \"#utility.yul\":4371:4488   */\n    tag_153:\n        /* \"#utility.yul\":4520:4600   */\n      tag_155\n        /* \"#utility.yul\":4592:4599   */\n      dup7\n        /* \"#utility.yul\":4583:4589   */\n      dup3\n        /* \"#utility.yul\":4572:4581   */\n      dup8\n        /* \"#utility.yul\":4568:4590   */\n      add\n        /* \"#utility.yul\":4520:4600   */\n      tag_90\n      jump\t// in\n    tag_155:\n        /* \"#utility.yul\":4502:4600   */\n      swap4\n      pop\n      swap4\n      pop\n        /* \"#utility.yul\":4298:4610   */\n      pop\n        /* \"#utility.yul\":4649:4651   */\n      0x20\n        /* \"#utility.yul\":4675:4728   */\n      tag_156\n        /* \"#utility.yul\":4720:4727   */\n      dup7\n        /* \"#utility.yul\":4711:4717   */\n      dup3\n        /* \"#utility.yul\":4700:4709   */\n      dup8\n        /* \"#utility.yul\":4696:4718   */\n      add\n        /* \"#utility.yul\":4675:4728   */\n      tag_86\n      jump\t// in\n    tag_156:\n        /* \"#utility.yul\":4665:4728   */\n      swap2\n      pop\n        /* \"#utility.yul\":4620:4738   */\n      pop\n        /* \"#utility.yul\":4041:4745   */\n      swap3\n      pop\n      swap3\n      pop\n      swap3\n      jump\t// out\n        /* \"#utility.yul\":4751:4869   */\n    tag_91:\n        /* \"#utility.yul\":4838:4862   */\n      tag_158\n        /* \"#utility.yul\":4856:4861   */\n      dup2\n        /* \"#utility.yul\":4838:4862   */\n      tag_84\n      jump\t// in\n    tag_158:\n        /* \"#utility.yul\":4833:4836   */\n      dup3\n        /* \"#utility.yul\":4826:4863   */\n      mstore\n        /* \"#utility.yul\":4751:4869   */\n      pop\n      pop\n      jump\t// out\n        /* \"#utility.yul\":4875:5097   */\n    tag_36:\n        /* \"#utility.yul\":4968:4972   */\n      0x00\n        /* \"#utility.yul\":5006:5008   */\n      0x20\n        /* \"#utility.yul\":4995:5004   */\n      dup3\n        /* \"#utility.yul\":4991:5009   */\n      add\n        /* \"#utility.yul\":4983:5009   */\n      swap1\n      pop\n        /* \"#utility.yul\":5019:5090   */\n      tag_160\n        /* \"#utility.yul\":5087:5088   */\n      0x00\n        /* \"#utility.yul\":5076:5085   */\n      dup4\n        /* \"#utility.yul\":5072:5089   */\n      add\n        /* \"#utility.yul\":5063:5069   */\n      dup5\n        /* \"#utility.yul\":5019:5090   */\n      tag_91\n      jump\t// in\n    tag_160:\n        /* \"#utility.yul\":4875:5097   */\n      swap3\n      swap2\n      pop\n      pop\n      jump\t// out\n        /* \"#utility.yul\":5103:5272   */\n    tag_92:\n        /* \"#utility.yul\":5187:5198   */\n      0x00\n        /* \"#utility.yul\":5221:5227   */\n      dup3\n        /* \"#utility.yul\":5216:5219   */\n      dup3\n        /* \"#utility.yul\":5209:5228   */\n      mstore\n        /* \"#utility.yul\":5261:5265   */\n      0x20\n        /* \"#utility.yul\":5256:5259   */\n      dup3\n        /* \"#utility.yul\":5252:5266   */\n      add\n        /* \"#utility.yul\":5237:5266   */\n      swap1\n      pop\n        /* \"#utility.yul\":5103:5272   */\n      swap3\n      swap2\n      pop\n      pop\n      jump\t// out\n        /* \"#utility.yul\":5278:5455   */\n    tag_93:\n        /* \"#utility.yul\":5418:5447   */\n      0x61646d696e2063616e2063616c6c207468652066756e6374696f6e0000000000\n        /* \"#utility.yul\":5414:5415   */\n      0x00\n        /* \"#utility.yul\":5406:5412   */\n      dup3\n        /* \"#utility.yul\":5402:5416   */\n      add\n        /* \"#utility.yul\":5395:5448   */\n      mstore\n        /* \"#utility.yul\":5278:5455   */\n      pop\n      jump\t// out\n        /* \"#utility.yul\":5461:5827   */\n    tag_94:\n        /* \"#utility.yul\":5603:5606   */\n      0x00\n        /* \"#utility.yul\":5624:5691   */\n      tag_164\n        /* \"#utility.yul\":5688:5690   */\n      0x1b\n        /* \"#utility.yul\":5683:5686   */\n      dup4\n        /* \"#utility.yul\":5624:5691   */\n      tag_92\n      jump\t// in\n    tag_164:\n        /* \"#utility.yul\":5617:5691   */\n      swap2\n      pop\n        /* \"#utility.yul\":5700:5793   */\n      tag_165\n        /* \"#utility.yul\":5789:5792   */\n      dup3\n        /* \"#utility.yul\":5700:5793   */\n      tag_93\n      jump\t// in\n    tag_165:\n        /* \"#utility.yul\":5818:5820   */\n      0x20\n        /* \"#utility.yul\":5813:5816   */\n      dup3\n        /* \"#utility.yul\":5809:5821   */\n      add\n        /* \"#utility.yul\":5802:5821   */\n      swap1\n      pop\n        /* \"#utility.yul\":5461:5827   */\n      swap2\n      swap1\n      pop\n      jump\t// out\n        /* \"#utility.yul\":5833:6252   */\n    tag_40:\n        /* \"#utility.yul\":5999:6003   */\n      0x00\n        /* \"#utility.yul\":6037:6039   */\n      0x20\n        /* \"#utility.yul\":6026:6035   */\n      dup3\n        /* \"#utility.yul\":6022:6040   */\n      add\n        /* \"#utility.yul\":6014:6040   */\n      swap1\n      pop\n        /* \"#utility.yul\":6086:6095   */\n      dup2\n        /* \"#utility.yul\":6080:6084   */\n      dup2\n        /* \"#utility.yul\":6076:6096   */\n      sub\n        /* \"#utility.yul\":6072:6073   */\n      0x00\n        /* \"#utility.yul\":6061:6070   */\n      dup4\n        /* \"#utility.yul\":6057:6074   */\n      add\n        /* \"#utility.yul\":6050:6097   */\n      mstore\n        /* \"#utility.yul\":6114:6245   */\n      tag_167\n        /* \"#utility.yul\":6240:6244   */\n      dup2\n        /* \"#utility.yul\":6114:6245   */\n      tag_94\n      jump\t// in\n    tag_167:\n        /* \"#utility.yul\":6106:6245   */\n      swap1\n      pop\n        /* \"#utility.yul\":5833:6252   */\n      swap2\n      swap1\n      pop\n      jump\t// out\n        /* \"#utility.yul\":6258:6352   */\n    tag_95:\n        /* \"#utility.yul\":6291:6299   */\n      0x00\n        /* \"#utility.yul\":6339:6344   */\n      dup2\n        /* \"#utility.yul\":6335:6337   */\n      0x60\n        /* \"#utility.yul\":6331:6345   */\n      shl\n        /* \"#utility.yul\":6310:6345   */\n      swap1\n      pop\n        /* \"#utility.yul\":6258:6352   */\n      swap2\n      swap1\n      pop\n      jump\t// out\n        /* \"#utility.yul\":6358:6452   */\n    tag_96:\n        /* \"#utility.yul\":6397:6404   */\n      0x00\n        /* \"#utility.yul\":6426:6446   */\n      tag_170\n        /* \"#utility.yul\":6440:6445   */\n      dup3\n        /* \"#utility.yul\":6426:6446   */\n      tag_95\n      jump\t// in\n    tag_170:\n        /* \"#utility.yul\":6415:6446   */\n      swap1\n      pop\n        /* \"#utility.yul\":6358:6452   */\n      swap2\n      swap1\n      pop\n      jump\t// out\n        /* \"#utility.yul\":6458:6558   */\n    tag_97:\n        /* \"#utility.yul\":6497:6504   */\n      0x00\n        /* \"#utility.yul\":6526:6552   */\n      tag_172\n        /* \"#utility.yul\":6546:6551   */\n      dup3\n        /* \"#utility.yul\":6526:6552   */\n      tag_96\n      jump\t// in\n    tag_172:\n        /* \"#utility.yul\":6515:6552   */\n      swap1\n      pop\n        /* \"#utility.yul\":6458:6558   */\n      swap2\n      swap1\n      pop\n      jump\t// out\n        /* \"#utility.yul\":6564:6721   */\n    tag_98:\n        /* \"#utility.yul\":6669:6714   */\n      tag_174\n        /* \"#utility.yul\":6689:6713   */\n      tag_175\n        /* \"#utility.yul\":6707:6712   */\n      dup3\n        /* \"#utility.yul\":6689:6713   */\n      tag_84\n      jump\t// in\n    tag_175:\n        /* \"#utility.yul\":6669:6714   */\n      tag_97\n      jump\t// in\n    tag_174:\n        /* \"#utility.yul\":6664:6667   */\n      dup3\n        /* \"#utility.yul\":6657:6715   */\n      mstore\n        /* \"#utility.yul\":6564:6721   */\n      pop\n      pop\n      jump\t// out\n        /* \"#utility.yul\":6727:6983   */\n    tag_49:\n        /* \"#utility.yul\":6839:6842   */\n      0x00\n        /* \"#utility.yul\":6854:6929   */\n      tag_177\n        /* \"#utility.yul\":6925:6928   */\n      dup3\n        /* \"#utility.yul\":6916:6922   */\n      dup5\n        /* \"#utility.yul\":6854:6929   */\n      tag_98\n      jump\t// in\n    tag_177:\n        /* \"#utility.yul\":6954:6956   */\n      0x14\n        /* \"#utility.yul\":6949:6952   */\n      dup3\n        /* \"#utility.yul\":6945:6957   */\n      add\n        /* \"#utility.yul\":6938:6957   */\n      swap2\n      pop\n        /* \"#utility.yul\":6974:6977   */\n      dup2\n        /* \"#utility.yul\":6967:6977   */\n      swap1\n      pop\n        /* \"#utility.yul\":6727:6983   */\n      swap3\n      swap2\n      pop\n      pop\n      jump\t// out\n        /* \"#utility.yul\":6989:7169   */\n    tag_61:\n        /* \"#utility.yul\":7037:7114   */\n      0x4e487b7100000000000000000000000000000000000000000000000000000000\n        /* \"#utility.yul\":7034:7035   */\n      0x00\n        /* \"#utility.yul\":7027:7115   */\n      mstore\n        /* \"#utility.yul\":7134:7138   */\n      0x32\n        /* \"#utility.yul\":7131:7132   */\n      0x04\n        /* \"#utility.yul\":7124:7139   */\n      mstore\n        /* \"#utility.yul\":7158:7162   */\n      0x24\n        /* \"#utility.yul\":7155:7156   */\n      0x00\n        /* \"#utility.yul\":7148:7163   */\n      revert\n        /* \"#utility.yul\":7175:7355   */\n    tag_99:\n        /* \"#utility.yul\":7223:7300   */\n      0x4e487b7100000000000000000000000000000000000000000000000000000000\n        /* \"#utility.yul\":7220:7221   */\n      0x00\n        /* \"#utility.yul\":7213:7301   */\n      mstore\n        /* \"#utility.yul\":7320:7324   */\n      0x11\n        /* \"#utility.yul\":7317:7318   */\n      0x04\n        /* \"#utility.yul\":7310:7325   */\n      mstore\n        /* \"#utility.yul\":7344:7348   */\n      0x24\n        /* \"#utility.yul\":7341:7342   */\n      0x00\n        /* \"#utility.yul\":7334:7349   */\n      revert\n        /* \"#utility.yul\":7361:7594   */\n    tag_64:\n        /* \"#utility.yul\":7400:7403   */\n      0x00\n        /* \"#utility.yul\":7423:7447   */\n      tag_181\n        /* \"#utility.yul\":7441:7446   */\n      dup3\n        /* \"#utility.yul\":7423:7447   */\n      tag_72\n      jump\t// in\n    tag_181:\n        /* \"#utility.yul\":7414:7447   */\n      swap2\n      pop\n        /* \"#utility.yul\":7469:7535   */\n      0xffffffffffffffffffffffffffffffffffffffffffffffffffffffffffffffff\n        /* \"#utility.yul\":7462:7467   */\n      dup3\n        /* \"#utility.yul\":7459:7536   */\n      sub\n        /* \"#utility.yul\":7456:7559   */\n      tag_182\n      jumpi\n        /* \"#utility.yul\":7539:7557   */\n      tag_183\n      tag_99\n      jump\t// in\n    tag_183:\n        /* \"#utility.yul\":7456:7559   */\n    tag_182:\n        /* \"#utility.yul\":7586:7587   */\n      0x01\n        /* \"#utility.yul\":7579:7584   */\n      dup3\n        /* \"#utility.yul\":7575:7588   */\n      add\n        /* \"#utility.yul\":7568:7588   */\n      swap1\n      pop\n        /* \"#utility.yul\":7361:7594   */\n      swap2\n      swap1\n      pop\n      jump\t// out\n\n    auxdata: 0xa2646970667358221220daff51118e44abdcb37198714aec57cc29ef0569edf3dcaf59df76d6185c3a6364736f6c63430008120033\n}\n",
				"bytecode": {
					"linkReferences": {},
					"object": "608060405234801561001057600080fd5b5033600260006101000a81548173ffffffffffffffffffffffffffffffffffffffff021916908373ffffffffffffffffffffffffffffffffffffffff160217905550610821806100616000396000f3fe608060405234801561001057600080fd5b50600436106100625760003560e01c806306661abd146100675780631d80009a146100855780632d7eae66146100a3578063704b6c02146100d35780639065e9d314610103578063f851a44014610133575b600080fd5b61006f610151565b60405161007c9190610403565b60405180910390f35b61008d610157565b60405161009a9190610437565b60405180910390f35b6100bd60048036038101906100b89190610488565b61015d565b6040516100ca91906104d0565b60405180910390f35b6100ed60048036038101906100e89190610549565b6101fb565b6040516100fa91906104d0565b60405180910390f35b61011d600480360381019061011891906105db565b610296565b60405161012a91906104d0565b60405180910390f35b61013b610315565b604051610148919061064a565b60405180910390f35b60015481565b60005481565b6000600260009054906101000a900473ffffffffffffffffffffffffffffffffffffffff1673ffffffffffffffffffffffffffffffffffffffff163373ffffffffffffffffffffffffffffffffffffffff16146101ef576040517f08c379a00000000000000000000000000000000000000000000000000000000081526004016101e6906106c2565b60405180910390fd5b81600081905550919050565b6000600260009054906101000a900473ffffffffffffffffffffffffffffffffffffffff1673ffffffffffffffffffffffffffffffffffffffff163373ffffffffffffffffffffffffffffffffffffffff161461028d576040517f08c379a0000000000000000000000000000000000000000000000000000000008152600401610284906106c2565b60405180910390fd5b60019050919050565b600061030c848480806020026020016040519081016040528093929190818152602001838360200280828437600081840152601f19601f82011690508083019250505050505050600054846040516020016102f1919061072a565b6040516020818303038152906040528051906020012061033b565b90509392505050565b600260009054906101000a900473ffffffffffffffffffffffffffffffffffffffff1681565b6000826103488584610352565b1490509392505050565b60008082905060005b845181101561039d576103888286838151811061037b5761037a610745565b5b60200260200101516103a8565b91508080610395906107a3565b91505061035b565b508091505092915050565b60008183106103c0576103bb82846103d3565b6103cb565b6103ca83836103d3565b5b905092915050565b600082600052816020526040600020905092915050565b6000819050919050565b6103fd816103ea565b82525050565b600060208201905061041860008301846103f4565b92915050565b6000819050919050565b6104318161041e565b82525050565b600060208201905061044c6000830184610428565b92915050565b600080fd5b600080fd5b6104658161041e565b811461047057600080fd5b50565b6000813590506104828161045c565b92915050565b60006020828403121561049e5761049d610452565b5b60006104ac84828501610473565b91505092915050565b60008115159050919050565b6104ca816104b5565b82525050565b60006020820190506104e560008301846104c1565b92915050565b600073ffffffffffffffffffffffffffffffffffffffff82169050919050565b6000610516826104eb565b9050919050565b6105268161050b565b811461053157600080fd5b50565b6000813590506105438161051d565b92915050565b60006020828403121561055f5761055e610452565b5b600061056d84828501610534565b91505092915050565b600080fd5b600080fd5b600080fd5b60008083601f84011261059b5761059a610576565b5b8235905067ffffffffffffffff8111156105b8576105b761057b565b5b6020830191508360208202830111156105d4576105d3610580565b5b9250929050565b6000806000604084860312156105f4576105f3610452565b5b600084013567ffffffffffffffff81111561061257610611610457565b5b61061e86828701610585565b9350935050602061063186828701610534565b9150509250925092565b6106448161050b565b82525050565b600060208201905061065f600083018461063b565b92915050565b600082825260208201905092915050565b7f61646d696e2063616e2063616c6c207468652066756e6374696f6e0000000000600082015250565b60006106ac601b83610665565b91506106b782610676565b602082019050919050565b600060208201905081810360008301526106db8161069f565b9050919050565b60008160601b9050919050565b60006106fa826106e2565b9050919050565b600061070c826106ef565b9050919050565b61072461071f8261050b565b610701565b82525050565b60006107368284610713565b60148201915081905092915050565b7f4e487b7100000000000000000000000000000000000000000000000000000000600052603260045260246000fd5b7f4e487b7100000000000000000000000000000000000000000000000000000000600052601160045260246000fd5b60006107ae826103ea565b91507fffffffffffffffffffffffffffffffffffffffffffffffffffffffffffffffff82036107e0576107df610774565b5b60018201905091905056fea2646970667358221220daff51118e44abdcb37198714aec57cc29ef0569edf3dcaf59df76d6185c3a6364736f6c63430008120033",
					"opcodes": "PUSH1 0x80 PUSH1 0x40 MSTORE CALLVALUE DUP1 ISZERO PUSH2 0x10 JUMPI PUSH1 0x0 DUP1 REVERT JUMPDEST POP CALLER PUSH1 0x2 PUSH1 0x0 PUSH2 0x100 EXP DUP2 SLOAD DUP2 PUSH20 0xFFFFFFFFFFFFFFFFFFFFFFFFFFFFFFFFFFFFFFFF MUL NOT AND SWAP1 DUP4 PUSH20 0xFFFFFFFFFFFFFFFFFFFFFFFFFFFFFFFFFFFFFFFF AND MUL OR SWAP1 SSTORE POP PUSH2 0x821 DUP1 PUSH2 0x61 PUSH1 0x0 CODECOPY PUSH1 0x0 RETURN INVALID PUSH1 0x80 PUSH1 0x40 MSTORE CALLVALUE DUP1 ISZERO PUSH2 0x10 JUMPI PUSH1 0x0 DUP1 REVERT JUMPDEST POP PUSH1 0x4 CALLDATASIZE LT PUSH2 0x62 JUMPI PUSH1 0x0 CALLDATALOAD PUSH1 0xE0 SHR DUP1 PUSH4 0x6661ABD EQ PUSH2 0x67 JUMPI DUP1 PUSH4 0x1D80009A EQ PUSH2 0x85 JUMPI DUP1 PUSH4 0x2D7EAE66 EQ PUSH2 0xA3 JUMPI DUP1 PUSH4 0x704B6C02 EQ PUSH2 0xD3 JUMPI DUP1 PUSH4 0x9065E9D3 EQ PUSH2 0x103 JUMPI DUP1 PUSH4 0xF851A440 EQ PUSH2 0x133 JUMPI JUMPDEST PUSH1 0x0 DUP1 REVERT JUMPDEST PUSH2 0x6F PUSH2 0x151 JUMP JUMPDEST PUSH1 0x40 MLOAD PUSH2 0x7C SWAP2 SWAP1 PUSH2 0x403 JUMP JUMPDEST PUSH1 0x40 MLOAD DUP1 SWAP2 SUB SWAP1 RETURN JUMPDEST PUSH2 0x8D PUSH2 0x157 JUMP JUMPDEST PUSH1 0x40 MLOAD PUSH2 0x9A SWAP2 SWAP1 PUSH2 0x437 JUMP JUMPDEST PUSH1 0x40 MLOAD DUP1 SWAP2 SUB SWAP1 RETURN JUMPDEST PUSH2 0xBD PUSH1 0x4 DUP1 CALLDATASIZE SUB DUP2 ADD SWAP1 PUSH2 0xB8 SWAP2 SWAP1 PUSH2 0x488 JUMP JUMPDEST PUSH2 0x15D JUMP JUMPDEST PUSH1 0x40 MLOAD PUSH2 0xCA SWAP2 SWAP1 PUSH2 0x4D0 JUMP JUMPDEST PUSH1 0x40 MLOAD DUP1 SWAP2 SUB SWAP1 RETURN JUMPDEST PUSH2 0xED PUSH1 0x4 DUP1 CALLDATASIZE SUB DUP2 ADD SWAP1 PUSH2 0xE8 SWAP2 SWAP1 PUSH2 0x549 JUMP JUMPDEST PUSH2 0x1FB JUMP JUMPDEST PUSH1 0x40 MLOAD PUSH2 0xFA SWAP2 SWAP1 PUSH2 0x4D0 JUMP JUMPDEST PUSH1 0x40 MLOAD DUP1 SWAP2 SUB SWAP1 RETURN JUMPDEST PUSH2 0x11D PUSH1 0x4 DUP1 CALLDATASIZE SUB DUP2 ADD SWAP1 PUSH2 0x118 SWAP2 SWAP1 PUSH2 0x5DB JUMP JUMPDEST PUSH2 0x296 JUMP JUMPDEST PUSH1 0x40 MLOAD PUSH2 0x12A SWAP2 SWAP1 PUSH2 0x4D0 JUMP JUMPDEST PUSH1 0x40 MLOAD DUP1 SWAP2 SUB SWAP1 RETURN JUMPDEST PUSH2 0x13B PUSH2 0x315 JUMP JUMPDEST PUSH1 0x40 MLOAD PUSH2 0x148 SWAP2 SWAP1 PUSH2 0x64A JUMP JUMPDEST PUSH1 0x40 MLOAD DUP1 SWAP2 SUB SWAP1 RETURN JUMPDEST PUSH1 0x1 SLOAD DUP2 JUMP JUMPDEST PUSH1 0x0 SLOAD DUP2 JUMP JUMPDEST PUSH1 0x0 PUSH1 0x2 PUSH1 0x0 SWAP1 SLOAD SWAP1 PUSH2 0x100 EXP SWAP1 DIV PUSH20 0xFFFFFFFFFFFFFFFFFFFFFFFFFFFFFFFFFFFFFFFF AND PUSH20 0xFFFFFFFFFFFFFFFFFFFFFFFFFFFFFFFFFFFFFFFF AND CALLER PUSH20 0xFFFFFFFFFFFFFFFFFFFFFFFFFFFFFFFFFFFFFFFF AND EQ PUSH2 0x1EF JUMPI PUSH1 0x40 MLOAD PUSH32 0x8C379A000000000000000000000000000000000000000000000000000000000 DUP2 MSTORE PUSH1 0x4 ADD PUSH2 0x1E6 SWAP1 PUSH2 0x6C2 JUMP JUMPDEST PUSH1 0x40 MLOAD DUP1 SWAP2 SUB SWAP1 REVERT JUMPDEST DUP2 PUSH1 0x0 DUP2 SWAP1 SSTORE POP SWAP2 SWAP1 POP JUMP JUMPDEST PUSH1 0x0 PUSH1 0x2 PUSH1 0x0 SWAP1 SLOAD SWAP1 PUSH2 0x100 EXP SWAP1 DIV PUSH20 0xFFFFFFFFFFFFFFFFFFFFFFFFFFFFFFFFFFFFFFFF AND PUSH20 0xFFFFFFFFFFFFFFFFFFFFFFFFFFFFFFFFFFFFFFFF AND CALLER PUSH20 0xFFFFFFFFFFFFFFFFFFFFFFFFFFFFFFFFFFFFFFFF AND EQ PUSH2 0x28D JUMPI PUSH1 0x40 MLOAD PUSH32 0x8C379A000000000000000000000000000000000000000000000000000000000 DUP2 MSTORE PUSH1 0x4 ADD PUSH2 0x284 SWAP1 PUSH2 0x6C2 JUMP JUMPDEST PUSH1 0x40 MLOAD DUP1 SWAP2 SUB SWAP1 REVERT JUMPDEST PUSH1 0x1 SWAP1 POP SWAP2 SWAP1 POP JUMP JUMPDEST PUSH1 0x0 PUSH2 0x30C DUP5 DUP5 DUP1 DUP1 PUSH1 0x20 MUL PUSH1 0x20 ADD PUSH1 0x40 MLOAD SWAP1 DUP2 ADD PUSH1 0x40 MSTORE DUP1 SWAP4 SWAP3 SWAP2 SWAP1 DUP2 DUP2 MSTORE PUSH1 0x20 ADD DUP4 DUP4 PUSH1 0x20 MUL DUP1 DUP3 DUP5 CALLDATACOPY PUSH1 0x0 DUP2 DUP5 ADD MSTORE PUSH1 0x1F NOT PUSH1 0x1F DUP3 ADD AND SWAP1 POP DUP1 DUP4 ADD SWAP3 POP POP POP POP POP POP POP PUSH1 0x0 SLOAD DUP5 PUSH1 0x40 MLOAD PUSH1 0x20 ADD PUSH2 0x2F1 SWAP2 SWAP1 PUSH2 0x72A JUMP JUMPDEST PUSH1 0x40 MLOAD PUSH1 0x20 DUP2 DUP4 SUB SUB DUP2 MSTORE SWAP1 PUSH1 0x40 MSTORE DUP1 MLOAD SWAP1 PUSH1 0x20 ADD KECCAK256 PUSH2 0x33B JUMP JUMPDEST SWAP1 POP SWAP4 SWAP3 POP POP POP JUMP JUMPDEST PUSH1 0x2 PUSH1 0x0 SWAP1 SLOAD SWAP1 PUSH2 0x100 EXP SWAP1 DIV PUSH20 0xFFFFFFFFFFFFFFFFFFFFFFFFFFFFFFFFFFFFFFFF AND DUP2 JUMP JUMPDEST PUSH1 0x0 DUP3 PUSH2 0x348 DUP6 DUP5 PUSH2 0x352 JUMP JUMPDEST EQ SWAP1 POP SWAP4 SWAP3 POP POP POP JUMP JUMPDEST PUSH1 0x0 DUP1 DUP3 SWAP1 POP PUSH1 0x0 JUMPDEST DUP5 MLOAD DUP2 LT ISZERO PUSH2 0x39D JUMPI PUSH2 0x388 DUP3 DUP7 DUP4 DUP2 MLOAD DUP2 LT PUSH2 0x37B JUMPI PUSH2 0x37A PUSH2 0x745 JUMP JUMPDEST JUMPDEST PUSH1 0x20 MUL PUSH1 0x20 ADD ADD MLOAD PUSH2 0x3A8 JUMP JUMPDEST SWAP2 POP DUP1 DUP1 PUSH2 0x395 SWAP1 PUSH2 0x7A3 JUMP JUMPDEST SWAP2 POP POP PUSH2 0x35B JUMP JUMPDEST POP DUP1 SWAP2 POP POP SWAP3 SWAP2 POP POP JUMP JUMPDEST PUSH1 0x0 DUP2 DUP4 LT PUSH2 0x3C0 JUMPI PUSH2 0x3BB DUP3 DUP5 PUSH2 0x3D3 JUMP JUMPDEST PUSH2 0x3CB JUMP JUMPDEST PUSH2 0x3CA DUP4 DUP4 PUSH2 0x3D3 JUMP JUMPDEST JUMPDEST SWAP1 POP SWAP3 SWAP2 POP POP JUMP JUMPDEST PUSH1 0x0 DUP3 PUSH1 0x0 MSTORE DUP2 PUSH1 0x20 MSTORE PUSH1 0x40 PUSH1 0x0 KECCAK256 SWAP1 POP SWAP3 SWAP2 POP POP JUMP JUMPDEST PUSH1 0x0 DUP2 SWAP1 POP SWAP2 SWAP1 POP JUMP JUMPDEST PUSH2 0x3FD DUP2 PUSH2 0x3EA JUMP JUMPDEST DUP3 MSTORE POP POP JUMP JUMPDEST PUSH1 0x0 PUSH1 0x20 DUP3 ADD SWAP1 POP PUSH2 0x418 PUSH1 0x0 DUP4 ADD DUP5 PUSH2 0x3F4 JUMP JUMPDEST SWAP3 SWAP2 POP POP JUMP JUMPDEST PUSH1 0x0 DUP2 SWAP1 POP SWAP2 SWAP1 POP JUMP JUMPDEST PUSH2 0x431 DUP2 PUSH2 0x41E JUMP JUMPDEST DUP3 MSTORE POP POP JUMP JUMPDEST PUSH1 0x0 PUSH1 0x20 DUP3 ADD SWAP1 POP PUSH2 0x44C PUSH1 0x0 DUP4 ADD DUP5 PUSH2 0x428 JUMP JUMPDEST SWAP3 SWAP2 POP POP JUMP JUMPDEST PUSH1 0x0 DUP1 REVERT JUMPDEST PUSH1 0x0 DUP1 REVERT JUMPDEST PUSH2 0x465 DUP2 PUSH2 0x41E JUMP JUMPDEST DUP2 EQ PUSH2 0x470 JUMPI PUSH1 0x0 DUP1 REVERT JUMPDEST POP JUMP JUMPDEST PUSH1 0x0 DUP2 CALLDATALOAD SWAP1 POP PUSH2 0x482 DUP2 PUSH2 0x45C JUMP JUMPDEST SWAP3 SWAP2 POP POP JUMP JUMPDEST PUSH1 0x0 PUSH1 0x20 DUP3 DUP5 SUB SLT ISZERO PUSH2 0x49E JUMPI PUSH2 0x49D PUSH2 0x452 JUMP JUMPDEST JUMPDEST PUSH1 0x0 PUSH2 0x4AC DUP5 DUP3 DUP6 ADD PUSH2 0x473 JUMP JUMPDEST SWAP2 POP POP SWAP3 SWAP2 POP POP JUMP JUMPDEST PUSH1 0x0 DUP2 ISZERO ISZERO SWAP1 POP SWAP2 SWAP1 POP JUMP JUMPDEST PUSH2 0x4CA DUP2 PUSH2 0x4B5 JUMP JUMPDEST DUP3 MSTORE POP POP JUMP JUMPDEST PUSH1 0x0 PUSH1 0x20 DUP3 ADD SWAP1 POP PUSH2 0x4E5 PUSH1 0x0 DUP4 ADD DUP5 PUSH2 0x4C1 JUMP JUMPDEST SWAP3 SWAP2 POP POP JUMP JUMPDEST PUSH1 0x0 PUSH20 0xFFFFFFFFFFFFFFFFFFFFFFFFFFFFFFFFFFFFFFFF DUP3 AND SWAP1 POP SWAP2 SWAP1 POP JUMP JUMPDEST PUSH1 0x0 PUSH2 0x516 DUP3 PUSH2 0x4EB JUMP JUMPDEST SWAP1 POP SWAP2 SWAP1 POP JUMP JUMPDEST PUSH2 0x526 DUP2 PUSH2 0x50B JUMP JUMPDEST DUP2 EQ PUSH2 0x531 JUMPI PUSH1 0x0 DUP1 REVERT JUMPDEST POP JUMP JUMPDEST PUSH1 0x0 DUP2 CALLDATALOAD SWAP1 POP PUSH2 0x543 DUP2 PUSH2 0x51D JUMP JUMPDEST SWAP3 SWAP2 POP POP JUMP JUMPDEST PUSH1 0x0 PUSH1 0x20 DUP3 DUP5 SUB SLT ISZERO PUSH2 0x55F JUMPI PUSH2 0x55E PUSH2 0x452 JUMP JUMPDEST JUMPDEST PUSH1 0x0 PUSH2 0x56D DUP5 DUP3 DUP6 ADD PUSH2 0x534 JUMP JUMPDEST SWAP2 POP POP SWAP3 SWAP2 POP POP JUMP JUMPDEST PUSH1 0x0 DUP1 REVERT JUMPDEST PUSH1 0x0 DUP1 REVERT JUMPDEST PUSH1 0x0 DUP1 REVERT JUMPDEST PUSH1 0x0 DUP1 DUP4 PUSH1 0x1F DUP5 ADD SLT PUSH2 0x59B JUMPI PUSH2 0x59A PUSH2 0x576 JUMP JUMPDEST JUMPDEST DUP3 CALLDATALOAD SWAP1 POP PUSH8 0xFFFFFFFFFFFFFFFF DUP2 GT ISZERO PUSH2 0x5B8 JUMPI PUSH2 0x5B7 PUSH2 0x57B JUMP JUMPDEST JUMPDEST PUSH1 0x20 DUP4 ADD SWAP2 POP DUP4 PUSH1 0x20 DUP3 MUL DUP4 ADD GT ISZERO PUSH2 0x5D4 JUMPI PUSH2 0x5D3 PUSH2 0x580 JUMP JUMPDEST JUMPDEST SWAP3 POP SWAP3 SWAP1 POP JUMP JUMPDEST PUSH1 0x0 DUP1 PUSH1 0x0 PUSH1 0x40 DUP5 DUP7 SUB SLT ISZERO PUSH2 0x5F4 JUMPI PUSH2 0x5F3 PUSH2 0x452 JUMP JUMPDEST JUMPDEST PUSH1 0x0 DUP5 ADD CALLDATALOAD PUSH8 0xFFFFFFFFFFFFFFFF DUP2 GT ISZERO PUSH2 0x612 JUMPI PUSH2 0x611 PUSH2 0x457 JUMP JUMPDEST JUMPDEST PUSH2 0x61E DUP7 DUP3 DUP8 ADD PUSH2 0x585 JUMP JUMPDEST SWAP4 POP SWAP4 POP POP PUSH1 0x20 PUSH2 0x631 DUP7 DUP3 DUP8 ADD PUSH2 0x534 JUMP JUMPDEST SWAP2 POP POP SWAP3 POP SWAP3 POP SWAP3 JUMP JUMPDEST PUSH2 0x644 DUP2 PUSH2 0x50B JUMP JUMPDEST DUP3 MSTORE POP POP JUMP JUMPDEST PUSH1 0x0 PUSH1 0x20 DUP3 ADD SWAP1 POP PUSH2 0x65F PUSH1 0x0 DUP4 ADD DUP5 PUSH2 0x63B JUMP JUMPDEST SWAP3 SWAP2 POP POP JUMP JUMPDEST PUSH1 0x0 DUP3 DUP3 MSTORE PUSH1 0x20 DUP3 ADD SWAP1 POP SWAP3 SWAP2 POP POP JUMP JUMPDEST PUSH32 0x61646D696E2063616E2063616C6C207468652066756E6374696F6E0000000000 PUSH1 0x0 DUP3 ADD MSTORE POP JUMP JUMPDEST PUSH1 0x0 PUSH2 0x6AC PUSH1 0x1B DUP4 PUSH2 0x665 JUMP JUMPDEST SWAP2 POP PUSH2 0x6B7 DUP3 PUSH2 0x676 JUMP JUMPDEST PUSH1 0x20 DUP3 ADD SWAP1 POP SWAP2 SWAP1 POP JUMP JUMPDEST PUSH1 0x0 PUSH1 0x20 DUP3 ADD SWAP1 POP DUP2 DUP2 SUB PUSH1 0x0 DUP4 ADD MSTORE PUSH2 0x6DB DUP2 PUSH2 0x69F JUMP JUMPDEST SWAP1 POP SWAP2 SWAP1 POP JUMP JUMPDEST PUSH1 0x0 DUP2 PUSH1 0x60 SHL SWAP1 POP SWAP2 SWAP1 POP JUMP JUMPDEST PUSH1 0x0 PUSH2 0x6FA DUP3 PUSH2 0x6E2 JUMP JUMPDEST SWAP1 POP SWAP2 SWAP1 POP JUMP JUMPDEST PUSH1 0x0 PUSH2 0x70C DUP3 PUSH2 0x6EF JUMP JUMPDEST SWAP1 POP SWAP2 SWAP1 POP JUMP JUMPDEST PUSH2 0x724 PUSH2 0x71F DUP3 PUSH2 0x50B JUMP JUMPDEST PUSH2 0x701 JUMP JUMPDEST DUP3 MSTORE POP POP JUMP JUMPDEST PUSH1 0x0 PUSH2 0x736 DUP3 DUP5 PUSH2 0x713 JUMP JUMPDEST PUSH1 0x14 DUP3 ADD SWAP2 POP DUP2 SWAP1 POP SWAP3 SWAP2 POP POP JUMP JUMPDEST PUSH32 0x4E487B7100000000000000000000000000000000000000000000000000000000 PUSH1 0x0 MSTORE PUSH1 0x32 PUSH1 0x4 MSTORE PUSH1 0x24 PUSH1 0x0 REVERT JUMPDEST PUSH32 0x4E487B7100000000000000000000000000000000000000000000000000000000 PUSH1 0x0 MSTORE PUSH1 0x11 PUSH1 0x4 MSTORE PUSH1 0x24 PUSH1 0x0 REVERT JUMPDEST PUSH1 0x0 PUSH2 0x7AE DUP3 PUSH2 0x3EA JUMP JUMPDEST SWAP2 POP PUSH32 0xFFFFFFFFFFFFFFFFFFFFFFFFFFFFFFFFFFFFFFFFFFFFFFFFFFFFFFFFFFFFFFFF DUP3 SUB PUSH2 0x7E0 JUMPI PUSH2 0x7DF PUSH2 0x774 JUMP JUMPDEST JUMPDEST PUSH1 0x1 DUP3 ADD SWAP1 POP SWAP2 SWAP1 POP JUMP INVALID LOG2 PUSH5 0x6970667358 0x22 SLT KECCAK256 0xDA SELFDESTRUCT MLOAD GT DUP15 PREVRANDAO 0xAB 0xDC 0xB3 PUSH18 0x98714AEC57CC29EF0569EDF3DCAF59DF76D6 XOR 0x5C GASPRICE PUSH4 0x64736F6C PUSH4 0x43000812 STOP CALLER "
				},
				"gasEstimates": {
					"creation": {
						"codeDepositCost": "416200",
						"executionCost": "24721",
						"totalCost": "440921"
					},
					"external": {
						"admin()": "2602",
						"count()": "2407",
						"isValidProof(bytes32[],address)": "infinite",
						"rootHash()": "2429",
						"setAdmin(address)": "2959",
						"setRootHash(bytes32)": "24906"
					}
				},
				"methodIdentifiers": {
					"admin()": "f851a440",
					"count()": "06661abd",
					"isValidProof(bytes32[],address)": "9065e9d3",
					"rootHash()": "1d80009a",
					"setAdmin(address)": "704b6c02",
					"setRootHash(bytes32)": "2d7eae66"
				}
			},
			"storageLayout": {
				"storage": [
					{
						"astId": 532,
						"contract": "whitlist.sol:MerkleTreeWhiteListChecker",
						"label": "rootHash",
						"offset": 0,
						"slot": "0",
						"type": "t_bytes32"
					},
					{
						"astId": 534,
						"contract": "whitlist.sol:MerkleTreeWhiteListChecker",
						"label": "count",
						"offset": 0,
						"slot": "1",
						"type": "t_uint256"
					},
					{
						"astId": 536,
						"contract": "whitlist.sol:MerkleTreeWhiteListChecker",
						"label": "admin",
						"offset": 0,
						"slot": "2",
						"type": "t_address"
					}
				],
				"types": {
					"t_address": {
						"encoding": "inplace",
						"label": "address",
						"numberOfBytes": "20"
					},
					"t_bytes32": {
						"encoding": "inplace",
						"label": "bytes32",
						"numberOfBytes": "32"
					},
					"t_uint256": {
						"encoding": "inplace",
						"label": "uint256",
						"numberOfBytes": "32"
					}
				}
			},
			"userdoc": {
				"kind": "user",
				"methods": {},
				"version": 1
			}
		}
	}
}